{
  "_format": "hh-sol-artifact-1",
  "contractName": "ZkCards",
  "sourceName": "contracts/ZkCards.sol",
  "abi": [
    {
      "inputs": [
        {
          "internalType": "contract IVerifier",
          "name": "_verifier",
          "type": "address"
        },
        {
          "internalType": "uint32",
          "name": "levels",
          "type": "uint32"
        },
        {
          "internalType": "address",
          "name": "hasher",
          "type": "address"
        }
      ],
      "stateMutability": "nonpayable",
      "type": "constructor"
    },
    {
      "anonymous": false,
      "inputs": [
        {
          "indexed": false,
          "internalType": "uint256",
          "name": "pubKey",
          "type": "uint256"
        },
        {
          "indexed": false,
          "internalType": "uint256",
          "name": "attribute1",
          "type": "uint256"
        },
        {
          "indexed": false,
          "internalType": "uint256",
          "name": "attribute2",
          "type": "uint256"
        },
        {
          "indexed": false,
          "internalType": "uint256",
          "name": "attribute3",
          "type": "uint256"
        }
      ],
      "name": "BidAccepted",
      "type": "event"
    },
    {
      "anonymous": false,
      "inputs": [
        {
          "indexed": false,
          "internalType": "uint256",
          "name": "pubKey",
          "type": "uint256"
        },
        {
          "indexed": false,
          "internalType": "uint256",
          "name": "attribute1",
          "type": "uint256"
        },
        {
          "indexed": false,
          "internalType": "uint256",
          "name": "attribute2",
          "type": "uint256"
        },
        {
          "indexed": false,
          "internalType": "uint256",
          "name": "attribute3",
          "type": "uint256"
        }
      ],
      "name": "NewBid",
      "type": "event"
    },
    {
      "anonymous": false,
      "inputs": [
        {
          "indexed": false,
          "internalType": "bytes32",
          "name": "commitment",
          "type": "bytes32"
        },
        {
          "indexed": false,
          "internalType": "uint256",
          "name": "index",
          "type": "uint256"
        }
      ],
      "name": "NewCommitment",
      "type": "event"
    },
    {
      "inputs": [],
      "name": "FIELD_SIZE",
      "outputs": [
        {
          "internalType": "uint256",
          "name": "",
          "type": "uint256"
        }
      ],
      "stateMutability": "view",
      "type": "function"
    },
    {
      "inputs": [],
      "name": "ROOT_HISTORY_SIZE",
      "outputs": [
        {
          "internalType": "uint32",
          "name": "",
          "type": "uint32"
        }
      ],
      "stateMutability": "view",
      "type": "function"
    },
    {
      "inputs": [],
      "name": "ZERO_VALUE",
      "outputs": [
        {
          "internalType": "uint256",
          "name": "",
          "type": "uint256"
        }
      ],
      "stateMutability": "view",
      "type": "function"
    },
    {
      "inputs": [
        {
          "internalType": "uint256",
          "name": "",
          "type": "uint256"
        },
        {
          "internalType": "uint256",
          "name": "",
          "type": "uint256"
        }
      ],
      "name": "bids",
      "outputs": [
        {
          "internalType": "uint256",
          "name": "",
          "type": "uint256"
        }
      ],
      "stateMutability": "view",
      "type": "function"
    },
    {
      "inputs": [
        {
          "internalType": "uint256",
          "name": "pubKey",
          "type": "uint256"
        },
        {
          "internalType": "uint256",
          "name": "attribute1",
          "type": "uint256"
        },
        {
          "internalType": "uint256",
          "name": "attribute2",
          "type": "uint256"
        },
        {
          "internalType": "uint256",
          "name": "attribute3",
          "type": "uint256"
        }
      ],
      "name": "cancel",
      "outputs": [],
      "stateMutability": "nonpayable",
      "type": "function"
    },
    {
      "inputs": [
        {
          "internalType": "uint256",
          "name": "",
          "type": "uint256"
        }
      ],
      "name": "commitments",
      "outputs": [
        {
          "internalType": "bool",
          "name": "",
          "type": "bool"
        }
      ],
      "stateMutability": "view",
      "type": "function"
    },
    {
      "inputs": [],
      "name": "currentRootIndex",
      "outputs": [
        {
          "internalType": "uint32",
          "name": "",
          "type": "uint32"
        }
      ],
      "stateMutability": "view",
      "type": "function"
    },
    {
      "inputs": [
        {
          "internalType": "uint256",
          "name": "",
          "type": "uint256"
        }
      ],
      "name": "filledSubtrees",
      "outputs": [
        {
          "internalType": "bytes32",
          "name": "",
          "type": "bytes32"
        }
      ],
      "stateMutability": "view",
      "type": "function"
    },
    {
      "inputs": [],
      "name": "getLastRoot",
      "outputs": [
        {
          "internalType": "bytes32",
          "name": "",
          "type": "bytes32"
        }
      ],
      "stateMutability": "view",
      "type": "function"
    },
    {
      "inputs": [
        {
          "internalType": "contract IHasher",
          "name": "_hasher",
          "type": "address"
        },
        {
          "internalType": "bytes32",
          "name": "_left",
          "type": "bytes32"
        },
        {
          "internalType": "bytes32",
          "name": "_right",
          "type": "bytes32"
        }
      ],
      "name": "hashLeftRight",
      "outputs": [
        {
          "internalType": "bytes32",
          "name": "",
          "type": "bytes32"
        }
      ],
      "stateMutability": "pure",
      "type": "function"
    },
    {
      "inputs": [],
      "name": "hasher",
      "outputs": [
        {
          "internalType": "contract IHasher",
          "name": "",
          "type": "address"
        }
      ],
      "stateMutability": "view",
      "type": "function"
    },
    {
      "inputs": [
        {
          "internalType": "bytes32",
          "name": "_root",
          "type": "bytes32"
        }
      ],
      "name": "isKnownRoot",
      "outputs": [
        {
          "internalType": "bool",
          "name": "",
          "type": "bool"
        }
      ],
      "stateMutability": "view",
      "type": "function"
    },
    {
      "inputs": [],
      "name": "levels",
      "outputs": [
        {
          "internalType": "uint32",
          "name": "",
          "type": "uint32"
        }
      ],
      "stateMutability": "view",
      "type": "function"
    },
    {
      "inputs": [
        {
          "internalType": "uint256",
          "name": "pubKey",
          "type": "uint256"
        },
        {
          "internalType": "uint256",
          "name": "attribute1",
          "type": "uint256"
        },
        {
          "internalType": "uint256",
          "name": "attribute2",
          "type": "uint256"
        },
        {
          "internalType": "uint256",
          "name": "attribute3",
          "type": "uint256"
        }
      ],
      "name": "makeBid",
      "outputs": [],
      "stateMutability": "payable",
      "type": "function"
    },
    {
      "inputs": [
        {
          "internalType": "uint256[2]",
          "name": "a",
          "type": "uint256[2]"
        },
        {
          "internalType": "uint256[2][2]",
          "name": "b",
          "type": "uint256[2][2]"
        },
        {
          "internalType": "uint256[2]",
          "name": "c",
          "type": "uint256[2]"
        },
        {
          "internalType": "uint256[1]",
          "name": "input",
          "type": "uint256[1]"
        }
      ],
      "name": "mint",
      "outputs": [],
      "stateMutability": "nonpayable",
      "type": "function"
    },
    {
      "inputs": [
        {
          "internalType": "uint256",
          "name": "id",
          "type": "uint256"
        },
        {
          "internalType": "address",
          "name": "recipient",
          "type": "address"
        },
        {
          "internalType": "uint256[2]",
          "name": "a",
          "type": "uint256[2]"
        },
        {
          "internalType": "uint256[2][2]",
          "name": "b",
          "type": "uint256[2][2]"
        },
        {
          "internalType": "uint256[2]",
          "name": "c",
          "type": "uint256[2]"
        },
        {
          "internalType": "uint256[1]",
          "name": "input",
          "type": "uint256[1]"
        }
      ],
      "name": "mintTo",
      "outputs": [],
      "stateMutability": "nonpayable",
      "type": "function"
    },
    {
      "inputs": [],
      "name": "nextIndex",
      "outputs": [
        {
          "internalType": "uint32",
          "name": "",
          "type": "uint32"
        }
      ],
      "stateMutability": "view",
      "type": "function"
    },
    {
      "inputs": [
        {
          "internalType": "uint256",
          "name": "",
          "type": "uint256"
        }
      ],
      "name": "nullifiers",
      "outputs": [
        {
          "internalType": "bool",
          "name": "",
          "type": "bool"
        }
      ],
      "stateMutability": "view",
      "type": "function"
    },
    {
      "inputs": [
        {
          "internalType": "uint256",
          "name": "",
          "type": "uint256"
        }
      ],
      "name": "ownerOf",
      "outputs": [
        {
          "internalType": "address",
          "name": "",
          "type": "address"
        }
      ],
      "stateMutability": "view",
      "type": "function"
    },
    {
      "inputs": [
        {
          "internalType": "address",
          "name": "",
          "type": "address"
        }
      ],
      "name": "publicKeys",
      "outputs": [
        {
          "internalType": "uint256",
          "name": "",
          "type": "uint256"
        }
      ],
      "stateMutability": "view",
      "type": "function"
    },
    {
      "inputs": [
        {
          "internalType": "uint256",
          "name": "",
          "type": "uint256"
        }
      ],
      "name": "roots",
      "outputs": [
        {
          "internalType": "bytes32",
          "name": "",
          "type": "bytes32"
        }
      ],
      "stateMutability": "view",
      "type": "function"
    },
    {
      "inputs": [
        {
          "internalType": "uint256[2]",
          "name": "a",
          "type": "uint256[2]"
        },
        {
          "internalType": "uint256[2][2]",
          "name": "b",
          "type": "uint256[2][2]"
        },
        {
          "internalType": "uint256[2]",
          "name": "c",
          "type": "uint256[2]"
        },
        {
          "internalType": "uint256[8]",
          "name": "input",
          "type": "uint256[8]"
        }
      ],
      "name": "sell",
      "outputs": [],
      "stateMutability": "nonpayable",
      "type": "function"
    },
    {
      "inputs": [
        {
          "internalType": "uint256[2]",
          "name": "a",
          "type": "uint256[2]"
        },
        {
          "internalType": "uint256[2][2]",
          "name": "b",
          "type": "uint256[2][2]"
        },
        {
          "internalType": "uint256[2]",
          "name": "c",
          "type": "uint256[2]"
        },
        {
          "internalType": "uint256[2]",
          "name": "input",
          "type": "uint256[2]"
        }
      ],
      "name": "shield",
      "outputs": [],
      "stateMutability": "nonpayable",
      "type": "function"
    },
    {
      "inputs": [
        {
          "internalType": "uint256",
          "name": "",
          "type": "uint256"
        }
      ],
      "name": "status",
      "outputs": [
        {
          "internalType": "uint8",
          "name": "",
          "type": "uint8"
        }
      ],
      "stateMutability": "view",
      "type": "function"
    },
    {
      "inputs": [
        {
          "internalType": "uint256[2]",
          "name": "a",
          "type": "uint256[2]"
        },
        {
          "internalType": "uint256[2][2]",
          "name": "b",
          "type": "uint256[2][2]"
        },
        {
          "internalType": "uint256[2]",
          "name": "c",
          "type": "uint256[2]"
        },
        {
          "internalType": "uint256[3]",
          "name": "input",
          "type": "uint256[3]"
        }
      ],
      "name": "transfer",
      "outputs": [],
      "stateMutability": "nonpayable",
      "type": "function"
    },
    {
      "inputs": [
        {
          "internalType": "uint256[2]",
          "name": "a",
          "type": "uint256[2]"
        },
        {
          "internalType": "uint256[2][2]",
          "name": "b",
          "type": "uint256[2][2]"
        },
        {
          "internalType": "uint256[2]",
          "name": "c",
          "type": "uint256[2]"
        },
        {
          "internalType": "uint256[4]",
          "name": "input",
          "type": "uint256[4]"
        }
      ],
      "name": "unshield",
      "outputs": [],
      "stateMutability": "nonpayable",
      "type": "function"
    },
    {
      "inputs": [],
      "name": "verifier",
      "outputs": [
        {
          "internalType": "contract IVerifier",
          "name": "",
          "type": "address"
        }
      ],
      "stateMutability": "view",
      "type": "function"
    },
    {
      "inputs": [
        {
          "internalType": "uint256",
          "name": "i",
          "type": "uint256"
        }
      ],
      "name": "zeros",
      "outputs": [
        {
          "internalType": "bytes32",
          "name": "",
          "type": "bytes32"
        }
      ],
      "stateMutability": "pure",
      "type": "function"
    }
  ],
  "bytecode": "0x60a06040526000600360006101000a81548163ffffffff021916908363ffffffff1602179055506000600360046101000a81548163ffffffff021916908363ffffffff1602179055503480156200005557600080fd5b50604051620057943803806200579483398181016040528101906200007b919062000a25565b818160008263ffffffff1611620000c9576040517f08c379a0000000000000000000000000000000000000000000000000000000008152600401620000c09062000b08565b60405180910390fd5b60208263ffffffff161062000115576040517f08c379a00000000000000000000000000000000000000000000000000000000081526004016200010c9062000b7a565b60405180910390fd5b816000806101000a81548163ffffffff021916908363ffffffff1602179055508073ffffffffffffffffffffffffffffffffffffffff1660808173ffffffffffffffffffffffffffffffffffffffff168152505060005b8263ffffffff168163ffffffff161015620001cb57620001988163ffffffff166200025460201b60201c565b600160008363ffffffff168152602001908152602001600020819055508080620001c29062000bcb565b9150506200016c565b50620001f1600183620001df919062000bfc565b63ffffffff166200025460201b60201c565b6002600080815260200190815260200160002081905550505082600360086101000a81548173ffffffffffffffffffffffffffffffffffffffff021916908373ffffffffffffffffffffffffffffffffffffffff16021790555050505062000ca9565b60008082036200028a577f2fe54c60d3acabf3343a35b6eba15db4821b340f76e741e2249685ed4899af6c60001b905062000930565b60018203620002bf577f256a6135777eee2fd26f54b8b7037a25439d5235caee224154186d2b8a52e31d60001b905062000930565b60028203620002f4577f1151949895e82ab19924de92c40a3d6f7bcb60d92b00504b8199613683f0c20060001b905062000930565b6003820362000329577f20121ee811489ff8d61f09fb89e313f14959a0f28bb428a20dba6b0b068b3bdb60001b905062000930565b600482036200035e577f0a89ca6ffa14cc462cfedb842c30ed221a50a3d6bf022a6a57dc82ab24c157c960001b905062000930565b6005820362000393577f24ca05c2b5cd42e890d6be94c68d0689f4f21c9cec9c0f13fe41d566dfb5495960001b905062000930565b60068203620003c8577f1ccb97c932565a92c60156bdba2d08f3bf1377464e025cee765679e604a7315c60001b905062000930565b60078203620003fd577f19156fbd7d1a8bf5cba8909367de1b624534ebab4f0f79e003bccdd1b182bdb460001b905062000930565b6008820362000432577f261af8c1f0912e465744641409f622d466c3920ac6e5ff37e36604cb11dfff8060001b905062000930565b6009820362000466577e58459724ff6ca5a1652fcbc3e82b93895cf08e975b19beab3f54c217d1c00760001b905062000930565b600a82036200049b577f1f04ef20dee48d39984d8eabe768a70eafa6310ad20849d4573c3c40c2ad1e3060001b905062000930565b600b8203620004d0577f1bea3dec5dab51567ce7e200a30f7ba6d4276aeaa53e2686f962a46c66d511e560001b905062000930565b600c820362000505577f0ee0f941e2da4b9e31c3ca97a40d8fa9ce68d97c084177071b3cb46cd3372f0f60001b905062000930565b600d82036200053a577f1ca9503e8935884501bbaf20be14eb4c46b89772c97b96e3b2ebf3a36a948bbd60001b905062000930565b600e82036200056f577f133a80e30697cd55d8f7d4b0965b7be24057ba5dc3da898ee2187232446cb10860001b905062000930565b600f8203620005a4577f13e6d8fc88839ed76e182c2a779af5b2c0da9dd18c90427a644f7e148a6253b660001b905062000930565b60108203620005d9577f1eb16b057a477f4bc8f572ea6bee39561098f78f15bfb3699dcbb7bd8db6185460001b905062000930565b601182036200060e577f0da2cb16a1ceaabf1c16b838f7a9e3f2a3a3088d9e0a6debaa748114620696ea60001b905062000930565b6012820362000643577f24a3b3d822420b14b5d8cb6c28a574f01e98ea9e940551d2ebd75cee12649f9d60001b905062000930565b6013820362000678577f198622acbd783d1b0d9064105b1fc8e4d8889de95c4c519b3f635809fe6afc0560001b905062000930565b60148203620006ad577f29d7ed391256ccc3ea596c86e933b89ff339d25ea8ddced975ae2fe30b5296d460001b905062000930565b60158203620006e2577f19be59f2f0413ce78c0c3703a3a5451b1d7f39629fa33abd11548a76065b296760001b905062000930565b6016820362000717577f1ff3f61797e538b70e619310d33f2a063e7eb59104e112e95738da1254dc345360001b905062000930565b601782036200074c577f10c16ae9959cf8358980d9dd9616e48228737310a10e2b6b731c1a548f036c4860001b905062000930565b6018820362000781577f0ba433a63174a90ac20992e75e3095496812b652685b5e1a2eae0b1bf4e8fcd160001b905062000930565b60198203620007b6577f019ddb9df2bc98d987d0dfeca9d2b643deafab8f7036562e627c3667266a044c60001b905062000930565b601a8203620007eb577f2d3c88b23175c5a5565db928414c66d1912b11acf974b2e644caaac04739ce9960001b905062000930565b601b820362000820577f2eab55f6ae4e66e32c5189eed5c470840863445760f5ed7e7b69b2a62600f35460001b905062000930565b601c820362000854577e2df37a2642621802383cf952bf4dd1f32e05433beeb1fd41031fb7eace979d60001b905062000930565b601d820362000889577f104aeb41435db66c3e62feccc1d6f5d98d0a0ed75d1374db457cf462e3a1f42760001b905062000930565b601e8203620008be577f1f3c6fd858e9a7d4b0d1f38e256a09d81d5a5e3c963987e2d4b814cfab7c6ebb60001b905062000930565b601f8203620008f3577f2c7a07d20dff79d01fecedc1134284a8d08436606c93693b67e333f671bf69cc60001b905062000930565b6040517f08c379a0000000000000000000000000000000000000000000000000000000008152600401620009279062000c87565b60405180910390fd5b919050565b600080fd5b600073ffffffffffffffffffffffffffffffffffffffff82169050919050565b600062000967826200093a565b9050919050565b60006200097b826200095a565b9050919050565b6200098d816200096e565b81146200099957600080fd5b50565b600081519050620009ad8162000982565b92915050565b600063ffffffff82169050919050565b620009ce81620009b3565b8114620009da57600080fd5b50565b600081519050620009ee81620009c3565b92915050565b620009ff816200095a565b811462000a0b57600080fd5b50565b60008151905062000a1f81620009f4565b92915050565b60008060006060848603121562000a415762000a4062000935565b5b600062000a51868287016200099c565b935050602062000a6486828701620009dd565b925050604062000a778682870162000a0e565b9150509250925092565b600082825260208201905092915050565b7f5f6c6576656c732073686f756c642062652067726561746572207468616e207a60008201527f65726f0000000000000000000000000000000000000000000000000000000000602082015250565b600062000af060238362000a81565b915062000afd8262000a92565b604082019050919050565b6000602082019050818103600083015262000b238162000ae1565b9050919050565b7f5f6c6576656c732073686f756c64206265206c657373207468616e2033320000600082015250565b600062000b62601e8362000a81565b915062000b6f8262000b2a565b602082019050919050565b6000602082019050818103600083015262000b958162000b53565b9050919050565b7f4e487b7100000000000000000000000000000000000000000000000000000000600052601160045260246000fd5b600062000bd882620009b3565b915063ffffffff820362000bf15762000bf062000b9c565b5b600182019050919050565b600062000c0982620009b3565b915062000c1683620009b3565b92508282101562000c2c5762000c2b62000b9c565b5b828203905092915050565b7f496e646578206f7574206f6620626f756e647300000000000000000000000000600082015250565b600062000c6f60138362000a81565b915062000c7c8262000c37565b602082019050919050565b6000602082019050818103600083015262000ca28162000c60565b9050919050565b608051614ac862000ccc600039600081816127290152612a750152614ac86000f3fe6080604052600436106101b75760003560e01c8063a3d6f9a9116100ec578063e5110e5f1161008a578063ecf4a08611610064578063ecf4a0861461066a578063ed33639f14610686578063f178e47c146106b1578063fc7e9c6f146106ee576101b7565b8063e5110e5f146105d9578063e829558814610602578063ec7329591461063f576101b7565b8063c7f45f5e116100c6578063c7f45f5e1461051f578063cd87a3b414610548578063d21e82ab14610573578063e3b01c07146105b0576101b7565b8063a3d6f9a91461047a578063ba70f757146104b7578063c2b40ae4146104e2576101b7565b80636352211e116101595780637997bd1c116101335780637997bd1c146103ac5780637b3c4baa146103d55780638ea3099e1461041257806390eeb02b1461044f576101b7565b80636352211e146103095780636d9833e3146103465780637273981514610383576101b7565b806342d21ef71161019557806342d21ef71461023b578063495aa4ac1461027857806349ce8997146102a15780634ecf518b146102de576101b7565b80632b7ac3f3146101bc578063414a37ba146101e757806341a45e0714610212575b600080fd5b3480156101c857600080fd5b506101d1610719565b6040516101de9190612be8565b60405180910390f35b3480156101f357600080fd5b506101fc61073f565b6040516102099190612c1c565b60405180910390f35b34801561021e57600080fd5b5061023960048036038101906102349190612f1b565b610763565b005b34801561024757600080fd5b50610262600480360381019061025d9190612f84565b610a21565b60405161026f9190612fcd565b60405180910390f35b34801561028457600080fd5b5061029f600480360381019061029a91906130d7565b610a41565b005b3480156102ad57600080fd5b506102c860048036038101906102c39190612f84565b610a57565b6040516102d59190613182565b60405180910390f35b3480156102ea57600080fd5b506102f3610a77565b60405161030091906131bc565b60405180910390f35b34801561031557600080fd5b50610330600480360381019061032b9190612f84565b610a8b565b60405161033d91906131e6565b60405180910390f35b34801561035257600080fd5b5061036d60048036038101906103689190613237565b610abe565b60405161037a9190613182565b60405180910390f35b34801561038f57600080fd5b506103aa60048036038101906103a59190613264565b610b5b565b005b3480156103b857600080fd5b506103d360048036038101906103ce91906132cb565b610ed2565b005b3480156103e157600080fd5b506103fc60048036038101906103f79190613334565b610efe565b6040516104099190612c1c565b60405180910390f35b34801561041e57600080fd5b50610439600480360381019061043491906133b2565b610f23565b6040516104469190613414565b60405180910390f35b34801561045b57600080fd5b50610464611145565b60405161047191906131bc565b60405180910390f35b34801561048657600080fd5b506104a1600480360381019061049c919061342f565b61115b565b6040516104ae9190612c1c565b60405180910390f35b3480156104c357600080fd5b506104cc611173565b6040516104d99190613414565b60405180910390f35b3480156104ee57600080fd5b5061050960048036038101906105049190612f84565b6111a6565b6040516105169190613414565b60405180910390f35b34801561052b57600080fd5b506105466004803603810190610541919061350d565b6111be565b005b34801561055457600080fd5b5061055d6114cd565b60405161056a91906131bc565b60405180910390f35b34801561057f57600080fd5b5061059a60048036038101906105959190612f84565b6114d2565b6040516105a79190613182565b60405180910390f35b3480156105bc57600080fd5b506105d760048036038101906105d29190613576565b6114f2565b005b3480156105e557600080fd5b5061060060048036038101906105fb9190613690565b611864565b005b34801561060e57600080fd5b5061062960048036038101906106249190612f84565b611dd7565b6040516106369190613414565b60405180910390f35b34801561064b57600080fd5b50610654612476565b6040516106619190612c1c565b60405180910390f35b610684600480360381019061067f9190613264565b61249a565b005b34801561069257600080fd5b5061069b612727565b6040516106a8919061371a565b60405180910390f35b3480156106bd57600080fd5b506106d860048036038101906106d39190612f84565b61274b565b6040516106e59190613414565b60405180910390f35b3480156106fa57600080fd5b50610703612763565b60405161071091906131bc565b60405180910390f35b600360089054906101000a900473ffffffffffffffffffffffffffffffffffffffff1681565b7f30644e72e131a029b85045b68181585d2833e84879b9709143e1f593f000000181565b60008160006004811061077957610778613735565b5b6020020151905060008260016004811061079657610795613735565b5b602002015190506000836002600481106107b3576107b2613735565b5b602002015190506000846003600481106107d0576107cf613735565b5b6020020151905060008290506007600086815260200190815260200160002060009054906101000a900460ff161561083d576040517f08c379a0000000000000000000000000000000000000000000000000000000008152600401610834906137c1565b60405180910390fd5b60016007600087815260200190815260200160002060006101000a81548160ff0219169083151502179055506108758260001b610abe565b6108b4576040517f08c379a00000000000000000000000000000000000000000000000000000000081526004016108ab9061382d565b60405180910390fd5b600360089054906101000a900473ffffffffffffffffffffffffffffffffffffffff1673ffffffffffffffffffffffffffffffffffffffff1663557a2f5f8a8a8a8a6040518563ffffffff1660e01b81526004016109159493929190613a7a565b6020604051808303816000875af1158015610934573d6000803e3d6000fd5b505050506040513d601f19601f820116820180604052508101906109589190613aed565b610997576040517f08c379a000000000000000000000000000000000000000000000000000000000815260040161098e90613b66565b60405180910390fd5b806004600086815260200190815260200160002060006101000a81548173ffffffffffffffffffffffffffffffffffffffff021916908373ffffffffffffffffffffffffffffffffffffffff16021790555060016005600086815260200190815260200160002060006101000a81548160ff021916908360ff160217905550505050505050505050565b60056020528060005260406000206000915054906101000a900460ff1681565b610a4f868686868686612779565b505050505050565b60066020528060005260406000206000915054906101000a900460ff1681565b60008054906101000a900463ffffffff1681565b60046020528060005260406000206000915054906101000a900473ffffffffffffffffffffffffffffffffffffffff1681565b60008060001b8203610ad35760009050610b56565b6000600360009054906101000a900463ffffffff16905060008190505b600260008263ffffffff168152602001908152602001600020548403610b1b57600192505050610b56565b60008163ffffffff1603610b2e57601e90505b8080610b3990613bb5565b9150508163ffffffff168163ffffffff1603610af0576000925050505b919050565b600a8312610b9e576040517f08c379a0000000000000000000000000000000000000000000000000000000008152600401610b9590613c2a565b60405180910390fd5b60008311610be1576040517f08c379a0000000000000000000000000000000000000000000000000000000008152600401610bd890613c96565b60405180910390fd5b600a8210610c24576040517f08c379a0000000000000000000000000000000000000000000000000000000008152600401610c1b90613c2a565b60405180910390fd5b60008211610c67576040517f08c379a0000000000000000000000000000000000000000000000000000000008152600401610c5e90613c96565b60405180910390fd5b600a8110610caa576040517f08c379a0000000000000000000000000000000000000000000000000000000008152600401610ca190613c2a565b60405180910390fd5b60008111610ced576040517f08c379a0000000000000000000000000000000000000000000000000000000008152600401610ce490613c96565b60405180910390fd5b600a818385610cfc9190613cb6565b610d069190613cb6565b1115610d47576040517f08c379a0000000000000000000000000000000000000000000000000000000008152600401610d3e90613d7e565b60405180910390fd5b83600960003373ffffffffffffffffffffffffffffffffffffffff1673ffffffffffffffffffffffffffffffffffffffff1681526020019081526020016000205414610d9257600080fd5b600060086000868152602001908152602001600020600083600a86610db79190613d9e565b606488610dc49190613d9e565b610dce9190613cb6565b610dd89190613cb6565b815260200190815260200160002054905060008103610e2c576040517f08c379a0000000000000000000000000000000000000000000000000000000008152600401610e2390613e44565b60405180910390fd5b600060086000878152602001908152602001600020600084600a87610e519190613d9e565b606489610e5e9190613d9e565b610e689190613cb6565b610e729190613cb6565b8152602001908152602001600020819055503373ffffffffffffffffffffffffffffffffffffffff166108fc829081150290604051600060405180830381858888f19350505050158015610eca573d6000803e3d6000fd5b505050505050565b610ef881600060018110610ee957610ee8613735565b5b60200201513386868686612779565b50505050565b6008602052816000526040600020602052806000526040600020600091509150505481565b60007f30644e72e131a029b85045b68181585d2833e84879b9709143e1f593f00000018360001c10610f8a576040517f08c379a0000000000000000000000000000000000000000000000000000000008152600401610f8190613eb0565b60405180910390fd5b7f30644e72e131a029b85045b68181585d2833e84879b9709143e1f593f00000018260001c10610fef576040517f08c379a0000000000000000000000000000000000000000000000000000000008152600401610fe690613f42565b60405180910390fd5b60008360001c905060008573ffffffffffffffffffffffffffffffffffffffff1663f47d33b583836040518363ffffffff1660e01b8152600401611034929190613f62565b6040805180830381865afa158015611050573d6000803e3d6000fd5b505050506040513d601f19601f820116820180604052508101906110749190613fa0565b80925081935050507f30644e72e131a029b85045b68181585d2833e84879b9709143e1f593f0000001806110ab576110aa613fe0565b5b8460001c830891508573ffffffffffffffffffffffffffffffffffffffff1663f47d33b583836040518363ffffffff1660e01b81526004016110ee929190613f62565b6040805180830381865afa15801561110a573d6000803e3d6000fd5b505050506040513d601f19601f8201168201806040525081019061112e9190613fa0565b80925081935050508160001b925050509392505050565b600360009054906101000a900463ffffffff1681565b60096020528060005260406000206000915090505481565b600060026000600360009054906101000a900463ffffffff1663ffffffff16815260200190815260200160002054905090565b60026020528060005260406000206000915090505481565b6000816000600381106111d4576111d3613735565b5b602002015190506000826001600381106111f1576111f0613735565b5b6020020151905060008360026003811061120e5761120d613735565b5b602002015190506007600084815260200190815260200160002060009054906101000a900460ff1615611276576040517f08c379a000000000000000000000000000000000000000000000000000000000815260040161126d906137c1565b60405180910390fd5b6112828160001b610abe565b6112c1576040517f08c379a00000000000000000000000000000000000000000000000000000000081526004016112b89061382d565b60405180910390fd5b600360089054906101000a900473ffffffffffffffffffffffffffffffffffffffff1673ffffffffffffffffffffffffffffffffffffffff16637d176458888888886040518563ffffffff1660e01b81526004016113229493929190614093565b6020604051808303816000875af1158015611341573d6000803e3d6000fd5b505050506040513d601f19601f820116820180604052508101906113659190613aed565b6113a4576040517f08c379a000000000000000000000000000000000000000000000000000000000815260040161139b90613b66565b60405180910390fd5b60016007600085815260200190815260200160002060006101000a81548160ff0219169083151502179055506006600083815260200190815260200160002060009054906101000a900460ff1615611431576040517f08c379a000000000000000000000000000000000000000000000000000000000815260040161142890614126565b60405180910390fd5b61143d8260001b612949565b5060016006600084815260200190815260200160002060006101000a81548160ff0219169083151502179055507f7820cafa2ee4e973e876df3308134064ca72c7d967b1a79ff83049404deb12278260001b6001600360049054906101000a900463ffffffff166114ae9190614146565b6040516114bc9291906141ab565b60405180910390a150505050505050565b601e81565b60076020528060005260406000206000915054906101000a900460ff1681565b60008160006002811061150857611507613735565b5b6020020151905060008260016002811061152557611524613735565b5b6020020151905060016005600083815260200190815260200160002060009054906101000a900460ff1660ff1614611592576040517f08c379a000000000000000000000000000000000000000000000000000000000815260040161158990614246565b60405180910390fd5b3373ffffffffffffffffffffffffffffffffffffffff166004600083815260200190815260200160002060009054906101000a900473ffffffffffffffffffffffffffffffffffffffff1673ffffffffffffffffffffffffffffffffffffffff1614611633576040517f08c379a000000000000000000000000000000000000000000000000000000000815260040161162a906142b2565b60405180910390fd5b6006600083815260200190815260200160002060009054906101000a900460ff1615611694576040517f08c379a000000000000000000000000000000000000000000000000000000000815260040161168b90614126565b60405180910390fd5b600360089054906101000a900473ffffffffffffffffffffffffffffffffffffffff1673ffffffffffffffffffffffffffffffffffffffff16638ff2bf9e878787876040518563ffffffff1660e01b81526004016116f594939291906142d2565b6020604051808303816000875af1158015611714573d6000803e3d6000fd5b505050506040513d601f19601f820116820180604052508101906117389190613aed565b611777576040517f08c379a000000000000000000000000000000000000000000000000000000000815260040161176e90614365565b60405180910390fd5b6117838260001b612949565b5060016006600084815260200190815260200160002060006101000a81548160ff021916908315150217905550306004600083815260200190815260200160002060006101000a81548173ffffffffffffffffffffffffffffffffffffffff021916908373ffffffffffffffffffffffffffffffffffffffff1602179055507f7820cafa2ee4e973e876df3308134064ca72c7d967b1a79ff83049404deb12278260001b6001600360049054906101000a900463ffffffff166118469190614146565b6040516118549291906141ab565b60405180910390a1505050505050565b60008160006008811061187a57611879613735565b5b6020020151905060008260016008811061189757611896613735565b5b602002015190506000836002600881106118b4576118b3613735565b5b602002015190506000846003600881106118d1576118d0613735565b5b602002015190506000856004600881106118ee576118ed613735565b5b6020020151905060008660056008811061190b5761190a613735565b5b6020020151905060008760066008811061192857611927613735565b5b60200201519050600081600a8461193f9190613d9e565b60648661194c9190613d9e565b6119569190613cb6565b6119609190613cb6565b9050600060086000878152602001908152602001600020600083815260200190815260200160002054905060008a6007600881106119a1576119a0613735565b5b602002015190503373ffffffffffffffffffffffffffffffffffffffff168173ffffffffffffffffffffffffffffffffffffffff1614611a16576040517f08c379a0000000000000000000000000000000000000000000000000000000008152600401611a0d906143d1565b60405180910390fd5b60008203611a59576040517f08c379a0000000000000000000000000000000000000000000000000000000008152600401611a509061443d565b60405180910390fd5b600760008b815260200190815260200160002060009054906101000a900460ff1615611aba576040517f08c379a0000000000000000000000000000000000000000000000000000000008152600401611ab1906137c1565b60405180910390fd5b611ac68860001b610abe565b611b05576040517f08c379a0000000000000000000000000000000000000000000000000000000008152600401611afc9061382d565b60405180910390fd5b600360089054906101000a900473ffffffffffffffffffffffffffffffffffffffff1673ffffffffffffffffffffffffffffffffffffffff1663ae1e99a28f8f8f8f6040518563ffffffff1660e01b8152600401611b6694939291906144e1565b6020604051808303816000875af1158015611b85573d6000803e3d6000fd5b505050506040513d601f19601f82011682018060405250810190611ba99190613aed565b611be8576040517f08c379a0000000000000000000000000000000000000000000000000000000008152600401611bdf90613b66565b60405180910390fd5b816008600089815260200190815260200160002060008581526020019081526020016000206000828254611c1c9190614528565b925050819055506001600760008c815260200190815260200160002060006101000a81548160ff021916908315150217905550600660008a815260200190815260200160002060009054906101000a900460ff1615611cb0576040517f08c379a0000000000000000000000000000000000000000000000000000000008152600401611ca790614126565b60405180910390fd5b611cbc8960001b612949565b506001600660008b815260200190815260200160002060006101000a81548160ff0219169083151502179055507f19281dd9e52dcb255e44a7626316c970b310d13ea2d0dc40b44f3a5a44b16e2287878787604051611d1e949392919061455c565b60405180910390a17f7820cafa2ee4e973e876df3308134064ca72c7d967b1a79ff83049404deb12278960001b6001600360049054906101000a900463ffffffff16611d6a9190614146565b604051611d789291906141ab565b60405180910390a13373ffffffffffffffffffffffffffffffffffffffff166108fc839081150290604051600060405180830381858888f19350505050158015611dc6573d6000803e3d6000fd5b505050505050505050505050505050565b6000808203611e0b577f2fe54c60d3acabf3343a35b6eba15db4821b340f76e741e2249685ed4899af6c60001b9050612471565b60018203611e3e577f256a6135777eee2fd26f54b8b7037a25439d5235caee224154186d2b8a52e31d60001b9050612471565b60028203611e71577f1151949895e82ab19924de92c40a3d6f7bcb60d92b00504b8199613683f0c20060001b9050612471565b60038203611ea4577f20121ee811489ff8d61f09fb89e313f14959a0f28bb428a20dba6b0b068b3bdb60001b9050612471565b60048203611ed7577f0a89ca6ffa14cc462cfedb842c30ed221a50a3d6bf022a6a57dc82ab24c157c960001b9050612471565b60058203611f0a577f24ca05c2b5cd42e890d6be94c68d0689f4f21c9cec9c0f13fe41d566dfb5495960001b9050612471565b60068203611f3d577f1ccb97c932565a92c60156bdba2d08f3bf1377464e025cee765679e604a7315c60001b9050612471565b60078203611f70577f19156fbd7d1a8bf5cba8909367de1b624534ebab4f0f79e003bccdd1b182bdb460001b9050612471565b60088203611fa3577f261af8c1f0912e465744641409f622d466c3920ac6e5ff37e36604cb11dfff8060001b9050612471565b60098203611fd5577e58459724ff6ca5a1652fcbc3e82b93895cf08e975b19beab3f54c217d1c00760001b9050612471565b600a8203612008577f1f04ef20dee48d39984d8eabe768a70eafa6310ad20849d4573c3c40c2ad1e3060001b9050612471565b600b820361203b577f1bea3dec5dab51567ce7e200a30f7ba6d4276aeaa53e2686f962a46c66d511e560001b9050612471565b600c820361206e577f0ee0f941e2da4b9e31c3ca97a40d8fa9ce68d97c084177071b3cb46cd3372f0f60001b9050612471565b600d82036120a1577f1ca9503e8935884501bbaf20be14eb4c46b89772c97b96e3b2ebf3a36a948bbd60001b9050612471565b600e82036120d4577f133a80e30697cd55d8f7d4b0965b7be24057ba5dc3da898ee2187232446cb10860001b9050612471565b600f8203612107577f13e6d8fc88839ed76e182c2a779af5b2c0da9dd18c90427a644f7e148a6253b660001b9050612471565b6010820361213a577f1eb16b057a477f4bc8f572ea6bee39561098f78f15bfb3699dcbb7bd8db6185460001b9050612471565b6011820361216d577f0da2cb16a1ceaabf1c16b838f7a9e3f2a3a3088d9e0a6debaa748114620696ea60001b9050612471565b601282036121a0577f24a3b3d822420b14b5d8cb6c28a574f01e98ea9e940551d2ebd75cee12649f9d60001b9050612471565b601382036121d3577f198622acbd783d1b0d9064105b1fc8e4d8889de95c4c519b3f635809fe6afc0560001b9050612471565b60148203612206577f29d7ed391256ccc3ea596c86e933b89ff339d25ea8ddced975ae2fe30b5296d460001b9050612471565b60158203612239577f19be59f2f0413ce78c0c3703a3a5451b1d7f39629fa33abd11548a76065b296760001b9050612471565b6016820361226c577f1ff3f61797e538b70e619310d33f2a063e7eb59104e112e95738da1254dc345360001b9050612471565b6017820361229f577f10c16ae9959cf8358980d9dd9616e48228737310a10e2b6b731c1a548f036c4860001b9050612471565b601882036122d2577f0ba433a63174a90ac20992e75e3095496812b652685b5e1a2eae0b1bf4e8fcd160001b9050612471565b60198203612305577f019ddb9df2bc98d987d0dfeca9d2b643deafab8f7036562e627c3667266a044c60001b9050612471565b601a8203612338577f2d3c88b23175c5a5565db928414c66d1912b11acf974b2e644caaac04739ce9960001b9050612471565b601b820361236b577f2eab55f6ae4e66e32c5189eed5c470840863445760f5ed7e7b69b2a62600f35460001b9050612471565b601c820361239d577e2df37a2642621802383cf952bf4dd1f32e05433beeb1fd41031fb7eace979d60001b9050612471565b601d82036123d0577f104aeb41435db66c3e62feccc1d6f5d98d0a0ed75d1374db457cf462e3a1f42760001b9050612471565b601e8203612403577f1f3c6fd858e9a7d4b0d1f38e256a09d81d5a5e3c963987e2d4b814cfab7c6ebb60001b9050612471565b601f8203612436577f2c7a07d20dff79d01fecedc1134284a8d08436606c93693b67e333f671bf69cc60001b9050612471565b6040517f08c379a0000000000000000000000000000000000000000000000000000000008152600401612468906145ed565b60405180910390fd5b919050565b7f2fe54c60d3acabf3343a35b6eba15db4821b340f76e741e2249685ed4899af6c81565b600a83126124dd576040517f08c379a00000000000000000000000000000000000000000000000000000000081526004016124d490613c2a565b60405180910390fd5b60008311612520576040517f08c379a000000000000000000000000000000000000000000000000000000000815260040161251790613c96565b60405180910390fd5b600a8210612563576040517f08c379a000000000000000000000000000000000000000000000000000000000815260040161255a90613c2a565b60405180910390fd5b600082116125a6576040517f08c379a000000000000000000000000000000000000000000000000000000000815260040161259d90613c96565b60405180910390fd5b600a81106125e9576040517f08c379a00000000000000000000000000000000000000000000000000000000081526004016125e090613c2a565b60405180910390fd5b6000811161262c576040517f08c379a000000000000000000000000000000000000000000000000000000000815260040161262390613c96565b60405180910390fd5b600a81838561263b9190613cb6565b6126459190613cb6565b1115612686576040517f08c379a000000000000000000000000000000000000000000000000000000000815260040161267d90613d7e565b60405180910390fd5b83600960003373ffffffffffffffffffffffffffffffffffffffff1673ffffffffffffffffffffffffffffffffffffffff168152602001908152602001600020819055503460086000868152602001908152602001600020600083600a866126ee9190613d9e565b6064886126fb9190613d9e565b6127059190613cb6565b61270f9190613cb6565b81526020019081526020016000208190555050505050565b7f000000000000000000000000000000000000000000000000000000000000000081565b60016020528060005260406000206000915090505481565b600360049054906101000a900463ffffffff1681565b60006005600088815260200190815260200160002060009054906101000a900460ff1660ff16146127df576040517f08c379a00000000000000000000000000000000000000000000000000000000081526004016127d690614659565b60405180910390fd5b600360089054906101000a900473ffffffffffffffffffffffffffffffffffffffff1673ffffffffffffffffffffffffffffffffffffffff1663db5f5af4858585856040518563ffffffff1660e01b815260040161284094939291906146fd565b6020604051808303816000875af115801561285f573d6000803e3d6000fd5b505050506040513d601f19601f820116820180604052508101906128839190613aed565b6128c2576040517f08c379a00000000000000000000000000000000000000000000000000000000081526004016128b9906147b6565b60405180910390fd5b60016005600088815260200190815260200160002060006101000a81548160ff021916908360ff160217905550846004600088815260200190815260200160002060006101000a81548173ffffffffffffffffffffffffffffffffffffffff021916908373ffffffffffffffffffffffffffffffffffffffff160217905550505050505050565b600080600360049054906101000a900463ffffffff16905060008054906101000a900463ffffffff16600261297e9190614909565b63ffffffff168163ffffffff16036129cb576040517f08c379a00000000000000000000000000000000000000000000000000000000081526004016129c2906149aa565b60405180910390fd5b6000819050600084905060008060005b60008054906101000a900463ffffffff1663ffffffff168163ffffffff161015612abf576000600286612a0e91906149ca565b63ffffffff1603612a5057839250612a2b8163ffffffff16611dd7565b915083600160008363ffffffff16815260200190815260200160002081905550612a70565b600160008263ffffffff1681526020019081526020016000205492508391505b612a9b7f00000000000000000000000000000000000000000000000000000000000000008484610f23565b9350600285612aaa91906149fb565b94508080612ab790614a2c565b9150506129db565b506000601e6001600360009054906101000a900463ffffffff16612ae39190614a58565b612aed91906149ca565b905080600360006101000a81548163ffffffff021916908363ffffffff16021790555083600260008363ffffffff16815260200190815260200160002081905550600186612b3b9190614a58565b600360046101000a81548163ffffffff021916908363ffffffff160217905550859650505050505050919050565b600073ffffffffffffffffffffffffffffffffffffffff82169050919050565b6000819050919050565b6000612bae612ba9612ba484612b69565b612b89565b612b69565b9050919050565b6000612bc082612b93565b9050919050565b6000612bd282612bb5565b9050919050565b612be281612bc7565b82525050565b6000602082019050612bfd6000830184612bd9565b92915050565b6000819050919050565b612c1681612c03565b82525050565b6000602082019050612c316000830184612c0d565b92915050565b6000604051905090565b600080fd5b600080fd5b6000601f19601f8301169050919050565b7f4e487b7100000000000000000000000000000000000000000000000000000000600052604160045260246000fd5b612c9482612c4b565b810181811067ffffffffffffffff82111715612cb357612cb2612c5c565b5b80604052505050565b6000612cc6612c37565b9050612cd28282612c8b565b919050565b600067ffffffffffffffff821115612cf257612cf1612c5c565b5b602082029050919050565b600080fd5b612d0b81612c03565b8114612d1657600080fd5b50565b600081359050612d2881612d02565b92915050565b6000612d41612d3c84612cd7565b612cbc565b90508060208402830185811115612d5b57612d5a612cfd565b5b835b81811015612d845780612d708882612d19565b845260208401935050602081019050612d5d565b5050509392505050565b600082601f830112612da357612da2612c46565b5b6002612db0848285612d2e565b91505092915050565b600067ffffffffffffffff821115612dd457612dd3612c5c565b5b602082029050919050565b6000612df2612ded84612db9565b612cbc565b90508060408402830185811115612e0c57612e0b612cfd565b5b835b81811015612e355780612e218882612d8e565b845260208401935050604081019050612e0e565b5050509392505050565b600082601f830112612e5457612e53612c46565b5b6002612e61848285612ddf565b91505092915050565b600067ffffffffffffffff821115612e8557612e84612c5c565b5b602082029050919050565b6000612ea3612e9e84612e6a565b612cbc565b90508060208402830185811115612ebd57612ebc612cfd565b5b835b81811015612ee65780612ed28882612d19565b845260208401935050602081019050612ebf565b5050509392505050565b600082601f830112612f0557612f04612c46565b5b6004612f12848285612e90565b91505092915050565b6000806000806101808587031215612f3657612f35612c41565b5b6000612f4487828801612d8e565b9450506040612f5587828801612e3f565b93505060c0612f6687828801612d8e565b925050610100612f7887828801612ef0565b91505092959194509250565b600060208284031215612f9a57612f99612c41565b5b6000612fa884828501612d19565b91505092915050565b600060ff82169050919050565b612fc781612fb1565b82525050565b6000602082019050612fe26000830184612fbe565b92915050565b6000612ff382612b69565b9050919050565b61300381612fe8565b811461300e57600080fd5b50565b60008135905061302081612ffa565b92915050565b600067ffffffffffffffff82111561304157613040612c5c565b5b602082029050919050565b600061305f61305a84613026565b612cbc565b9050806020840283018581111561307957613078612cfd565b5b835b818110156130a2578061308e8882612d19565b84526020840193505060208101905061307b565b5050509392505050565b600082601f8301126130c1576130c0612c46565b5b60016130ce84828561304c565b91505092915050565b60008060008060008061016087890312156130f5576130f4612c41565b5b600061310389828a01612d19565b965050602061311489828a01613011565b955050604061312589828a01612d8e565b945050608061313689828a01612e3f565b93505061010061314889828a01612d8e565b92505061014061315a89828a016130ac565b9150509295509295509295565b60008115159050919050565b61317c81613167565b82525050565b60006020820190506131976000830184613173565b92915050565b600063ffffffff82169050919050565b6131b68161319d565b82525050565b60006020820190506131d160008301846131ad565b92915050565b6131e081612fe8565b82525050565b60006020820190506131fb60008301846131d7565b92915050565b6000819050919050565b61321481613201565b811461321f57600080fd5b50565b6000813590506132318161320b565b92915050565b60006020828403121561324d5761324c612c41565b5b600061325b84828501613222565b91505092915050565b6000806000806080858703121561327e5761327d612c41565b5b600061328c87828801612d19565b945050602061329d87828801612d19565b93505060406132ae87828801612d19565b92505060606132bf87828801612d19565b91505092959194509250565b60008060008061012085870312156132e6576132e5612c41565b5b60006132f487828801612d8e565b945050604061330587828801612e3f565b93505060c061331687828801612d8e565b925050610100613328878288016130ac565b91505092959194509250565b6000806040838503121561334b5761334a612c41565b5b600061335985828601612d19565b925050602061336a85828601612d19565b9150509250929050565b600061337f82612fe8565b9050919050565b61338f81613374565b811461339a57600080fd5b50565b6000813590506133ac81613386565b92915050565b6000806000606084860312156133cb576133ca612c41565b5b60006133d98682870161339d565b93505060206133ea86828701613222565b92505060406133fb86828701613222565b9150509250925092565b61340e81613201565b82525050565b60006020820190506134296000830184613405565b92915050565b60006020828403121561344557613444612c41565b5b600061345384828501613011565b91505092915050565b600067ffffffffffffffff82111561347757613476612c5c565b5b602082029050919050565b60006134956134908461345c565b612cbc565b905080602084028301858111156134af576134ae612cfd565b5b835b818110156134d857806134c48882612d19565b8452602084019350506020810190506134b1565b5050509392505050565b600082601f8301126134f7576134f6612c46565b5b6003613504848285613482565b91505092915050565b600080600080610160858703121561352857613527612c41565b5b600061353687828801612d8e565b945050604061354787828801612e3f565b93505060c061355887828801612d8e565b92505061010061356a878288016134e2565b91505092959194509250565b600080600080610140858703121561359157613590612c41565b5b600061359f87828801612d8e565b94505060406135b087828801612e3f565b93505060c06135c187828801612d8e565b9250506101006135d387828801612d8e565b91505092959194509250565b600067ffffffffffffffff8211156135fa576135f9612c5c565b5b602082029050919050565b6000613618613613846135df565b612cbc565b9050806020840283018581111561363257613631612cfd565b5b835b8181101561365b57806136478882612d19565b845260208401935050602081019050613634565b5050509392505050565b600082601f83011261367a57613679612c46565b5b6008613687848285613605565b91505092915050565b60008060008061020085870312156136ab576136aa612c41565b5b60006136b987828801612d8e565b94505060406136ca87828801612e3f565b93505060c06136db87828801612d8e565b9250506101006136ed87828801613665565b91505092959194509250565b600061370482612bb5565b9050919050565b613714816136f9565b82525050565b600060208201905061372f600083018461370b565b92915050565b7f4e487b7100000000000000000000000000000000000000000000000000000000600052603260045260246000fd5b600082825260208201905092915050565b7f4e756c6c69666965722077617320616c72656164792075736564000000000000600082015250565b60006137ab601a83613764565b91506137b682613775565b602082019050919050565b600060208201905081810360008301526137da8161379e565b9050919050565b7f43616e6e6f742066696e6420796f7572206d65726b6c6520726f6f7400000000600082015250565b6000613817601c83613764565b9150613822826137e1565b602082019050919050565b600060208201905081810360008301526138468161380a565b9050919050565b600060029050919050565b600081905092915050565b6000819050919050565b61387681612c03565b82525050565b6000613888838361386d565b60208301905092915050565b6000602082019050919050565b6138aa8161384d565b6138b48184613858565b92506138bf82613863565b8060005b838110156138f05781516138d7878261387c565b96506138e283613894565b9250506001810190506138c3565b505050505050565b600060029050919050565b600081905092915050565b6000819050919050565b600081905092915050565b61392c8161384d565b6139368184613918565b925061394182613863565b8060005b83811015613972578151613959878261387c565b965061396483613894565b925050600181019050613945565b505050505050565b60006139868383613923565b60408301905092915050565b6000602082019050919050565b6139a8816138f8565b6139b28184613903565b92506139bd8261390e565b8060005b838110156139ee5781516139d5878261397a565b96506139e083613992565b9250506001810190506139c1565b505050505050565b600060049050919050565b600081905092915050565b6000819050919050565b6000602082019050919050565b613a2c816139f6565b613a368184613a01565b9250613a4182613a0c565b8060005b83811015613a72578151613a59878261387c565b9650613a6483613a16565b925050600181019050613a45565b505050505050565b600061018082019050613a9060008301876138a1565b613a9d604083018661399f565b613aaa60c08301856138a1565b613ab8610100830184613a23565b95945050505050565b613aca81613167565b8114613ad557600080fd5b50565b600081519050613ae781613ac1565b92915050565b600060208284031215613b0357613b02612c41565b5b6000613b1184828501613ad8565b91505092915050565b7f496e76616c696420756e736869656c642070726f6f6600000000000000000000600082015250565b6000613b50601683613764565b9150613b5b82613b1a565b602082019050919050565b60006020820190508181036000830152613b7f81613b43565b9050919050565b7f4e487b7100000000000000000000000000000000000000000000000000000000600052601160045260246000fd5b6000613bc08261319d565b915060008203613bd357613bd2613b86565b5b600182039050919050565b7f47726561746572207468616e2031300000000000000000000000000000000000600082015250565b6000613c14600f83613764565b9150613c1f82613bde565b602082019050919050565b60006020820190508181036000830152613c4381613c07565b9050919050565b7f536d616c6c6572207468616e2030000000000000000000000000000000000000600082015250565b6000613c80600e83613764565b9150613c8b82613c4a565b602082019050919050565b60006020820190508181036000830152613caf81613c73565b9050919050565b6000613cc182612c03565b9150613ccc83612c03565b9250827fffffffffffffffffffffffffffffffffffffffffffffffffffffffffffffffff03821115613d0157613d00613b86565b5b828201905092915050565b7f53756d206f6620617474726962757465732063616e2774206265206c6172676560008201527f72207468616e2031300000000000000000000000000000000000000000000000602082015250565b6000613d68602983613764565b9150613d7382613d0c565b604082019050919050565b60006020820190508181036000830152613d9781613d5b565b9050919050565b6000613da982612c03565b9150613db483612c03565b9250817fffffffffffffffffffffffffffffffffffffffffffffffffffffffffffffffff0483118215151615613ded57613dec613b86565b5b828202905092915050565b7f42616c616e636520697320656d70747900000000000000000000000000000000600082015250565b6000613e2e601083613764565b9150613e3982613df8565b602082019050919050565b60006020820190508181036000830152613e5d81613e21565b9050919050565b7f5f6c6566742073686f756c6420626520696e7369646520746865206669656c64600082015250565b6000613e9a602083613764565b9150613ea582613e64565b602082019050919050565b60006020820190508181036000830152613ec981613e8d565b9050919050565b7f5f72696768742073686f756c6420626520696e7369646520746865206669656c60008201527f6400000000000000000000000000000000000000000000000000000000000000602082015250565b6000613f2c602183613764565b9150613f3782613ed0565b604082019050919050565b60006020820190508181036000830152613f5b81613f1f565b9050919050565b6000604082019050613f776000830185612c0d565b613f846020830184612c0d565b9392505050565b600081519050613f9a81612d02565b92915050565b60008060408385031215613fb757613fb6612c41565b5b6000613fc585828601613f8b565b9250506020613fd685828601613f8b565b9150509250929050565b7f4e487b7100000000000000000000000000000000000000000000000000000000600052601260045260246000fd5b600060039050919050565b600081905092915050565b6000819050919050565b6000602082019050919050565b6140458161400f565b61404f818461401a565b925061405a82614025565b8060005b8381101561408b578151614072878261387c565b965061407d8361402f565b92505060018101905061405e565b505050505050565b6000610160820190506140a960008301876138a1565b6140b6604083018661399f565b6140c360c08301856138a1565b6140d161010083018461403c565b95945050505050565b7f436f6d6d69746d656e7420616c72656164792065786973747300000000000000600082015250565b6000614110601983613764565b915061411b826140da565b602082019050919050565b6000602082019050818103600083015261413f81614103565b9050919050565b60006141518261319d565b915061415c8361319d565b92508282101561416f5761416e613b86565b5b828203905092915050565b600061419561419061418b8461319d565b612b89565b612c03565b9050919050565b6141a58161417a565b82525050565b60006040820190506141c06000830185613405565b6141cd602083018461419c565b9392505050565b7f4f6e6c79206d696e74656420616e6420756e736869656c64656420746f6b656e60008201527f732063616e20626520736869656c646564000000000000000000000000000000602082015250565b6000614230603183613764565b915061423b826141d4565b604082019050919050565b6000602082019050818103600083015261425f81614223565b9050919050565b7f4f6e6c79206f776e65722063616e20736869656c64206120746f6b656e000000600082015250565b600061429c601d83613764565b91506142a782614266565b602082019050919050565b600060208201905081810360008301526142cb8161428f565b9050919050565b6000610140820190506142e860008301876138a1565b6142f5604083018661399f565b61430260c08301856138a1565b6143106101008301846138a1565b95945050505050565b7f496e76616c696420736869656c642070726f6f66000000000000000000000000600082015250565b600061434f601483613764565b915061435a82614319565b602082019050919050565b6000602082019050818103600083015261437e81614342565b9050919050565b7f4e6f74206f776e65720000000000000000000000000000000000000000000000600082015250565b60006143bb600983613764565b91506143c682614385565b602082019050919050565b600060208201905081810360008301526143ea816143ae565b9050919050565b7f616d6f756e74206d757374206265206e6f6e207a65726f000000000000000000600082015250565b6000614427601783613764565b9150614432826143f1565b602082019050919050565b600060208201905081810360008301526144568161441a565b9050919050565b600060089050919050565b600081905092915050565b6000819050919050565b6000602082019050919050565b6144938161445d565b61449d8184614468565b92506144a882614473565b8060005b838110156144d95781516144c0878261387c565b96506144cb8361447d565b9250506001810190506144ac565b505050505050565b6000610200820190506144f760008301876138a1565b614504604083018661399f565b61451160c08301856138a1565b61451f61010083018461448a565b95945050505050565b600061453382612c03565b915061453e83612c03565b92508282101561455157614550613b86565b5b828203905092915050565b60006080820190506145716000830187612c0d565b61457e6020830186612c0d565b61458b6040830185612c0d565b6145986060830184612c0d565b95945050505050565b7f496e646578206f7574206f6620626f756e647300000000000000000000000000600082015250565b60006145d7601383613764565b91506145e2826145a1565b602082019050919050565b60006020820190508181036000830152614606816145ca565b9050919050565b7f546f6b656e20616c7265616479206d696e746564000000000000000000000000600082015250565b6000614643601483613764565b915061464e8261460d565b602082019050919050565b6000602082019050818103600083015261467281614636565b9050919050565b600060019050919050565b600081905092915050565b6000819050919050565b6000602082019050919050565b6146af81614679565b6146b98184614684565b92506146c48261468f565b8060005b838110156146f55781516146dc878261387c565b96506146e783614699565b9250506001810190506146c8565b505050505050565b60006101208201905061471360008301876138a1565b614720604083018661399f565b61472d60c08301856138a1565b61473b6101008301846146a6565b95945050505050565b7f4661696c757265206f662070726f6f66206f66206d696e74207665726966696360008201527f6174696f6e000000000000000000000000000000000000000000000000000000602082015250565b60006147a0602583613764565b91506147ab82614744565b604082019050919050565b600060208201905081810360008301526147cf81614793565b9050919050565b60008160011c9050919050565b6000808291508390505b600185111561482d5780860481111561480957614808613b86565b5b60018516156148185780820291505b8081029050614826856147d6565b94506147ed565b94509492505050565b6000826148465760019050614902565b816148545760009050614902565b816001811461486a5760028114614874576148a3565b6001915050614902565b60ff84111561488657614885613b86565b5b8360020a91508482111561489d5761489c613b86565b5b50614902565b5060208310610133831016604e8410600b84101617156148d85782820a9050838111156148d3576148d2613b86565b5b614902565b6148e584848460016147e3565b925090508184048111156148fc576148fb613b86565b5b81810290505b9392505050565b60006149148261319d565b915061491f8361319d565b925061493063ffffffff8484614836565b905092915050565b7f4d65726b6c6520747265652069732066756c6c2e204e6f206d6f7265206c656160008201527f7665732063616e20626520616464656400000000000000000000000000000000602082015250565b6000614994603083613764565b915061499f82614938565b604082019050919050565b600060208201905081810360008301526149c381614987565b9050919050565b60006149d58261319d565b91506149e08361319d565b9250826149f0576149ef613fe0565b5b828206905092915050565b6000614a068261319d565b9150614a118361319d565b925082614a2157614a20613fe0565b5b828204905092915050565b6000614a378261319d565b915063ffffffff8203614a4d57614a4c613b86565b5b600182019050919050565b6000614a638261319d565b9150614a6e8361319d565b92508263ffffffff03821115614a8757614a86613b86565b5b82820190509291505056fea2646970667358221220f0c6f360d629d3d709394599f2680f5773e83cf8e594ff4ef24823b8f6735c1f64736f6c634300080f0033",
  "linkReferences": {},
  "deployedLinkReferences": {}
}