{
  "_format": "hh-sol-artifact-1",
  "contractName": "ZkCards",
  "sourceName": "contracts/ZkCards.sol",
  "abi": [
    {
      "inputs": [
        {
          "internalType": "contract IVerifier",
          "name": "_verifier",
          "type": "address"
        },
        {
          "internalType": "uint32",
          "name": "levels",
          "type": "uint32"
        },
        {
          "internalType": "address",
          "name": "hasher",
          "type": "address"
        }
      ],
      "stateMutability": "nonpayable",
      "type": "constructor"
    },
    {
      "anonymous": false,
      "inputs": [
        {
          "indexed": false,
          "internalType": "uint256",
          "name": "id",
          "type": "uint256"
        }
      ],
      "name": "Statue",
      "type": "event"
    },
    {
      "inputs": [],
      "name": "FIELD_SIZE",
      "outputs": [
        {
          "internalType": "uint256",
          "name": "",
          "type": "uint256"
        }
      ],
      "stateMutability": "view",
      "type": "function"
    },
    {
      "inputs": [],
      "name": "ROOT_HISTORY_SIZE",
      "outputs": [
        {
          "internalType": "uint32",
          "name": "",
          "type": "uint32"
        }
      ],
      "stateMutability": "view",
      "type": "function"
    },
    {
      "inputs": [],
      "name": "ZERO_VALUE",
      "outputs": [
        {
          "internalType": "uint256",
          "name": "",
          "type": "uint256"
        }
      ],
      "stateMutability": "view",
      "type": "function"
    },
    {
      "inputs": [
        {
          "internalType": "uint256",
          "name": "",
          "type": "uint256"
        },
        {
          "internalType": "uint256",
          "name": "",
          "type": "uint256"
        }
      ],
      "name": "bids",
      "outputs": [
        {
          "internalType": "uint256",
          "name": "",
          "type": "uint256"
        }
      ],
      "stateMutability": "view",
      "type": "function"
    },
    {
      "inputs": [
        {
          "internalType": "uint256",
          "name": "",
          "type": "uint256"
        }
      ],
      "name": "commitments",
      "outputs": [
        {
          "internalType": "bool",
          "name": "",
          "type": "bool"
        }
      ],
      "stateMutability": "view",
      "type": "function"
    },
    {
      "inputs": [],
      "name": "currentRootIndex",
      "outputs": [
        {
          "internalType": "uint32",
          "name": "",
          "type": "uint32"
        }
      ],
      "stateMutability": "view",
      "type": "function"
    },
    {
      "inputs": [
        {
          "internalType": "uint256",
          "name": "",
          "type": "uint256"
        }
      ],
      "name": "filledSubtrees",
      "outputs": [
        {
          "internalType": "bytes32",
          "name": "",
          "type": "bytes32"
        }
      ],
      "stateMutability": "view",
      "type": "function"
    },
    {
      "inputs": [],
      "name": "getLastRoot",
      "outputs": [
        {
          "internalType": "bytes32",
          "name": "",
          "type": "bytes32"
        }
      ],
      "stateMutability": "view",
      "type": "function"
    },
    {
      "inputs": [
        {
          "internalType": "contract IHasher",
          "name": "_hasher",
          "type": "address"
        },
        {
          "internalType": "bytes32",
          "name": "_left",
          "type": "bytes32"
        },
        {
          "internalType": "bytes32",
          "name": "_right",
          "type": "bytes32"
        }
      ],
      "name": "hashLeftRight",
      "outputs": [
        {
          "internalType": "bytes32",
          "name": "",
          "type": "bytes32"
        }
      ],
      "stateMutability": "pure",
      "type": "function"
    },
    {
      "inputs": [],
      "name": "hasher",
      "outputs": [
        {
          "internalType": "contract IHasher",
          "name": "",
          "type": "address"
        }
      ],
      "stateMutability": "view",
      "type": "function"
    },
    {
      "inputs": [
        {
          "internalType": "bytes32",
          "name": "_root",
          "type": "bytes32"
        }
      ],
      "name": "isKnownRoot",
      "outputs": [
        {
          "internalType": "bool",
          "name": "",
          "type": "bool"
        }
      ],
      "stateMutability": "view",
      "type": "function"
    },
    {
      "inputs": [],
      "name": "levels",
      "outputs": [
        {
          "internalType": "uint32",
          "name": "",
          "type": "uint32"
        }
      ],
      "stateMutability": "view",
      "type": "function"
    },
    {
      "inputs": [
        {
          "internalType": "uint256",
          "name": "pubKey",
          "type": "uint256"
        },
        {
          "internalType": "uint256",
          "name": "attribute1",
          "type": "uint256"
        },
        {
          "internalType": "uint256",
          "name": "attribute2",
          "type": "uint256"
        },
        {
          "internalType": "uint256",
          "name": "attribute3",
          "type": "uint256"
        }
      ],
      "name": "makeBid",
      "outputs": [],
      "stateMutability": "payable",
      "type": "function"
    },
    {
      "inputs": [
        {
          "internalType": "uint256[2]",
          "name": "a",
          "type": "uint256[2]"
        },
        {
          "internalType": "uint256[2][2]",
          "name": "b",
          "type": "uint256[2][2]"
        },
        {
          "internalType": "uint256[2]",
          "name": "c",
          "type": "uint256[2]"
        },
        {
          "internalType": "uint256[1]",
          "name": "input",
          "type": "uint256[1]"
        }
      ],
      "name": "mint",
      "outputs": [],
      "stateMutability": "nonpayable",
      "type": "function"
    },
    {
      "inputs": [
        {
          "internalType": "uint256",
          "name": "id",
          "type": "uint256"
        },
        {
          "internalType": "address",
          "name": "recipient",
          "type": "address"
        },
        {
          "internalType": "uint256[2]",
          "name": "a",
          "type": "uint256[2]"
        },
        {
          "internalType": "uint256[2][2]",
          "name": "b",
          "type": "uint256[2][2]"
        },
        {
          "internalType": "uint256[2]",
          "name": "c",
          "type": "uint256[2]"
        },
        {
          "internalType": "uint256[1]",
          "name": "input",
          "type": "uint256[1]"
        }
      ],
      "name": "mintTo",
      "outputs": [],
      "stateMutability": "nonpayable",
      "type": "function"
    },
    {
      "inputs": [],
      "name": "nextIndex",
      "outputs": [
        {
          "internalType": "uint32",
          "name": "",
          "type": "uint32"
        }
      ],
      "stateMutability": "view",
      "type": "function"
    },
    {
      "inputs": [
        {
          "internalType": "uint256",
          "name": "",
          "type": "uint256"
        }
      ],
      "name": "nullifiers",
      "outputs": [
        {
          "internalType": "bool",
          "name": "",
          "type": "bool"
        }
      ],
      "stateMutability": "view",
      "type": "function"
    },
    {
      "inputs": [
        {
          "internalType": "uint256",
          "name": "",
          "type": "uint256"
        }
      ],
      "name": "ownerOf",
      "outputs": [
        {
          "internalType": "address",
          "name": "",
          "type": "address"
        }
      ],
      "stateMutability": "view",
      "type": "function"
    },
    {
      "inputs": [
        {
          "internalType": "uint256",
          "name": "",
          "type": "uint256"
        }
      ],
      "name": "roots",
      "outputs": [
        {
          "internalType": "bytes32",
          "name": "",
          "type": "bytes32"
        }
      ],
      "stateMutability": "view",
      "type": "function"
    },
    {
      "inputs": [
        {
          "internalType": "uint256[2]",
          "name": "a",
          "type": "uint256[2]"
        },
        {
          "internalType": "uint256[2][2]",
          "name": "b",
          "type": "uint256[2][2]"
        },
        {
          "internalType": "uint256[2]",
          "name": "c",
          "type": "uint256[2]"
        },
        {
          "internalType": "uint256[7]",
          "name": "input",
          "type": "uint256[7]"
        }
      ],
      "name": "sell",
      "outputs": [],
      "stateMutability": "nonpayable",
      "type": "function"
    },
    {
      "inputs": [
        {
          "internalType": "uint256[2]",
          "name": "a",
          "type": "uint256[2]"
        },
        {
          "internalType": "uint256[2][2]",
          "name": "b",
          "type": "uint256[2][2]"
        },
        {
          "internalType": "uint256[2]",
          "name": "c",
          "type": "uint256[2]"
        },
        {
          "internalType": "uint256[2]",
          "name": "input",
          "type": "uint256[2]"
        }
      ],
      "name": "shield",
      "outputs": [],
      "stateMutability": "nonpayable",
      "type": "function"
    },
    {
      "inputs": [
        {
          "internalType": "uint256",
          "name": "",
          "type": "uint256"
        }
      ],
      "name": "status",
      "outputs": [
        {
          "internalType": "uint8",
          "name": "",
          "type": "uint8"
        }
      ],
      "stateMutability": "view",
      "type": "function"
    },
    {
      "inputs": [
        {
          "internalType": "uint256[2]",
          "name": "a",
          "type": "uint256[2]"
        },
        {
          "internalType": "uint256[2][2]",
          "name": "b",
          "type": "uint256[2][2]"
        },
        {
          "internalType": "uint256[2]",
          "name": "c",
          "type": "uint256[2]"
        },
        {
          "internalType": "uint256[3]",
          "name": "input",
          "type": "uint256[3]"
        }
      ],
      "name": "transfer",
      "outputs": [],
      "stateMutability": "nonpayable",
      "type": "function"
    },
    {
      "inputs": [
        {
          "internalType": "uint256[2]",
          "name": "a",
          "type": "uint256[2]"
        },
        {
          "internalType": "uint256[2][2]",
          "name": "b",
          "type": "uint256[2][2]"
        },
        {
          "internalType": "uint256[2]",
          "name": "c",
          "type": "uint256[2]"
        },
        {
          "internalType": "uint256[4]",
          "name": "input",
          "type": "uint256[4]"
        }
      ],
      "name": "unshield",
      "outputs": [],
      "stateMutability": "nonpayable",
      "type": "function"
    },
    {
      "inputs": [],
      "name": "verifier",
      "outputs": [
        {
          "internalType": "contract IVerifier",
          "name": "",
          "type": "address"
        }
      ],
      "stateMutability": "view",
      "type": "function"
    },
    {
      "inputs": [
        {
          "internalType": "uint256",
          "name": "i",
          "type": "uint256"
        }
      ],
      "name": "zeros",
      "outputs": [
        {
          "internalType": "bytes32",
          "name": "",
          "type": "bytes32"
        }
      ],
      "stateMutability": "pure",
      "type": "function"
    }
  ],
  "bytecode": "0x60a06040526000600360006101000a81548163ffffffff021916908363ffffffff1602179055506000600360046101000a81548163ffffffff021916908363ffffffff1602179055503480156200005557600080fd5b5060405162004de138038062004de183398181016040528101906200007b919062000a25565b818160008263ffffffff1611620000c9576040517f08c379a0000000000000000000000000000000000000000000000000000000008152600401620000c09062000b08565b60405180910390fd5b60208263ffffffff161062000115576040517f08c379a00000000000000000000000000000000000000000000000000000000081526004016200010c9062000b7a565b60405180910390fd5b816000806101000a81548163ffffffff021916908363ffffffff1602179055508073ffffffffffffffffffffffffffffffffffffffff1660808173ffffffffffffffffffffffffffffffffffffffff168152505060005b8263ffffffff168163ffffffff161015620001cb57620001988163ffffffff166200025460201b60201c565b600160008363ffffffff168152602001908152602001600020819055508080620001c29062000bcb565b9150506200016c565b50620001f1600183620001df919062000bfc565b63ffffffff166200025460201b60201c565b6002600080815260200190815260200160002081905550505082600360086101000a81548173ffffffffffffffffffffffffffffffffffffffff021916908373ffffffffffffffffffffffffffffffffffffffff16021790555050505062000ca9565b60008082036200028a577f2fe54c60d3acabf3343a35b6eba15db4821b340f76e741e2249685ed4899af6c60001b905062000930565b60018203620002bf577f256a6135777eee2fd26f54b8b7037a25439d5235caee224154186d2b8a52e31d60001b905062000930565b60028203620002f4577f1151949895e82ab19924de92c40a3d6f7bcb60d92b00504b8199613683f0c20060001b905062000930565b6003820362000329577f20121ee811489ff8d61f09fb89e313f14959a0f28bb428a20dba6b0b068b3bdb60001b905062000930565b600482036200035e577f0a89ca6ffa14cc462cfedb842c30ed221a50a3d6bf022a6a57dc82ab24c157c960001b905062000930565b6005820362000393577f24ca05c2b5cd42e890d6be94c68d0689f4f21c9cec9c0f13fe41d566dfb5495960001b905062000930565b60068203620003c8577f1ccb97c932565a92c60156bdba2d08f3bf1377464e025cee765679e604a7315c60001b905062000930565b60078203620003fd577f19156fbd7d1a8bf5cba8909367de1b624534ebab4f0f79e003bccdd1b182bdb460001b905062000930565b6008820362000432577f261af8c1f0912e465744641409f622d466c3920ac6e5ff37e36604cb11dfff8060001b905062000930565b6009820362000466577e58459724ff6ca5a1652fcbc3e82b93895cf08e975b19beab3f54c217d1c00760001b905062000930565b600a82036200049b577f1f04ef20dee48d39984d8eabe768a70eafa6310ad20849d4573c3c40c2ad1e3060001b905062000930565b600b8203620004d0577f1bea3dec5dab51567ce7e200a30f7ba6d4276aeaa53e2686f962a46c66d511e560001b905062000930565b600c820362000505577f0ee0f941e2da4b9e31c3ca97a40d8fa9ce68d97c084177071b3cb46cd3372f0f60001b905062000930565b600d82036200053a577f1ca9503e8935884501bbaf20be14eb4c46b89772c97b96e3b2ebf3a36a948bbd60001b905062000930565b600e82036200056f577f133a80e30697cd55d8f7d4b0965b7be24057ba5dc3da898ee2187232446cb10860001b905062000930565b600f8203620005a4577f13e6d8fc88839ed76e182c2a779af5b2c0da9dd18c90427a644f7e148a6253b660001b905062000930565b60108203620005d9577f1eb16b057a477f4bc8f572ea6bee39561098f78f15bfb3699dcbb7bd8db6185460001b905062000930565b601182036200060e577f0da2cb16a1ceaabf1c16b838f7a9e3f2a3a3088d9e0a6debaa748114620696ea60001b905062000930565b6012820362000643577f24a3b3d822420b14b5d8cb6c28a574f01e98ea9e940551d2ebd75cee12649f9d60001b905062000930565b6013820362000678577f198622acbd783d1b0d9064105b1fc8e4d8889de95c4c519b3f635809fe6afc0560001b905062000930565b60148203620006ad577f29d7ed391256ccc3ea596c86e933b89ff339d25ea8ddced975ae2fe30b5296d460001b905062000930565b60158203620006e2577f19be59f2f0413ce78c0c3703a3a5451b1d7f39629fa33abd11548a76065b296760001b905062000930565b6016820362000717577f1ff3f61797e538b70e619310d33f2a063e7eb59104e112e95738da1254dc345360001b905062000930565b601782036200074c577f10c16ae9959cf8358980d9dd9616e48228737310a10e2b6b731c1a548f036c4860001b905062000930565b6018820362000781577f0ba433a63174a90ac20992e75e3095496812b652685b5e1a2eae0b1bf4e8fcd160001b905062000930565b60198203620007b6577f019ddb9df2bc98d987d0dfeca9d2b643deafab8f7036562e627c3667266a044c60001b905062000930565b601a8203620007eb577f2d3c88b23175c5a5565db928414c66d1912b11acf974b2e644caaac04739ce9960001b905062000930565b601b820362000820577f2eab55f6ae4e66e32c5189eed5c470840863445760f5ed7e7b69b2a62600f35460001b905062000930565b601c820362000854577e2df37a2642621802383cf952bf4dd1f32e05433beeb1fd41031fb7eace979d60001b905062000930565b601d820362000889577f104aeb41435db66c3e62feccc1d6f5d98d0a0ed75d1374db457cf462e3a1f42760001b905062000930565b601e8203620008be577f1f3c6fd858e9a7d4b0d1f38e256a09d81d5a5e3c963987e2d4b814cfab7c6ebb60001b905062000930565b601f8203620008f3577f2c7a07d20dff79d01fecedc1134284a8d08436606c93693b67e333f671bf69cc60001b905062000930565b6040517f08c379a0000000000000000000000000000000000000000000000000000000008152600401620009279062000c87565b60405180910390fd5b919050565b600080fd5b600073ffffffffffffffffffffffffffffffffffffffff82169050919050565b600062000967826200093a565b9050919050565b60006200097b826200095a565b9050919050565b6200098d816200096e565b81146200099957600080fd5b50565b600081519050620009ad8162000982565b92915050565b600063ffffffff82169050919050565b620009ce81620009b3565b8114620009da57600080fd5b50565b600081519050620009ee81620009c3565b92915050565b620009ff816200095a565b811462000a0b57600080fd5b50565b60008151905062000a1f81620009f4565b92915050565b60008060006060848603121562000a415762000a4062000935565b5b600062000a51868287016200099c565b935050602062000a6486828701620009dd565b925050604062000a778682870162000a0e565b9150509250925092565b600082825260208201905092915050565b7f5f6c6576656c732073686f756c642062652067726561746572207468616e207a60008201527f65726f0000000000000000000000000000000000000000000000000000000000602082015250565b600062000af060238362000a81565b915062000afd8262000a92565b604082019050919050565b6000602082019050818103600083015262000b238162000ae1565b9050919050565b7f5f6c6576656c732073686f756c64206265206c657373207468616e2033320000600082015250565b600062000b62601e8362000a81565b915062000b6f8262000b2a565b602082019050919050565b6000602082019050818103600083015262000b958162000b53565b9050919050565b7f4e487b7100000000000000000000000000000000000000000000000000000000600052601160045260246000fd5b600062000bd882620009b3565b915063ffffffff820362000bf15762000bf062000b9c565b5b600182019050919050565b600062000c0982620009b3565b915062000c1683620009b3565b92508282101562000c2c5762000c2b62000b9c565b5b828203905092915050565b7f496e646578206f7574206f6620626f756e647300000000000000000000000000600082015250565b600062000c6f60138362000a81565b915062000c7c8262000c37565b602082019050919050565b6000602082019050818103600083015262000ca28162000c60565b9050919050565b60805161411562000ccc6000396000818161204c015261239801526141156000f3fe6080604052600436106101815760003560e01c8063ba70f757116100d1578063e3b01c071161008a578063ecf4a08611610064578063ecf4a086146105ce578063ed33639f146105ea578063f178e47c14610615578063fc7e9c6f1461065257610181565b8063e3b01c071461053d578063e829558814610566578063ec732959146105a357610181565b8063ba70f7571461041b578063c2b40ae414610446578063c7f45f5e14610483578063cd87a3b4146104ac578063d21e82ab146104d7578063db4a76f31461051457610181565b80634ecf518b1161013e5780637997bd1c116101185780637997bd1c1461034d5780637b3c4baa146103765780638ea3099e146103b357806390eeb02b146103f057610181565b80634ecf518b146102a85780636352211e146102d35780636d9833e31461031057610181565b80632b7ac3f314610186578063414a37ba146101b157806341a45e07146101dc57806342d21ef714610205578063495aa4ac1461024257806349ce89971461026b575b600080fd5b34801561019257600080fd5b5061019b61067d565b6040516101a8919061250b565b60405180910390f35b3480156101bd57600080fd5b506101c66106a3565b6040516101d3919061253f565b60405180910390f35b3480156101e857600080fd5b5061020360048036038101906101fe919061283e565b6106c7565b005b34801561021157600080fd5b5061022c600480360381019061022791906128a7565b610985565b60405161023991906128f0565b60405180910390f35b34801561024e57600080fd5b50610269600480360381019061026491906129fa565b6109a5565b005b34801561027757600080fd5b50610292600480360381019061028d91906128a7565b6109bb565b60405161029f9190612aa5565b60405180910390f35b3480156102b457600080fd5b506102bd6109db565b6040516102ca9190612adf565b60405180910390f35b3480156102df57600080fd5b506102fa60048036038101906102f591906128a7565b6109ef565b6040516103079190612b09565b60405180910390f35b34801561031c57600080fd5b5061033760048036038101906103329190612b5a565b610a22565b6040516103449190612aa5565b60405180910390f35b34801561035957600080fd5b50610374600480360381019061036f9190612b87565b610abf565b005b34801561038257600080fd5b5061039d60048036038101906103989190612bf0565b610aeb565b6040516103aa919061253f565b60405180910390f35b3480156103bf57600080fd5b506103da60048036038101906103d59190612c6e565b610b10565b6040516103e79190612cd0565b60405180910390f35b3480156103fc57600080fd5b50610405610d32565b6040516104129190612adf565b60405180910390f35b34801561042757600080fd5b50610430610d48565b60405161043d9190612cd0565b60405180910390f35b34801561045257600080fd5b5061046d600480360381019061046891906128a7565b610d7b565b60405161047a9190612cd0565b60405180910390f35b34801561048f57600080fd5b506104aa60048036038101906104a59190612d9c565b610d93565b005b3480156104b857600080fd5b506104c1611048565b6040516104ce9190612adf565b60405180910390f35b3480156104e357600080fd5b506104fe60048036038101906104f991906128a7565b61104d565b60405161050b9190612aa5565b60405180910390f35b34801561052057600080fd5b5061053b60048036038101906105369190612eb6565b61106d565b005b34801561054957600080fd5b50610564600480360381019061055f9190612f1f565b61147a565b005b34801561057257600080fd5b5061058d600480360381019061058891906128a7565b611792565b60405161059a9190612cd0565b60405180910390f35b3480156105af57600080fd5b506105b8611e31565b6040516105c5919061253f565b60405180910390f35b6105e860048036038101906105e39190612f88565b611e55565b005b3480156105f657600080fd5b506105ff61204a565b60405161060c9190613010565b60405180910390f35b34801561062157600080fd5b5061063c600480360381019061063791906128a7565b61206e565b6040516106499190612cd0565b60405180910390f35b34801561065e57600080fd5b50610667612086565b6040516106749190612adf565b60405180910390f35b600360089054906101000a900473ffffffffffffffffffffffffffffffffffffffff1681565b7f30644e72e131a029b85045b68181585d2833e84879b9709143e1f593f000000181565b6000816000600481106106dd576106dc61302b565b5b602002015190506000826001600481106106fa576106f961302b565b5b602002015190506000836002600481106107175761071661302b565b5b602002015190506000846003600481106107345761073361302b565b5b6020020151905060008290506007600086815260200190815260200160002060009054906101000a900460ff16156107a1576040517f08c379a0000000000000000000000000000000000000000000000000000000008152600401610798906130b7565b60405180910390fd5b60016007600087815260200190815260200160002060006101000a81548160ff0219169083151502179055506107d98260001b610a22565b610818576040517f08c379a000000000000000000000000000000000000000000000000000000000815260040161080f90613123565b60405180910390fd5b600360089054906101000a900473ffffffffffffffffffffffffffffffffffffffff1673ffffffffffffffffffffffffffffffffffffffff1663557a2f5f8a8a8a8a6040518563ffffffff1660e01b81526004016108799493929190613370565b6020604051808303816000875af1158015610898573d6000803e3d6000fd5b505050506040513d601f19601f820116820180604052508101906108bc91906133e3565b6108fb576040517f08c379a00000000000000000000000000000000000000000000000000000000081526004016108f29061345c565b60405180910390fd5b806004600086815260200190815260200160002060006101000a81548173ffffffffffffffffffffffffffffffffffffffff021916908373ffffffffffffffffffffffffffffffffffffffff16021790555060016005600086815260200190815260200160002060006101000a81548160ff021916908360ff160217905550505050505050505050565b60056020528060005260406000206000915054906101000a900460ff1681565b6109b386868686868661209c565b505050505050565b60066020528060005260406000206000915054906101000a900460ff1681565b60008054906101000a900463ffffffff1681565b60046020528060005260406000206000915054906101000a900473ffffffffffffffffffffffffffffffffffffffff1681565b60008060001b8203610a375760009050610aba565b6000600360009054906101000a900463ffffffff16905060008190505b600260008263ffffffff168152602001908152602001600020548403610a7f57600192505050610aba565b60008163ffffffff1603610a9257601e90505b8080610a9d906134ab565b9150508163ffffffff168163ffffffff1603610a54576000925050505b919050565b610ae581600060018110610ad657610ad561302b565b5b6020020151338686868661209c565b50505050565b6008602052816000526040600020602052806000526040600020600091509150505481565b60007f30644e72e131a029b85045b68181585d2833e84879b9709143e1f593f00000018360001c10610b77576040517f08c379a0000000000000000000000000000000000000000000000000000000008152600401610b6e90613520565b60405180910390fd5b7f30644e72e131a029b85045b68181585d2833e84879b9709143e1f593f00000018260001c10610bdc576040517f08c379a0000000000000000000000000000000000000000000000000000000008152600401610bd3906135b2565b60405180910390fd5b60008360001c905060008573ffffffffffffffffffffffffffffffffffffffff1663f47d33b583836040518363ffffffff1660e01b8152600401610c219291906135d2565b6040805180830381865afa158015610c3d573d6000803e3d6000fd5b505050506040513d601f19601f82011682018060405250810190610c619190613610565b80925081935050507f30644e72e131a029b85045b68181585d2833e84879b9709143e1f593f000000180610c9857610c97613650565b5b8460001c830891508573ffffffffffffffffffffffffffffffffffffffff1663f47d33b583836040518363ffffffff1660e01b8152600401610cdb9291906135d2565b6040805180830381865afa158015610cf7573d6000803e3d6000fd5b505050506040513d601f19601f82011682018060405250810190610d1b9190613610565b80925081935050508160001b925050509392505050565b600360009054906101000a900463ffffffff1681565b600060026000600360009054906101000a900463ffffffff1663ffffffff16815260200190815260200160002054905090565b60026020528060005260406000206000915090505481565b600081600060038110610da957610da861302b565b5b60200201519050600082600160038110610dc657610dc561302b565b5b60200201519050600083600260038110610de357610de261302b565b5b602002015190506007600084815260200190815260200160002060009054906101000a900460ff1615610e4b576040517f08c379a0000000000000000000000000000000000000000000000000000000008152600401610e42906130b7565b60405180910390fd5b610e578160001b610a22565b610e96576040517f08c379a0000000000000000000000000000000000000000000000000000000008152600401610e8d90613123565b60405180910390fd5b600360089054906101000a900473ffffffffffffffffffffffffffffffffffffffff1673ffffffffffffffffffffffffffffffffffffffff16637d176458888888886040518563ffffffff1660e01b8152600401610ef79493929190613703565b6020604051808303816000875af1158015610f16573d6000803e3d6000fd5b505050506040513d601f19601f82011682018060405250810190610f3a91906133e3565b610f79576040517f08c379a0000000000000000000000000000000000000000000000000000000008152600401610f709061345c565b60405180910390fd5b60016007600085815260200190815260200160002060006101000a81548160ff0219169083151502179055506006600083815260200190815260200160002060009054906101000a900460ff1615611006576040517f08c379a0000000000000000000000000000000000000000000000000000000008152600401610ffd90613796565b60405180910390fd5b6110128260001b61226c565b5060016006600084815260200190815260200160002060006101000a81548160ff02191690831515021790555050505050505050565b601e81565b60076020528060005260406000206000915054906101000a900460ff1681565b6000816000600781106110835761108261302b565b5b602002015190506000826001600781106110a05761109f61302b565b5b602002015190506000836002600781106110bd576110bc61302b565b5b602002015190506000846003600781106110da576110d961302b565b5b602002015190506000856004600781106110f7576110f661302b565b5b602002015190506000866005600781106111145761111361302b565b5b602002015190506000876006600781106111315761113061302b565b5b60200201519050600081600a8461114891906137b6565b60648661115591906137b6565b61115f9190613810565b6111699190613810565b90506000600860008781526020019081526020016000206000838152602001908152602001600020549050600760008a815260200190815260200160002060009054906101000a900460ff16156111f5576040517f08c379a00000000000000000000000000000000000000000000000000000000081526004016111ec906130b7565b60405180910390fd5b6112018760001b610a22565b611240576040517f08c379a000000000000000000000000000000000000000000000000000000000815260040161123790613123565b60405180910390fd5b600360089054906101000a900473ffffffffffffffffffffffffffffffffffffffff1673ffffffffffffffffffffffffffffffffffffffff166335f722f28e8e8e8e6040518563ffffffff1660e01b81526004016112a194939291906138ea565b6020604051808303816000875af11580156112c0573d6000803e3d6000fd5b505050506040513d601f19601f820116820180604052508101906112e491906133e3565b611323576040517f08c379a000000000000000000000000000000000000000000000000000000000815260040161131a9061345c565b60405180910390fd5b6001600760008b815260200190815260200160002060006101000a81548160ff0219169083151502179055506006600089815260200190815260200160002060009054906101000a900460ff16156113b0576040517f08c379a00000000000000000000000000000000000000000000000000000000081526004016113a790613796565b60405180910390fd5b6113bc8860001b61226c565b506001600660008a815260200190815260200160002060006101000a81548160ff02191690831515021790555080600860008881526020019081526020016000206000848152602001908152602001600020600082825461141d9190613931565b925050819055503373ffffffffffffffffffffffffffffffffffffffff166108fc829081150290604051600060405180830381858888f1935050505015801561146a573d6000803e3d6000fd5b5050505050505050505050505050565b6000816000600281106114905761148f61302b565b5b602002015190506000826001600281106114ad576114ac61302b565b5b6020020151905060016005600083815260200190815260200160002060009054906101000a900460ff1660ff161461151a576040517f08c379a0000000000000000000000000000000000000000000000000000000008152600401611511906139d7565b60405180910390fd5b3373ffffffffffffffffffffffffffffffffffffffff166004600083815260200190815260200160002060009054906101000a900473ffffffffffffffffffffffffffffffffffffffff1673ffffffffffffffffffffffffffffffffffffffff16146115bb576040517f08c379a00000000000000000000000000000000000000000000000000000000081526004016115b290613a43565b60405180910390fd5b6006600083815260200190815260200160002060009054906101000a900460ff161561161c576040517f08c379a000000000000000000000000000000000000000000000000000000000815260040161161390613796565b60405180910390fd5b600360089054906101000a900473ffffffffffffffffffffffffffffffffffffffff1673ffffffffffffffffffffffffffffffffffffffff16638ff2bf9e878787876040518563ffffffff1660e01b815260040161167d9493929190613a63565b6020604051808303816000875af115801561169c573d6000803e3d6000fd5b505050506040513d601f19601f820116820180604052508101906116c091906133e3565b6116ff576040517f08c379a00000000000000000000000000000000000000000000000000000000081526004016116f690613af6565b60405180910390fd5b61170b8260001b61226c565b5060016006600084815260200190815260200160002060006101000a81548160ff021916908315150217905550306004600083815260200190815260200160002060006101000a81548173ffffffffffffffffffffffffffffffffffffffff021916908373ffffffffffffffffffffffffffffffffffffffff160217905550505050505050565b60008082036117c6577f2fe54c60d3acabf3343a35b6eba15db4821b340f76e741e2249685ed4899af6c60001b9050611e2c565b600182036117f9577f256a6135777eee2fd26f54b8b7037a25439d5235caee224154186d2b8a52e31d60001b9050611e2c565b6002820361182c577f1151949895e82ab19924de92c40a3d6f7bcb60d92b00504b8199613683f0c20060001b9050611e2c565b6003820361185f577f20121ee811489ff8d61f09fb89e313f14959a0f28bb428a20dba6b0b068b3bdb60001b9050611e2c565b60048203611892577f0a89ca6ffa14cc462cfedb842c30ed221a50a3d6bf022a6a57dc82ab24c157c960001b9050611e2c565b600582036118c5577f24ca05c2b5cd42e890d6be94c68d0689f4f21c9cec9c0f13fe41d566dfb5495960001b9050611e2c565b600682036118f8577f1ccb97c932565a92c60156bdba2d08f3bf1377464e025cee765679e604a7315c60001b9050611e2c565b6007820361192b577f19156fbd7d1a8bf5cba8909367de1b624534ebab4f0f79e003bccdd1b182bdb460001b9050611e2c565b6008820361195e577f261af8c1f0912e465744641409f622d466c3920ac6e5ff37e36604cb11dfff8060001b9050611e2c565b60098203611990577e58459724ff6ca5a1652fcbc3e82b93895cf08e975b19beab3f54c217d1c00760001b9050611e2c565b600a82036119c3577f1f04ef20dee48d39984d8eabe768a70eafa6310ad20849d4573c3c40c2ad1e3060001b9050611e2c565b600b82036119f6577f1bea3dec5dab51567ce7e200a30f7ba6d4276aeaa53e2686f962a46c66d511e560001b9050611e2c565b600c8203611a29577f0ee0f941e2da4b9e31c3ca97a40d8fa9ce68d97c084177071b3cb46cd3372f0f60001b9050611e2c565b600d8203611a5c577f1ca9503e8935884501bbaf20be14eb4c46b89772c97b96e3b2ebf3a36a948bbd60001b9050611e2c565b600e8203611a8f577f133a80e30697cd55d8f7d4b0965b7be24057ba5dc3da898ee2187232446cb10860001b9050611e2c565b600f8203611ac2577f13e6d8fc88839ed76e182c2a779af5b2c0da9dd18c90427a644f7e148a6253b660001b9050611e2c565b60108203611af5577f1eb16b057a477f4bc8f572ea6bee39561098f78f15bfb3699dcbb7bd8db6185460001b9050611e2c565b60118203611b28577f0da2cb16a1ceaabf1c16b838f7a9e3f2a3a3088d9e0a6debaa748114620696ea60001b9050611e2c565b60128203611b5b577f24a3b3d822420b14b5d8cb6c28a574f01e98ea9e940551d2ebd75cee12649f9d60001b9050611e2c565b60138203611b8e577f198622acbd783d1b0d9064105b1fc8e4d8889de95c4c519b3f635809fe6afc0560001b9050611e2c565b60148203611bc1577f29d7ed391256ccc3ea596c86e933b89ff339d25ea8ddced975ae2fe30b5296d460001b9050611e2c565b60158203611bf4577f19be59f2f0413ce78c0c3703a3a5451b1d7f39629fa33abd11548a76065b296760001b9050611e2c565b60168203611c27577f1ff3f61797e538b70e619310d33f2a063e7eb59104e112e95738da1254dc345360001b9050611e2c565b60178203611c5a577f10c16ae9959cf8358980d9dd9616e48228737310a10e2b6b731c1a548f036c4860001b9050611e2c565b60188203611c8d577f0ba433a63174a90ac20992e75e3095496812b652685b5e1a2eae0b1bf4e8fcd160001b9050611e2c565b60198203611cc0577f019ddb9df2bc98d987d0dfeca9d2b643deafab8f7036562e627c3667266a044c60001b9050611e2c565b601a8203611cf3577f2d3c88b23175c5a5565db928414c66d1912b11acf974b2e644caaac04739ce9960001b9050611e2c565b601b8203611d26577f2eab55f6ae4e66e32c5189eed5c470840863445760f5ed7e7b69b2a62600f35460001b9050611e2c565b601c8203611d58577e2df37a2642621802383cf952bf4dd1f32e05433beeb1fd41031fb7eace979d60001b9050611e2c565b601d8203611d8b577f104aeb41435db66c3e62feccc1d6f5d98d0a0ed75d1374db457cf462e3a1f42760001b9050611e2c565b601e8203611dbe577f1f3c6fd858e9a7d4b0d1f38e256a09d81d5a5e3c963987e2d4b814cfab7c6ebb60001b9050611e2c565b601f8203611df1577f2c7a07d20dff79d01fecedc1134284a8d08436606c93693b67e333f671bf69cc60001b9050611e2c565b6040517f08c379a0000000000000000000000000000000000000000000000000000000008152600401611e2390613b62565b60405180910390fd5b919050565b7f2fe54c60d3acabf3343a35b6eba15db4821b340f76e741e2249685ed4899af6c81565b600a831315611e99576040517f08c379a0000000000000000000000000000000000000000000000000000000008152600401611e9090613bce565b60405180910390fd5b6000831015611edd576040517f08c379a0000000000000000000000000000000000000000000000000000000008152600401611ed490613c3a565b60405180910390fd5b600a821115611f21576040517f08c379a0000000000000000000000000000000000000000000000000000000008152600401611f1890613bce565b60405180910390fd5b6000821015611f65576040517f08c379a0000000000000000000000000000000000000000000000000000000008152600401611f5c90613c3a565b60405180910390fd5b600a811115611fa9576040517f08c379a0000000000000000000000000000000000000000000000000000000008152600401611fa090613bce565b60405180910390fd5b6000811015611fed576040517f08c379a0000000000000000000000000000000000000000000000000000000008152600401611fe490613c3a565b60405180910390fd5b3460086000868152602001908152602001600020600083600a8661201191906137b6565b60648861201e91906137b6565b6120289190613810565b6120329190613810565b81526020019081526020016000208190555050505050565b7f000000000000000000000000000000000000000000000000000000000000000081565b60016020528060005260406000206000915090505481565b600360049054906101000a900463ffffffff1681565b60006005600088815260200190815260200160002060009054906101000a900460ff1660ff1614612102576040517f08c379a00000000000000000000000000000000000000000000000000000000081526004016120f990613ca6565b60405180910390fd5b600360089054906101000a900473ffffffffffffffffffffffffffffffffffffffff1673ffffffffffffffffffffffffffffffffffffffff1663db5f5af4858585856040518563ffffffff1660e01b81526004016121639493929190613d4a565b6020604051808303816000875af1158015612182573d6000803e3d6000fd5b505050506040513d601f19601f820116820180604052508101906121a691906133e3565b6121e5576040517f08c379a00000000000000000000000000000000000000000000000000000000081526004016121dc90613e03565b60405180910390fd5b60016005600088815260200190815260200160002060006101000a81548160ff021916908360ff160217905550846004600088815260200190815260200160002060006101000a81548173ffffffffffffffffffffffffffffffffffffffff021916908373ffffffffffffffffffffffffffffffffffffffff160217905550505050505050565b600080600360049054906101000a900463ffffffff16905060008054906101000a900463ffffffff1660026122a19190613f56565b63ffffffff168163ffffffff16036122ee576040517f08c379a00000000000000000000000000000000000000000000000000000000081526004016122e590613ff7565b60405180910390fd5b6000819050600084905060008060005b60008054906101000a900463ffffffff1663ffffffff168163ffffffff1610156123e25760006002866123319190614017565b63ffffffff16036123735783925061234e8163ffffffff16611792565b915083600160008363ffffffff16815260200190815260200160002081905550612393565b600160008263ffffffff1681526020019081526020016000205492508391505b6123be7f00000000000000000000000000000000000000000000000000000000000000008484610b10565b93506002856123cd9190614048565b945080806123da90614079565b9150506122fe565b506000601e6001600360009054906101000a900463ffffffff1661240691906140a5565b6124109190614017565b905080600360006101000a81548163ffffffff021916908363ffffffff16021790555083600260008363ffffffff1681526020019081526020016000208190555060018661245e91906140a5565b600360046101000a81548163ffffffff021916908363ffffffff160217905550859650505050505050919050565b600073ffffffffffffffffffffffffffffffffffffffff82169050919050565b6000819050919050565b60006124d16124cc6124c78461248c565b6124ac565b61248c565b9050919050565b60006124e3826124b6565b9050919050565b60006124f5826124d8565b9050919050565b612505816124ea565b82525050565b600060208201905061252060008301846124fc565b92915050565b6000819050919050565b61253981612526565b82525050565b60006020820190506125546000830184612530565b92915050565b6000604051905090565b600080fd5b600080fd5b6000601f19601f8301169050919050565b7f4e487b7100000000000000000000000000000000000000000000000000000000600052604160045260246000fd5b6125b78261256e565b810181811067ffffffffffffffff821117156125d6576125d561257f565b5b80604052505050565b60006125e961255a565b90506125f582826125ae565b919050565b600067ffffffffffffffff8211156126155761261461257f565b5b602082029050919050565b600080fd5b61262e81612526565b811461263957600080fd5b50565b60008135905061264b81612625565b92915050565b600061266461265f846125fa565b6125df565b9050806020840283018581111561267e5761267d612620565b5b835b818110156126a75780612693888261263c565b845260208401935050602081019050612680565b5050509392505050565b600082601f8301126126c6576126c5612569565b5b60026126d3848285612651565b91505092915050565b600067ffffffffffffffff8211156126f7576126f661257f565b5b602082029050919050565b6000612715612710846126dc565b6125df565b9050806040840283018581111561272f5761272e612620565b5b835b81811015612758578061274488826126b1565b845260208401935050604081019050612731565b5050509392505050565b600082601f83011261277757612776612569565b5b6002612784848285612702565b91505092915050565b600067ffffffffffffffff8211156127a8576127a761257f565b5b602082029050919050565b60006127c66127c18461278d565b6125df565b905080602084028301858111156127e0576127df612620565b5b835b8181101561280957806127f5888261263c565b8452602084019350506020810190506127e2565b5050509392505050565b600082601f83011261282857612827612569565b5b60046128358482856127b3565b91505092915050565b600080600080610180858703121561285957612858612564565b5b6000612867878288016126b1565b945050604061287887828801612762565b93505060c0612889878288016126b1565b92505061010061289b87828801612813565b91505092959194509250565b6000602082840312156128bd576128bc612564565b5b60006128cb8482850161263c565b91505092915050565b600060ff82169050919050565b6128ea816128d4565b82525050565b600060208201905061290560008301846128e1565b92915050565b60006129168261248c565b9050919050565b6129268161290b565b811461293157600080fd5b50565b6000813590506129438161291d565b92915050565b600067ffffffffffffffff8211156129645761296361257f565b5b602082029050919050565b600061298261297d84612949565b6125df565b9050806020840283018581111561299c5761299b612620565b5b835b818110156129c557806129b1888261263c565b84526020840193505060208101905061299e565b5050509392505050565b600082601f8301126129e4576129e3612569565b5b60016129f184828561296f565b91505092915050565b6000806000806000806101608789031215612a1857612a17612564565b5b6000612a2689828a0161263c565b9650506020612a3789828a01612934565b9550506040612a4889828a016126b1565b9450506080612a5989828a01612762565b935050610100612a6b89828a016126b1565b925050610140612a7d89828a016129cf565b9150509295509295509295565b60008115159050919050565b612a9f81612a8a565b82525050565b6000602082019050612aba6000830184612a96565b92915050565b600063ffffffff82169050919050565b612ad981612ac0565b82525050565b6000602082019050612af46000830184612ad0565b92915050565b612b038161290b565b82525050565b6000602082019050612b1e6000830184612afa565b92915050565b6000819050919050565b612b3781612b24565b8114612b4257600080fd5b50565b600081359050612b5481612b2e565b92915050565b600060208284031215612b7057612b6f612564565b5b6000612b7e84828501612b45565b91505092915050565b6000806000806101208587031215612ba257612ba1612564565b5b6000612bb0878288016126b1565b9450506040612bc187828801612762565b93505060c0612bd2878288016126b1565b925050610100612be4878288016129cf565b91505092959194509250565b60008060408385031215612c0757612c06612564565b5b6000612c158582860161263c565b9250506020612c268582860161263c565b9150509250929050565b6000612c3b8261290b565b9050919050565b612c4b81612c30565b8114612c5657600080fd5b50565b600081359050612c6881612c42565b92915050565b600080600060608486031215612c8757612c86612564565b5b6000612c9586828701612c59565b9350506020612ca686828701612b45565b9250506040612cb786828701612b45565b9150509250925092565b612cca81612b24565b82525050565b6000602082019050612ce56000830184612cc1565b92915050565b600067ffffffffffffffff821115612d0657612d0561257f565b5b602082029050919050565b6000612d24612d1f84612ceb565b6125df565b90508060208402830185811115612d3e57612d3d612620565b5b835b81811015612d675780612d53888261263c565b845260208401935050602081019050612d40565b5050509392505050565b600082601f830112612d8657612d85612569565b5b6003612d93848285612d11565b91505092915050565b6000806000806101608587031215612db757612db6612564565b5b6000612dc5878288016126b1565b9450506040612dd687828801612762565b93505060c0612de7878288016126b1565b925050610100612df987828801612d71565b91505092959194509250565b600067ffffffffffffffff821115612e2057612e1f61257f565b5b602082029050919050565b6000612e3e612e3984612e05565b6125df565b90508060208402830185811115612e5857612e57612620565b5b835b81811015612e815780612e6d888261263c565b845260208401935050602081019050612e5a565b5050509392505050565b600082601f830112612ea057612e9f612569565b5b6007612ead848285612e2b565b91505092915050565b6000806000806101e08587031215612ed157612ed0612564565b5b6000612edf878288016126b1565b9450506040612ef087828801612762565b93505060c0612f01878288016126b1565b925050610100612f1387828801612e8b565b91505092959194509250565b6000806000806101408587031215612f3a57612f39612564565b5b6000612f48878288016126b1565b9450506040612f5987828801612762565b93505060c0612f6a878288016126b1565b925050610100612f7c878288016126b1565b91505092959194509250565b60008060008060808587031215612fa257612fa1612564565b5b6000612fb08782880161263c565b9450506020612fc18782880161263c565b9350506040612fd28782880161263c565b9250506060612fe38782880161263c565b91505092959194509250565b6000612ffa826124d8565b9050919050565b61300a81612fef565b82525050565b60006020820190506130256000830184613001565b92915050565b7f4e487b7100000000000000000000000000000000000000000000000000000000600052603260045260246000fd5b600082825260208201905092915050565b7f4e756c6c69666965722077617320616c72656164792075736564000000000000600082015250565b60006130a1601a8361305a565b91506130ac8261306b565b602082019050919050565b600060208201905081810360008301526130d081613094565b9050919050565b7f43616e6e6f742066696e6420796f7572206d65726b6c6520726f6f7400000000600082015250565b600061310d601c8361305a565b9150613118826130d7565b602082019050919050565b6000602082019050818103600083015261313c81613100565b9050919050565b600060029050919050565b600081905092915050565b6000819050919050565b61316c81612526565b82525050565b600061317e8383613163565b60208301905092915050565b6000602082019050919050565b6131a081613143565b6131aa818461314e565b92506131b582613159565b8060005b838110156131e65781516131cd8782613172565b96506131d88361318a565b9250506001810190506131b9565b505050505050565b600060029050919050565b600081905092915050565b6000819050919050565b600081905092915050565b61322281613143565b61322c818461320e565b925061323782613159565b8060005b8381101561326857815161324f8782613172565b965061325a8361318a565b92505060018101905061323b565b505050505050565b600061327c8383613219565b60408301905092915050565b6000602082019050919050565b61329e816131ee565b6132a881846131f9565b92506132b382613204565b8060005b838110156132e45781516132cb8782613270565b96506132d683613288565b9250506001810190506132b7565b505050505050565b600060049050919050565b600081905092915050565b6000819050919050565b6000602082019050919050565b613322816132ec565b61332c81846132f7565b925061333782613302565b8060005b8381101561336857815161334f8782613172565b965061335a8361330c565b92505060018101905061333b565b505050505050565b6000610180820190506133866000830187613197565b6133936040830186613295565b6133a060c0830185613197565b6133ae610100830184613319565b95945050505050565b6133c081612a8a565b81146133cb57600080fd5b50565b6000815190506133dd816133b7565b92915050565b6000602082840312156133f9576133f8612564565b5b6000613407848285016133ce565b91505092915050565b7f496e76616c696420756e736869656c642070726f6f6600000000000000000000600082015250565b600061344660168361305a565b915061345182613410565b602082019050919050565b6000602082019050818103600083015261347581613439565b9050919050565b7f4e487b7100000000000000000000000000000000000000000000000000000000600052601160045260246000fd5b60006134b682612ac0565b9150600082036134c9576134c861347c565b5b600182039050919050565b7f5f6c6566742073686f756c6420626520696e7369646520746865206669656c64600082015250565b600061350a60208361305a565b9150613515826134d4565b602082019050919050565b60006020820190508181036000830152613539816134fd565b9050919050565b7f5f72696768742073686f756c6420626520696e7369646520746865206669656c60008201527f6400000000000000000000000000000000000000000000000000000000000000602082015250565b600061359c60218361305a565b91506135a782613540565b604082019050919050565b600060208201905081810360008301526135cb8161358f565b9050919050565b60006040820190506135e76000830185612530565b6135f46020830184612530565b9392505050565b60008151905061360a81612625565b92915050565b6000806040838503121561362757613626612564565b5b6000613635858286016135fb565b9250506020613646858286016135fb565b9150509250929050565b7f4e487b7100000000000000000000000000000000000000000000000000000000600052601260045260246000fd5b600060039050919050565b600081905092915050565b6000819050919050565b6000602082019050919050565b6136b58161367f565b6136bf818461368a565b92506136ca82613695565b8060005b838110156136fb5781516136e28782613172565b96506136ed8361369f565b9250506001810190506136ce565b505050505050565b6000610160820190506137196000830187613197565b6137266040830186613295565b61373360c0830185613197565b6137416101008301846136ac565b95945050505050565b7f436f6d6d69746d656e7420616c72656164792065786973747300000000000000600082015250565b600061378060198361305a565b915061378b8261374a565b602082019050919050565b600060208201905081810360008301526137af81613773565b9050919050565b60006137c182612526565b91506137cc83612526565b9250817fffffffffffffffffffffffffffffffffffffffffffffffffffffffffffffffff04831182151516156138055761380461347c565b5b828202905092915050565b600061381b82612526565b915061382683612526565b9250827fffffffffffffffffffffffffffffffffffffffffffffffffffffffffffffffff0382111561385b5761385a61347c565b5b828201905092915050565b600060079050919050565b600081905092915050565b6000819050919050565b6000602082019050919050565b61389c81613866565b6138a68184613871565b92506138b18261387c565b8060005b838110156138e25781516138c98782613172565b96506138d483613886565b9250506001810190506138b5565b505050505050565b60006101e0820190506139006000830187613197565b61390d6040830186613295565b61391a60c0830185613197565b613928610100830184613893565b95945050505050565b600061393c82612526565b915061394783612526565b92508282101561395a5761395961347c565b5b828203905092915050565b7f4f6e6c79206d696e74656420616e6420756e736869656c64656420746f6b656e60008201527f732063616e20626520736869656c646564000000000000000000000000000000602082015250565b60006139c160318361305a565b91506139cc82613965565b604082019050919050565b600060208201905081810360008301526139f0816139b4565b9050919050565b7f4f6e6c79206f776e65722063616e20736869656c64206120746f6b656e000000600082015250565b6000613a2d601d8361305a565b9150613a38826139f7565b602082019050919050565b60006020820190508181036000830152613a5c81613a20565b9050919050565b600061014082019050613a796000830187613197565b613a866040830186613295565b613a9360c0830185613197565b613aa1610100830184613197565b95945050505050565b7f496e76616c696420736869656c642070726f6f66000000000000000000000000600082015250565b6000613ae060148361305a565b9150613aeb82613aaa565b602082019050919050565b60006020820190508181036000830152613b0f81613ad3565b9050919050565b7f496e646578206f7574206f6620626f756e647300000000000000000000000000600082015250565b6000613b4c60138361305a565b9150613b5782613b16565b602082019050919050565b60006020820190508181036000830152613b7b81613b3f565b9050919050565b7f47726561746572207468616e2031300000000000000000000000000000000000600082015250565b6000613bb8600f8361305a565b9150613bc382613b82565b602082019050919050565b60006020820190508181036000830152613be781613bab565b9050919050565b7f536d616c6c6572207468616e2030000000000000000000000000000000000000600082015250565b6000613c24600e8361305a565b9150613c2f82613bee565b602082019050919050565b60006020820190508181036000830152613c5381613c17565b9050919050565b7f546f6b656e20616c7265616479206d696e746564000000000000000000000000600082015250565b6000613c9060148361305a565b9150613c9b82613c5a565b602082019050919050565b60006020820190508181036000830152613cbf81613c83565b9050919050565b600060019050919050565b600081905092915050565b6000819050919050565b6000602082019050919050565b613cfc81613cc6565b613d068184613cd1565b9250613d1182613cdc565b8060005b83811015613d42578151613d298782613172565b9650613d3483613ce6565b925050600181019050613d15565b505050505050565b600061012082019050613d606000830187613197565b613d6d6040830186613295565b613d7a60c0830185613197565b613d88610100830184613cf3565b95945050505050565b7f4661696c757265206f662070726f6f66206f66206d696e74207665726966696360008201527f6174696f6e000000000000000000000000000000000000000000000000000000602082015250565b6000613ded60258361305a565b9150613df882613d91565b604082019050919050565b60006020820190508181036000830152613e1c81613de0565b9050919050565b60008160011c9050919050565b6000808291508390505b6001851115613e7a57808604811115613e5657613e5561347c565b5b6001851615613e655780820291505b8081029050613e7385613e23565b9450613e3a565b94509492505050565b600082613e935760019050613f4f565b81613ea15760009050613f4f565b8160018114613eb75760028114613ec157613ef0565b6001915050613f4f565b60ff841115613ed357613ed261347c565b5b8360020a915084821115613eea57613ee961347c565b5b50613f4f565b5060208310610133831016604e8410600b8410161715613f255782820a905083811115613f2057613f1f61347c565b5b613f4f565b613f328484846001613e30565b92509050818404811115613f4957613f4861347c565b5b81810290505b9392505050565b6000613f6182612ac0565b9150613f6c83612ac0565b9250613f7d63ffffffff8484613e83565b905092915050565b7f4d65726b6c6520747265652069732066756c6c2e204e6f206d6f7265206c656160008201527f7665732063616e20626520616464656400000000000000000000000000000000602082015250565b6000613fe160308361305a565b9150613fec82613f85565b604082019050919050565b6000602082019050818103600083015261401081613fd4565b9050919050565b600061402282612ac0565b915061402d83612ac0565b92508261403d5761403c613650565b5b828206905092915050565b600061405382612ac0565b915061405e83612ac0565b92508261406e5761406d613650565b5b828204905092915050565b600061408482612ac0565b915063ffffffff820361409a5761409961347c565b5b600182019050919050565b60006140b082612ac0565b91506140bb83612ac0565b92508263ffffffff038211156140d4576140d361347c565b5b82820190509291505056fea26469706673582212206be5cd16685e7fc8c21101b25a4a51b153c31772036453826cb68818ac4d341d64736f6c634300080f0033",
  "linkReferences": {},
  "deployedLinkReferences": {}
}