{
  "_format": "hh-sol-artifact-1",
  "contractName": "ZkCards",
  "sourceName": "contracts/ZkCards.sol",
  "abi": [
    {
      "inputs": [
        {
          "internalType": "contract IVerifier",
          "name": "_verifier",
          "type": "address"
        },
        {
          "internalType": "uint32",
          "name": "levels",
          "type": "uint32"
        },
        {
          "internalType": "address",
          "name": "hasher",
          "type": "address"
        }
      ],
      "stateMutability": "nonpayable",
      "type": "constructor"
    },
    {
      "anonymous": false,
      "inputs": [
        {
          "indexed": false,
          "internalType": "uint256",
          "name": "pubKey",
          "type": "uint256"
        },
        {
          "indexed": false,
          "internalType": "uint256",
          "name": "attribute1",
          "type": "uint256"
        },
        {
          "indexed": false,
          "internalType": "uint256",
          "name": "attribute2",
          "type": "uint256"
        },
        {
          "indexed": false,
          "internalType": "uint256",
          "name": "attribute3",
          "type": "uint256"
        }
      ],
      "name": "BidAccepted",
      "type": "event"
    },
    {
      "anonymous": false,
      "inputs": [
        {
          "indexed": false,
          "internalType": "uint256",
          "name": "pubKey",
          "type": "uint256"
        },
        {
          "indexed": false,
          "internalType": "uint256",
          "name": "attribute1",
          "type": "uint256"
        },
        {
          "indexed": false,
          "internalType": "uint256",
          "name": "attribute2",
          "type": "uint256"
        },
        {
          "indexed": false,
          "internalType": "uint256",
          "name": "attribute3",
          "type": "uint256"
        }
      ],
      "name": "BidCancelled",
      "type": "event"
    },
    {
      "anonymous": false,
      "inputs": [
        {
          "indexed": false,
          "internalType": "uint256",
          "name": "pubKey",
          "type": "uint256"
        },
        {
          "indexed": false,
          "internalType": "uint256",
          "name": "attribute1",
          "type": "uint256"
        },
        {
          "indexed": false,
          "internalType": "uint256",
          "name": "attribute2",
          "type": "uint256"
        },
        {
          "indexed": false,
          "internalType": "uint256",
          "name": "attribute3",
          "type": "uint256"
        }
      ],
      "name": "NewBid",
      "type": "event"
    },
    {
      "anonymous": false,
      "inputs": [
        {
          "indexed": false,
          "internalType": "bytes32",
          "name": "commitment",
          "type": "bytes32"
        },
        {
          "indexed": false,
          "internalType": "uint256",
          "name": "index",
          "type": "uint256"
        }
      ],
      "name": "NewCommitment",
      "type": "event"
    },
    {
      "inputs": [],
      "name": "FIELD_SIZE",
      "outputs": [
        {
          "internalType": "uint256",
          "name": "",
          "type": "uint256"
        }
      ],
      "stateMutability": "view",
      "type": "function"
    },
    {
      "inputs": [],
      "name": "ROOT_HISTORY_SIZE",
      "outputs": [
        {
          "internalType": "uint32",
          "name": "",
          "type": "uint32"
        }
      ],
      "stateMutability": "view",
      "type": "function"
    },
    {
      "inputs": [],
      "name": "ZERO_VALUE",
      "outputs": [
        {
          "internalType": "uint256",
          "name": "",
          "type": "uint256"
        }
      ],
      "stateMutability": "view",
      "type": "function"
    },
    {
      "inputs": [
        {
          "internalType": "uint256",
          "name": "",
          "type": "uint256"
        },
        {
          "internalType": "uint256",
          "name": "",
          "type": "uint256"
        }
      ],
      "name": "bids",
      "outputs": [
        {
          "internalType": "uint256",
          "name": "",
          "type": "uint256"
        }
      ],
      "stateMutability": "view",
      "type": "function"
    },
    {
      "inputs": [
        {
          "internalType": "uint256",
          "name": "pubKey",
          "type": "uint256"
        },
        {
          "internalType": "uint256",
          "name": "attribute1",
          "type": "uint256"
        },
        {
          "internalType": "uint256",
          "name": "attribute2",
          "type": "uint256"
        },
        {
          "internalType": "uint256",
          "name": "attribute3",
          "type": "uint256"
        }
      ],
      "name": "cancel",
      "outputs": [],
      "stateMutability": "nonpayable",
      "type": "function"
    },
    {
      "inputs": [
        {
          "internalType": "uint256",
          "name": "",
          "type": "uint256"
        }
      ],
      "name": "commitments",
      "outputs": [
        {
          "internalType": "bool",
          "name": "",
          "type": "bool"
        }
      ],
      "stateMutability": "view",
      "type": "function"
    },
    {
      "inputs": [],
      "name": "currentRootIndex",
      "outputs": [
        {
          "internalType": "uint32",
          "name": "",
          "type": "uint32"
        }
      ],
      "stateMutability": "view",
      "type": "function"
    },
    {
      "inputs": [
        {
          "internalType": "uint256",
          "name": "",
          "type": "uint256"
        }
      ],
      "name": "filledSubtrees",
      "outputs": [
        {
          "internalType": "bytes32",
          "name": "",
          "type": "bytes32"
        }
      ],
      "stateMutability": "view",
      "type": "function"
    },
    {
      "inputs": [],
      "name": "getLastRoot",
      "outputs": [
        {
          "internalType": "bytes32",
          "name": "",
          "type": "bytes32"
        }
      ],
      "stateMutability": "view",
      "type": "function"
    },
    {
      "inputs": [
        {
          "internalType": "contract IHasher",
          "name": "_hasher",
          "type": "address"
        },
        {
          "internalType": "bytes32",
          "name": "_left",
          "type": "bytes32"
        },
        {
          "internalType": "bytes32",
          "name": "_right",
          "type": "bytes32"
        }
      ],
      "name": "hashLeftRight",
      "outputs": [
        {
          "internalType": "bytes32",
          "name": "",
          "type": "bytes32"
        }
      ],
      "stateMutability": "pure",
      "type": "function"
    },
    {
      "inputs": [],
      "name": "hasher",
      "outputs": [
        {
          "internalType": "contract IHasher",
          "name": "",
          "type": "address"
        }
      ],
      "stateMutability": "view",
      "type": "function"
    },
    {
      "inputs": [
        {
          "internalType": "bytes32",
          "name": "_root",
          "type": "bytes32"
        }
      ],
      "name": "isKnownRoot",
      "outputs": [
        {
          "internalType": "bool",
          "name": "",
          "type": "bool"
        }
      ],
      "stateMutability": "view",
      "type": "function"
    },
    {
      "inputs": [],
      "name": "levels",
      "outputs": [
        {
          "internalType": "uint32",
          "name": "",
          "type": "uint32"
        }
      ],
      "stateMutability": "view",
      "type": "function"
    },
    {
      "inputs": [
        {
          "internalType": "uint256",
          "name": "pubKey",
          "type": "uint256"
        },
        {
          "internalType": "uint256",
          "name": "attribute1",
          "type": "uint256"
        },
        {
          "internalType": "uint256",
          "name": "attribute2",
          "type": "uint256"
        },
        {
          "internalType": "uint256",
          "name": "attribute3",
          "type": "uint256"
        }
      ],
      "name": "makeBid",
      "outputs": [],
      "stateMutability": "payable",
      "type": "function"
    },
    {
      "inputs": [
        {
          "internalType": "uint256[2]",
          "name": "a",
          "type": "uint256[2]"
        },
        {
          "internalType": "uint256[2][2]",
          "name": "b",
          "type": "uint256[2][2]"
        },
        {
          "internalType": "uint256[2]",
          "name": "c",
          "type": "uint256[2]"
        },
        {
          "internalType": "uint256[1]",
          "name": "input",
          "type": "uint256[1]"
        }
      ],
      "name": "mint",
      "outputs": [],
      "stateMutability": "nonpayable",
      "type": "function"
    },
    {
      "inputs": [
        {
          "internalType": "uint256",
          "name": "id",
          "type": "uint256"
        },
        {
          "internalType": "address",
          "name": "recipient",
          "type": "address"
        },
        {
          "internalType": "uint256[2]",
          "name": "a",
          "type": "uint256[2]"
        },
        {
          "internalType": "uint256[2][2]",
          "name": "b",
          "type": "uint256[2][2]"
        },
        {
          "internalType": "uint256[2]",
          "name": "c",
          "type": "uint256[2]"
        },
        {
          "internalType": "uint256[1]",
          "name": "input",
          "type": "uint256[1]"
        }
      ],
      "name": "mintTo",
      "outputs": [],
      "stateMutability": "nonpayable",
      "type": "function"
    },
    {
      "inputs": [],
      "name": "nextIndex",
      "outputs": [
        {
          "internalType": "uint32",
          "name": "",
          "type": "uint32"
        }
      ],
      "stateMutability": "view",
      "type": "function"
    },
    {
      "inputs": [
        {
          "internalType": "uint256",
          "name": "",
          "type": "uint256"
        }
      ],
      "name": "nullifiers",
      "outputs": [
        {
          "internalType": "bool",
          "name": "",
          "type": "bool"
        }
      ],
      "stateMutability": "view",
      "type": "function"
    },
    {
      "inputs": [
        {
          "internalType": "uint256",
          "name": "",
          "type": "uint256"
        }
      ],
      "name": "ownerOf",
      "outputs": [
        {
          "internalType": "address",
          "name": "",
          "type": "address"
        }
      ],
      "stateMutability": "view",
      "type": "function"
    },
    {
      "inputs": [
        {
          "internalType": "address",
          "name": "",
          "type": "address"
        }
      ],
      "name": "publicKeys",
      "outputs": [
        {
          "internalType": "uint256",
          "name": "",
          "type": "uint256"
        }
      ],
      "stateMutability": "view",
      "type": "function"
    },
    {
      "inputs": [
        {
          "internalType": "uint256",
          "name": "",
          "type": "uint256"
        }
      ],
      "name": "roots",
      "outputs": [
        {
          "internalType": "bytes32",
          "name": "",
          "type": "bytes32"
        }
      ],
      "stateMutability": "view",
      "type": "function"
    },
    {
      "inputs": [
        {
          "internalType": "uint256[2]",
          "name": "a",
          "type": "uint256[2]"
        },
        {
          "internalType": "uint256[2][2]",
          "name": "b",
          "type": "uint256[2][2]"
        },
        {
          "internalType": "uint256[2]",
          "name": "c",
          "type": "uint256[2]"
        },
        {
          "internalType": "uint256[8]",
          "name": "input",
          "type": "uint256[8]"
        }
      ],
      "name": "sell",
      "outputs": [],
      "stateMutability": "nonpayable",
      "type": "function"
    },
    {
      "inputs": [
        {
          "internalType": "uint256[2]",
          "name": "a",
          "type": "uint256[2]"
        },
        {
          "internalType": "uint256[2][2]",
          "name": "b",
          "type": "uint256[2][2]"
        },
        {
          "internalType": "uint256[2]",
          "name": "c",
          "type": "uint256[2]"
        },
        {
          "internalType": "uint256[2]",
          "name": "input",
          "type": "uint256[2]"
        }
      ],
      "name": "shield",
      "outputs": [],
      "stateMutability": "nonpayable",
      "type": "function"
    },
    {
      "inputs": [
        {
          "internalType": "uint256",
          "name": "",
          "type": "uint256"
        }
      ],
      "name": "status",
      "outputs": [
        {
          "internalType": "uint8",
          "name": "",
          "type": "uint8"
        }
      ],
      "stateMutability": "view",
      "type": "function"
    },
    {
      "inputs": [
        {
          "internalType": "uint256[2]",
          "name": "a",
          "type": "uint256[2]"
        },
        {
          "internalType": "uint256[2][2]",
          "name": "b",
          "type": "uint256[2][2]"
        },
        {
          "internalType": "uint256[2]",
          "name": "c",
          "type": "uint256[2]"
        },
        {
          "internalType": "uint256[3]",
          "name": "input",
          "type": "uint256[3]"
        }
      ],
      "name": "transfer",
      "outputs": [],
      "stateMutability": "nonpayable",
      "type": "function"
    },
    {
      "inputs": [
        {
          "internalType": "uint256[2]",
          "name": "a",
          "type": "uint256[2]"
        },
        {
          "internalType": "uint256[2][2]",
          "name": "b",
          "type": "uint256[2][2]"
        },
        {
          "internalType": "uint256[2]",
          "name": "c",
          "type": "uint256[2]"
        },
        {
          "internalType": "uint256[4]",
          "name": "input",
          "type": "uint256[4]"
        }
      ],
      "name": "unshield",
      "outputs": [],
      "stateMutability": "nonpayable",
      "type": "function"
    },
    {
      "inputs": [],
      "name": "verifier",
      "outputs": [
        {
          "internalType": "contract IVerifier",
          "name": "",
          "type": "address"
        }
      ],
      "stateMutability": "view",
      "type": "function"
    },
    {
      "inputs": [
        {
          "internalType": "uint256",
          "name": "i",
          "type": "uint256"
        }
      ],
      "name": "zeros",
      "outputs": [
        {
          "internalType": "bytes32",
          "name": "",
          "type": "bytes32"
        }
      ],
      "stateMutability": "pure",
      "type": "function"
    }
  ],
  "bytecode": "0x60a06040526000600360006101000a81548163ffffffff021916908363ffffffff1602179055506000600360046101000a81548163ffffffff021916908363ffffffff1602179055503480156200005557600080fd5b506040516200580e3803806200580e83398181016040528101906200007b919062000a25565b818160008263ffffffff1611620000c9576040517f08c379a0000000000000000000000000000000000000000000000000000000008152600401620000c09062000b08565b60405180910390fd5b60208263ffffffff161062000115576040517f08c379a00000000000000000000000000000000000000000000000000000000081526004016200010c9062000b7a565b60405180910390fd5b816000806101000a81548163ffffffff021916908363ffffffff1602179055508073ffffffffffffffffffffffffffffffffffffffff1660808173ffffffffffffffffffffffffffffffffffffffff168152505060005b8263ffffffff168163ffffffff161015620001cb57620001988163ffffffff166200025460201b60201c565b600160008363ffffffff168152602001908152602001600020819055508080620001c29062000bcb565b9150506200016c565b50620001f1600183620001df919062000bfc565b63ffffffff166200025460201b60201c565b6002600080815260200190815260200160002081905550505082600360086101000a81548173ffffffffffffffffffffffffffffffffffffffff021916908373ffffffffffffffffffffffffffffffffffffffff16021790555050505062000ca9565b60008082036200028a577f2fe54c60d3acabf3343a35b6eba15db4821b340f76e741e2249685ed4899af6c60001b905062000930565b60018203620002bf577f256a6135777eee2fd26f54b8b7037a25439d5235caee224154186d2b8a52e31d60001b905062000930565b60028203620002f4577f1151949895e82ab19924de92c40a3d6f7bcb60d92b00504b8199613683f0c20060001b905062000930565b6003820362000329577f20121ee811489ff8d61f09fb89e313f14959a0f28bb428a20dba6b0b068b3bdb60001b905062000930565b600482036200035e577f0a89ca6ffa14cc462cfedb842c30ed221a50a3d6bf022a6a57dc82ab24c157c960001b905062000930565b6005820362000393577f24ca05c2b5cd42e890d6be94c68d0689f4f21c9cec9c0f13fe41d566dfb5495960001b905062000930565b60068203620003c8577f1ccb97c932565a92c60156bdba2d08f3bf1377464e025cee765679e604a7315c60001b905062000930565b60078203620003fd577f19156fbd7d1a8bf5cba8909367de1b624534ebab4f0f79e003bccdd1b182bdb460001b905062000930565b6008820362000432577f261af8c1f0912e465744641409f622d466c3920ac6e5ff37e36604cb11dfff8060001b905062000930565b6009820362000466577e58459724ff6ca5a1652fcbc3e82b93895cf08e975b19beab3f54c217d1c00760001b905062000930565b600a82036200049b577f1f04ef20dee48d39984d8eabe768a70eafa6310ad20849d4573c3c40c2ad1e3060001b905062000930565b600b8203620004d0577f1bea3dec5dab51567ce7e200a30f7ba6d4276aeaa53e2686f962a46c66d511e560001b905062000930565b600c820362000505577f0ee0f941e2da4b9e31c3ca97a40d8fa9ce68d97c084177071b3cb46cd3372f0f60001b905062000930565b600d82036200053a577f1ca9503e8935884501bbaf20be14eb4c46b89772c97b96e3b2ebf3a36a948bbd60001b905062000930565b600e82036200056f577f133a80e30697cd55d8f7d4b0965b7be24057ba5dc3da898ee2187232446cb10860001b905062000930565b600f8203620005a4577f13e6d8fc88839ed76e182c2a779af5b2c0da9dd18c90427a644f7e148a6253b660001b905062000930565b60108203620005d9577f1eb16b057a477f4bc8f572ea6bee39561098f78f15bfb3699dcbb7bd8db6185460001b905062000930565b601182036200060e577f0da2cb16a1ceaabf1c16b838f7a9e3f2a3a3088d9e0a6debaa748114620696ea60001b905062000930565b6012820362000643577f24a3b3d822420b14b5d8cb6c28a574f01e98ea9e940551d2ebd75cee12649f9d60001b905062000930565b6013820362000678577f198622acbd783d1b0d9064105b1fc8e4d8889de95c4c519b3f635809fe6afc0560001b905062000930565b60148203620006ad577f29d7ed391256ccc3ea596c86e933b89ff339d25ea8ddced975ae2fe30b5296d460001b905062000930565b60158203620006e2577f19be59f2f0413ce78c0c3703a3a5451b1d7f39629fa33abd11548a76065b296760001b905062000930565b6016820362000717577f1ff3f61797e538b70e619310d33f2a063e7eb59104e112e95738da1254dc345360001b905062000930565b601782036200074c577f10c16ae9959cf8358980d9dd9616e48228737310a10e2b6b731c1a548f036c4860001b905062000930565b6018820362000781577f0ba433a63174a90ac20992e75e3095496812b652685b5e1a2eae0b1bf4e8fcd160001b905062000930565b60198203620007b6577f019ddb9df2bc98d987d0dfeca9d2b643deafab8f7036562e627c3667266a044c60001b905062000930565b601a8203620007eb577f2d3c88b23175c5a5565db928414c66d1912b11acf974b2e644caaac04739ce9960001b905062000930565b601b820362000820577f2eab55f6ae4e66e32c5189eed5c470840863445760f5ed7e7b69b2a62600f35460001b905062000930565b601c820362000854577e2df37a2642621802383cf952bf4dd1f32e05433beeb1fd41031fb7eace979d60001b905062000930565b601d820362000889577f104aeb41435db66c3e62feccc1d6f5d98d0a0ed75d1374db457cf462e3a1f42760001b905062000930565b601e8203620008be577f1f3c6fd858e9a7d4b0d1f38e256a09d81d5a5e3c963987e2d4b814cfab7c6ebb60001b905062000930565b601f8203620008f3577f2c7a07d20dff79d01fecedc1134284a8d08436606c93693b67e333f671bf69cc60001b905062000930565b6040517f08c379a0000000000000000000000000000000000000000000000000000000008152600401620009279062000c87565b60405180910390fd5b919050565b600080fd5b600073ffffffffffffffffffffffffffffffffffffffff82169050919050565b600062000967826200093a565b9050919050565b60006200097b826200095a565b9050919050565b6200098d816200096e565b81146200099957600080fd5b50565b600081519050620009ad8162000982565b92915050565b600063ffffffff82169050919050565b620009ce81620009b3565b8114620009da57600080fd5b50565b600081519050620009ee81620009c3565b92915050565b620009ff816200095a565b811462000a0b57600080fd5b50565b60008151905062000a1f81620009f4565b92915050565b60008060006060848603121562000a415762000a4062000935565b5b600062000a51868287016200099c565b935050602062000a6486828701620009dd565b925050604062000a778682870162000a0e565b9150509250925092565b600082825260208201905092915050565b7f5f6c6576656c732073686f756c642062652067726561746572207468616e207a60008201527f65726f0000000000000000000000000000000000000000000000000000000000602082015250565b600062000af060238362000a81565b915062000afd8262000a92565b604082019050919050565b6000602082019050818103600083015262000b238162000ae1565b9050919050565b7f5f6c6576656c732073686f756c64206265206c657373207468616e2033320000600082015250565b600062000b62601e8362000a81565b915062000b6f8262000b2a565b602082019050919050565b6000602082019050818103600083015262000b958162000b53565b9050919050565b7f4e487b7100000000000000000000000000000000000000000000000000000000600052601160045260246000fd5b600062000bd882620009b3565b915063ffffffff820362000bf15762000bf062000b9c565b5b600182019050919050565b600062000c0982620009b3565b915062000c1683620009b3565b92508282101562000c2c5762000c2b62000b9c565b5b828203905092915050565b7f496e646578206f7574206f6620626f756e647300000000000000000000000000600082015250565b600062000c6f60138362000a81565b915062000c7c8262000c37565b602082019050919050565b6000602082019050818103600083015262000ca28162000c60565b9050919050565b608051614b4262000ccc600039600081816127a30152612aef0152614b426000f3fe6080604052600436106101b75760003560e01c8063a3d6f9a9116100ec578063e5110e5f1161008a578063ecf4a08611610064578063ecf4a0861461066a578063ed33639f14610686578063f178e47c146106b1578063fc7e9c6f146106ee576101b7565b8063e5110e5f146105d9578063e829558814610602578063ec7329591461063f576101b7565b8063c7f45f5e116100c6578063c7f45f5e1461051f578063cd87a3b414610548578063d21e82ab14610573578063e3b01c07146105b0576101b7565b8063a3d6f9a91461047a578063ba70f757146104b7578063c2b40ae4146104e2576101b7565b80636352211e116101595780637997bd1c116101335780637997bd1c146103ac5780637b3c4baa146103d55780638ea3099e1461041257806390eeb02b1461044f576101b7565b80636352211e146103095780636d9833e3146103465780637273981514610383576101b7565b806342d21ef71161019557806342d21ef71461023b578063495aa4ac1461027857806349ce8997146102a15780634ecf518b146102de576101b7565b80632b7ac3f3146101bc578063414a37ba146101e757806341a45e0714610212575b600080fd5b3480156101c857600080fd5b506101d1610719565b6040516101de9190612c62565b60405180910390f35b3480156101f357600080fd5b506101fc61073f565b6040516102099190612c96565b60405180910390f35b34801561021e57600080fd5b5061023960048036038101906102349190612f95565b610763565b005b34801561024757600080fd5b50610262600480360381019061025d9190612ffe565b610a21565b60405161026f9190613047565b60405180910390f35b34801561028457600080fd5b5061029f600480360381019061029a9190613151565b610a41565b005b3480156102ad57600080fd5b506102c860048036038101906102c39190612ffe565b610a57565b6040516102d591906131fc565b60405180910390f35b3480156102ea57600080fd5b506102f3610a77565b6040516103009190613236565b60405180910390f35b34801561031557600080fd5b50610330600480360381019061032b9190612ffe565b610a8b565b60405161033d9190613260565b60405180910390f35b34801561035257600080fd5b5061036d600480360381019061036891906132b1565b610abe565b60405161037a91906131fc565b60405180910390f35b34801561038f57600080fd5b506103aa60048036038101906103a591906132de565b610b5b565b005b3480156103b857600080fd5b506103d360048036038101906103ce9190613345565b610f0f565b005b3480156103e157600080fd5b506103fc60048036038101906103f791906133ae565b610f3b565b6040516104099190612c96565b60405180910390f35b34801561041e57600080fd5b506104396004803603810190610434919061342c565b610f60565b604051610446919061348e565b60405180910390f35b34801561045b57600080fd5b50610464611182565b6040516104719190613236565b60405180910390f35b34801561048657600080fd5b506104a1600480360381019061049c91906134a9565b611198565b6040516104ae9190612c96565b60405180910390f35b3480156104c357600080fd5b506104cc6111b0565b6040516104d9919061348e565b60405180910390f35b3480156104ee57600080fd5b5061050960048036038101906105049190612ffe565b6111e3565b604051610516919061348e565b60405180910390f35b34801561052b57600080fd5b5061054660048036038101906105419190613587565b6111fb565b005b34801561055457600080fd5b5061055d61150a565b60405161056a9190613236565b60405180910390f35b34801561057f57600080fd5b5061059a60048036038101906105959190612ffe565b61150f565b6040516105a791906131fc565b60405180910390f35b3480156105bc57600080fd5b506105d760048036038101906105d291906135f0565b61152f565b005b3480156105e557600080fd5b5061060060048036038101906105fb919061370a565b6118a1565b005b34801561060e57600080fd5b5061062960048036038101906106249190612ffe565b611e14565b604051610636919061348e565b60405180910390f35b34801561064b57600080fd5b506106546124b3565b6040516106619190612c96565b60405180910390f35b610684600480360381019061067f91906132de565b6124d7565b005b34801561069257600080fd5b5061069b6127a1565b6040516106a89190613794565b60405180910390f35b3480156106bd57600080fd5b506106d860048036038101906106d39190612ffe565b6127c5565b6040516106e5919061348e565b60405180910390f35b3480156106fa57600080fd5b506107036127dd565b6040516107109190613236565b60405180910390f35b600360089054906101000a900473ffffffffffffffffffffffffffffffffffffffff1681565b7f30644e72e131a029b85045b68181585d2833e84879b9709143e1f593f000000181565b600081600060048110610779576107786137af565b5b60200201519050600082600160048110610796576107956137af565b5b602002015190506000836002600481106107b3576107b26137af565b5b602002015190506000846003600481106107d0576107cf6137af565b5b6020020151905060008290506007600086815260200190815260200160002060009054906101000a900460ff161561083d576040517f08c379a00000000000000000000000000000000000000000000000000000000081526004016108349061383b565b60405180910390fd5b60016007600087815260200190815260200160002060006101000a81548160ff0219169083151502179055506108758260001b610abe565b6108b4576040517f08c379a00000000000000000000000000000000000000000000000000000000081526004016108ab906138a7565b60405180910390fd5b600360089054906101000a900473ffffffffffffffffffffffffffffffffffffffff1673ffffffffffffffffffffffffffffffffffffffff1663557a2f5f8a8a8a8a6040518563ffffffff1660e01b81526004016109159493929190613af4565b6020604051808303816000875af1158015610934573d6000803e3d6000fd5b505050506040513d601f19601f820116820180604052508101906109589190613b67565b610997576040517f08c379a000000000000000000000000000000000000000000000000000000000815260040161098e90613be0565b60405180910390fd5b806004600086815260200190815260200160002060006101000a81548173ffffffffffffffffffffffffffffffffffffffff021916908373ffffffffffffffffffffffffffffffffffffffff16021790555060016005600086815260200190815260200160002060006101000a81548160ff021916908360ff160217905550505050505050505050565b60056020528060005260406000206000915054906101000a900460ff1681565b610a4f8686868686866127f3565b505050505050565b60066020528060005260406000206000915054906101000a900460ff1681565b60008054906101000a900463ffffffff1681565b60046020528060005260406000206000915054906101000a900473ffffffffffffffffffffffffffffffffffffffff1681565b60008060001b8203610ad35760009050610b56565b6000600360009054906101000a900463ffffffff16905060008190505b600260008263ffffffff168152602001908152602001600020548403610b1b57600192505050610b56565b60008163ffffffff1603610b2e57601e90505b8080610b3990613c2f565b9150508163ffffffff168163ffffffff1603610af0576000925050505b919050565b600a8312610b9e576040517f08c379a0000000000000000000000000000000000000000000000000000000008152600401610b9590613ca4565b60405180910390fd5b60008311610be1576040517f08c379a0000000000000000000000000000000000000000000000000000000008152600401610bd890613d10565b60405180910390fd5b600a8210610c24576040517f08c379a0000000000000000000000000000000000000000000000000000000008152600401610c1b90613ca4565b60405180910390fd5b60008211610c67576040517f08c379a0000000000000000000000000000000000000000000000000000000008152600401610c5e90613d10565b60405180910390fd5b600a8110610caa576040517f08c379a0000000000000000000000000000000000000000000000000000000008152600401610ca190613ca4565b60405180910390fd5b60008111610ced576040517f08c379a0000000000000000000000000000000000000000000000000000000008152600401610ce490613d10565b60405180910390fd5b600a818385610cfc9190613d30565b610d069190613d30565b1115610d47576040517f08c379a0000000000000000000000000000000000000000000000000000000008152600401610d3e90613df8565b60405180910390fd5b83600960003373ffffffffffffffffffffffffffffffffffffffff1673ffffffffffffffffffffffffffffffffffffffff1681526020019081526020016000205414610d9257600080fd5b600060086000868152602001908152602001600020600083600a86610db79190613e18565b606488610dc49190613e18565b610dce9190613d30565b610dd89190613d30565b815260200190815260200160002054905060008103610e2c576040517f08c379a0000000000000000000000000000000000000000000000000000000008152600401610e2390613ebe565b60405180910390fd5b600060086000878152602001908152602001600020600084600a87610e519190613e18565b606489610e5e9190613e18565b610e689190613d30565b610e729190613d30565b8152602001908152602001600020819055503373ffffffffffffffffffffffffffffffffffffffff166108fc829081150290604051600060405180830381858888f19350505050158015610eca573d6000803e3d6000fd5b507f106d232e41d7e51c7022b8a413db661b40547f0bc2a27c9acab6fbd0052988e885858585604051610f009493929190613ede565b60405180910390a15050505050565b610f3581600060018110610f2657610f256137af565b5b602002015133868686866127f3565b50505050565b6008602052816000526040600020602052806000526040600020600091509150505481565b60007f30644e72e131a029b85045b68181585d2833e84879b9709143e1f593f00000018360001c10610fc7576040517f08c379a0000000000000000000000000000000000000000000000000000000008152600401610fbe90613f6f565b60405180910390fd5b7f30644e72e131a029b85045b68181585d2833e84879b9709143e1f593f00000018260001c1061102c576040517f08c379a000000000000000000000000000000000000000000000000000000000815260040161102390614001565b60405180910390fd5b60008360001c905060008573ffffffffffffffffffffffffffffffffffffffff1663f47d33b583836040518363ffffffff1660e01b8152600401611071929190614021565b6040805180830381865afa15801561108d573d6000803e3d6000fd5b505050506040513d601f19601f820116820180604052508101906110b1919061405f565b80925081935050507f30644e72e131a029b85045b68181585d2833e84879b9709143e1f593f0000001806110e8576110e761409f565b5b8460001c830891508573ffffffffffffffffffffffffffffffffffffffff1663f47d33b583836040518363ffffffff1660e01b815260040161112b929190614021565b6040805180830381865afa158015611147573d6000803e3d6000fd5b505050506040513d601f19601f8201168201806040525081019061116b919061405f565b80925081935050508160001b925050509392505050565b600360009054906101000a900463ffffffff1681565b60096020528060005260406000206000915090505481565b600060026000600360009054906101000a900463ffffffff1663ffffffff16815260200190815260200160002054905090565b60026020528060005260406000206000915090505481565b600081600060038110611211576112106137af565b5b6020020151905060008260016003811061122e5761122d6137af565b5b6020020151905060008360026003811061124b5761124a6137af565b5b602002015190506007600084815260200190815260200160002060009054906101000a900460ff16156112b3576040517f08c379a00000000000000000000000000000000000000000000000000000000081526004016112aa9061383b565b60405180910390fd5b6112bf8160001b610abe565b6112fe576040517f08c379a00000000000000000000000000000000000000000000000000000000081526004016112f5906138a7565b60405180910390fd5b600360089054906101000a900473ffffffffffffffffffffffffffffffffffffffff1673ffffffffffffffffffffffffffffffffffffffff16637d176458888888886040518563ffffffff1660e01b815260040161135f9493929190614152565b6020604051808303816000875af115801561137e573d6000803e3d6000fd5b505050506040513d601f19601f820116820180604052508101906113a29190613b67565b6113e1576040517f08c379a00000000000000000000000000000000000000000000000000000000081526004016113d890613be0565b60405180910390fd5b60016007600085815260200190815260200160002060006101000a81548160ff0219169083151502179055506006600083815260200190815260200160002060009054906101000a900460ff161561146e576040517f08c379a0000000000000000000000000000000000000000000000000000000008152600401611465906141e5565b60405180910390fd5b61147a8260001b6129c3565b5060016006600084815260200190815260200160002060006101000a81548160ff0219169083151502179055507f7820cafa2ee4e973e876df3308134064ca72c7d967b1a79ff83049404deb12278260001b6001600360049054906101000a900463ffffffff166114eb9190614205565b6040516114f992919061426a565b60405180910390a150505050505050565b601e81565b60076020528060005260406000206000915054906101000a900460ff1681565b600081600060028110611545576115446137af565b5b60200201519050600082600160028110611562576115616137af565b5b6020020151905060016005600083815260200190815260200160002060009054906101000a900460ff1660ff16146115cf576040517f08c379a00000000000000000000000000000000000000000000000000000000081526004016115c690614305565b60405180910390fd5b3373ffffffffffffffffffffffffffffffffffffffff166004600083815260200190815260200160002060009054906101000a900473ffffffffffffffffffffffffffffffffffffffff1673ffffffffffffffffffffffffffffffffffffffff1614611670576040517f08c379a000000000000000000000000000000000000000000000000000000000815260040161166790614371565b60405180910390fd5b6006600083815260200190815260200160002060009054906101000a900460ff16156116d1576040517f08c379a00000000000000000000000000000000000000000000000000000000081526004016116c8906141e5565b60405180910390fd5b600360089054906101000a900473ffffffffffffffffffffffffffffffffffffffff1673ffffffffffffffffffffffffffffffffffffffff16638ff2bf9e878787876040518563ffffffff1660e01b81526004016117329493929190614391565b6020604051808303816000875af1158015611751573d6000803e3d6000fd5b505050506040513d601f19601f820116820180604052508101906117759190613b67565b6117b4576040517f08c379a00000000000000000000000000000000000000000000000000000000081526004016117ab90614424565b60405180910390fd5b6117c08260001b6129c3565b5060016006600084815260200190815260200160002060006101000a81548160ff021916908315150217905550306004600083815260200190815260200160002060006101000a81548173ffffffffffffffffffffffffffffffffffffffff021916908373ffffffffffffffffffffffffffffffffffffffff1602179055507f7820cafa2ee4e973e876df3308134064ca72c7d967b1a79ff83049404deb12278260001b6001600360049054906101000a900463ffffffff166118839190614205565b60405161189192919061426a565b60405180910390a1505050505050565b6000816000600881106118b7576118b66137af565b5b602002015190506000826001600881106118d4576118d36137af565b5b602002015190506000836002600881106118f1576118f06137af565b5b6020020151905060008460036008811061190e5761190d6137af565b5b6020020151905060008560046008811061192b5761192a6137af565b5b60200201519050600086600560088110611948576119476137af565b5b60200201519050600087600660088110611965576119646137af565b5b60200201519050600081600a8461197c9190613e18565b6064866119899190613e18565b6119939190613d30565b61199d9190613d30565b9050600060086000878152602001908152602001600020600083815260200190815260200160002054905060008a6007600881106119de576119dd6137af565b5b602002015190503373ffffffffffffffffffffffffffffffffffffffff168173ffffffffffffffffffffffffffffffffffffffff1614611a53576040517f08c379a0000000000000000000000000000000000000000000000000000000008152600401611a4a90614490565b60405180910390fd5b60008203611a96576040517f08c379a0000000000000000000000000000000000000000000000000000000008152600401611a8d906144fc565b60405180910390fd5b600760008b815260200190815260200160002060009054906101000a900460ff1615611af7576040517f08c379a0000000000000000000000000000000000000000000000000000000008152600401611aee9061383b565b60405180910390fd5b611b038860001b610abe565b611b42576040517f08c379a0000000000000000000000000000000000000000000000000000000008152600401611b39906138a7565b60405180910390fd5b600360089054906101000a900473ffffffffffffffffffffffffffffffffffffffff1673ffffffffffffffffffffffffffffffffffffffff1663ae1e99a28f8f8f8f6040518563ffffffff1660e01b8152600401611ba394939291906145a0565b6020604051808303816000875af1158015611bc2573d6000803e3d6000fd5b505050506040513d601f19601f82011682018060405250810190611be69190613b67565b611c25576040517f08c379a0000000000000000000000000000000000000000000000000000000008152600401611c1c90613be0565b60405180910390fd5b816008600089815260200190815260200160002060008581526020019081526020016000206000828254611c5991906145e7565b925050819055506001600760008c815260200190815260200160002060006101000a81548160ff021916908315150217905550600660008a815260200190815260200160002060009054906101000a900460ff1615611ced576040517f08c379a0000000000000000000000000000000000000000000000000000000008152600401611ce4906141e5565b60405180910390fd5b611cf98960001b6129c3565b506001600660008b815260200190815260200160002060006101000a81548160ff0219169083151502179055507f19281dd9e52dcb255e44a7626316c970b310d13ea2d0dc40b44f3a5a44b16e2287878787604051611d5b9493929190613ede565b60405180910390a17f7820cafa2ee4e973e876df3308134064ca72c7d967b1a79ff83049404deb12278960001b6001600360049054906101000a900463ffffffff16611da79190614205565b604051611db592919061426a565b60405180910390a13373ffffffffffffffffffffffffffffffffffffffff166108fc839081150290604051600060405180830381858888f19350505050158015611e03573d6000803e3d6000fd5b505050505050505050505050505050565b6000808203611e48577f2fe54c60d3acabf3343a35b6eba15db4821b340f76e741e2249685ed4899af6c60001b90506124ae565b60018203611e7b577f256a6135777eee2fd26f54b8b7037a25439d5235caee224154186d2b8a52e31d60001b90506124ae565b60028203611eae577f1151949895e82ab19924de92c40a3d6f7bcb60d92b00504b8199613683f0c20060001b90506124ae565b60038203611ee1577f20121ee811489ff8d61f09fb89e313f14959a0f28bb428a20dba6b0b068b3bdb60001b90506124ae565b60048203611f14577f0a89ca6ffa14cc462cfedb842c30ed221a50a3d6bf022a6a57dc82ab24c157c960001b90506124ae565b60058203611f47577f24ca05c2b5cd42e890d6be94c68d0689f4f21c9cec9c0f13fe41d566dfb5495960001b90506124ae565b60068203611f7a577f1ccb97c932565a92c60156bdba2d08f3bf1377464e025cee765679e604a7315c60001b90506124ae565b60078203611fad577f19156fbd7d1a8bf5cba8909367de1b624534ebab4f0f79e003bccdd1b182bdb460001b90506124ae565b60088203611fe0577f261af8c1f0912e465744641409f622d466c3920ac6e5ff37e36604cb11dfff8060001b90506124ae565b60098203612012577e58459724ff6ca5a1652fcbc3e82b93895cf08e975b19beab3f54c217d1c00760001b90506124ae565b600a8203612045577f1f04ef20dee48d39984d8eabe768a70eafa6310ad20849d4573c3c40c2ad1e3060001b90506124ae565b600b8203612078577f1bea3dec5dab51567ce7e200a30f7ba6d4276aeaa53e2686f962a46c66d511e560001b90506124ae565b600c82036120ab577f0ee0f941e2da4b9e31c3ca97a40d8fa9ce68d97c084177071b3cb46cd3372f0f60001b90506124ae565b600d82036120de577f1ca9503e8935884501bbaf20be14eb4c46b89772c97b96e3b2ebf3a36a948bbd60001b90506124ae565b600e8203612111577f133a80e30697cd55d8f7d4b0965b7be24057ba5dc3da898ee2187232446cb10860001b90506124ae565b600f8203612144577f13e6d8fc88839ed76e182c2a779af5b2c0da9dd18c90427a644f7e148a6253b660001b90506124ae565b60108203612177577f1eb16b057a477f4bc8f572ea6bee39561098f78f15bfb3699dcbb7bd8db6185460001b90506124ae565b601182036121aa577f0da2cb16a1ceaabf1c16b838f7a9e3f2a3a3088d9e0a6debaa748114620696ea60001b90506124ae565b601282036121dd577f24a3b3d822420b14b5d8cb6c28a574f01e98ea9e940551d2ebd75cee12649f9d60001b90506124ae565b60138203612210577f198622acbd783d1b0d9064105b1fc8e4d8889de95c4c519b3f635809fe6afc0560001b90506124ae565b60148203612243577f29d7ed391256ccc3ea596c86e933b89ff339d25ea8ddced975ae2fe30b5296d460001b90506124ae565b60158203612276577f19be59f2f0413ce78c0c3703a3a5451b1d7f39629fa33abd11548a76065b296760001b90506124ae565b601682036122a9577f1ff3f61797e538b70e619310d33f2a063e7eb59104e112e95738da1254dc345360001b90506124ae565b601782036122dc577f10c16ae9959cf8358980d9dd9616e48228737310a10e2b6b731c1a548f036c4860001b90506124ae565b6018820361230f577f0ba433a63174a90ac20992e75e3095496812b652685b5e1a2eae0b1bf4e8fcd160001b90506124ae565b60198203612342577f019ddb9df2bc98d987d0dfeca9d2b643deafab8f7036562e627c3667266a044c60001b90506124ae565b601a8203612375577f2d3c88b23175c5a5565db928414c66d1912b11acf974b2e644caaac04739ce9960001b90506124ae565b601b82036123a8577f2eab55f6ae4e66e32c5189eed5c470840863445760f5ed7e7b69b2a62600f35460001b90506124ae565b601c82036123da577e2df37a2642621802383cf952bf4dd1f32e05433beeb1fd41031fb7eace979d60001b90506124ae565b601d820361240d577f104aeb41435db66c3e62feccc1d6f5d98d0a0ed75d1374db457cf462e3a1f42760001b90506124ae565b601e8203612440577f1f3c6fd858e9a7d4b0d1f38e256a09d81d5a5e3c963987e2d4b814cfab7c6ebb60001b90506124ae565b601f8203612473577f2c7a07d20dff79d01fecedc1134284a8d08436606c93693b67e333f671bf69cc60001b90506124ae565b6040517f08c379a00000000000000000000000000000000000000000000000000000000081526004016124a590614667565b60405180910390fd5b919050565b7f2fe54c60d3acabf3343a35b6eba15db4821b340f76e741e2249685ed4899af6c81565b600a831261251a576040517f08c379a000000000000000000000000000000000000000000000000000000000815260040161251190613ca4565b60405180910390fd5b6000831161255d576040517f08c379a000000000000000000000000000000000000000000000000000000000815260040161255490613d10565b60405180910390fd5b600a82106125a0576040517f08c379a000000000000000000000000000000000000000000000000000000000815260040161259790613ca4565b60405180910390fd5b600082116125e3576040517f08c379a00000000000000000000000000000000000000000000000000000000081526004016125da90613d10565b60405180910390fd5b600a8110612626576040517f08c379a000000000000000000000000000000000000000000000000000000000815260040161261d90613ca4565b60405180910390fd5b60008111612669576040517f08c379a000000000000000000000000000000000000000000000000000000000815260040161266090613d10565b60405180910390fd5b600a8183856126789190613d30565b6126829190613d30565b11156126c3576040517f08c379a00000000000000000000000000000000000000000000000000000000081526004016126ba90613df8565b60405180910390fd5b83600960003373ffffffffffffffffffffffffffffffffffffffff1673ffffffffffffffffffffffffffffffffffffffff168152602001908152602001600020819055503460086000868152602001908152602001600020600083600a8661272b9190613e18565b6064886127389190613e18565b6127429190613d30565b61274c9190613d30565b8152602001908152602001600020819055507fdc2d1ceaf90a4ceef82e57e074b04d242501f133456884b83ecb6d7255368f7e848484846040516127939493929190613ede565b60405180910390a150505050565b7f000000000000000000000000000000000000000000000000000000000000000081565b60016020528060005260406000206000915090505481565b600360049054906101000a900463ffffffff1681565b60006005600088815260200190815260200160002060009054906101000a900460ff1660ff1614612859576040517f08c379a0000000000000000000000000000000000000000000000000000000008152600401612850906146d3565b60405180910390fd5b600360089054906101000a900473ffffffffffffffffffffffffffffffffffffffff1673ffffffffffffffffffffffffffffffffffffffff1663db5f5af4858585856040518563ffffffff1660e01b81526004016128ba9493929190614777565b6020604051808303816000875af11580156128d9573d6000803e3d6000fd5b505050506040513d601f19601f820116820180604052508101906128fd9190613b67565b61293c576040517f08c379a000000000000000000000000000000000000000000000000000000000815260040161293390614830565b60405180910390fd5b60016005600088815260200190815260200160002060006101000a81548160ff021916908360ff160217905550846004600088815260200190815260200160002060006101000a81548173ffffffffffffffffffffffffffffffffffffffff021916908373ffffffffffffffffffffffffffffffffffffffff160217905550505050505050565b600080600360049054906101000a900463ffffffff16905060008054906101000a900463ffffffff1660026129f89190614983565b63ffffffff168163ffffffff1603612a45576040517f08c379a0000000000000000000000000000000000000000000000000000000008152600401612a3c90614a24565b60405180910390fd5b6000819050600084905060008060005b60008054906101000a900463ffffffff1663ffffffff168163ffffffff161015612b39576000600286612a889190614a44565b63ffffffff1603612aca57839250612aa58163ffffffff16611e14565b915083600160008363ffffffff16815260200190815260200160002081905550612aea565b600160008263ffffffff1681526020019081526020016000205492508391505b612b157f00000000000000000000000000000000000000000000000000000000000000008484610f60565b9350600285612b249190614a75565b94508080612b3190614aa6565b915050612a55565b506000601e6001600360009054906101000a900463ffffffff16612b5d9190614ad2565b612b679190614a44565b905080600360006101000a81548163ffffffff021916908363ffffffff16021790555083600260008363ffffffff16815260200190815260200160002081905550600186612bb59190614ad2565b600360046101000a81548163ffffffff021916908363ffffffff160217905550859650505050505050919050565b600073ffffffffffffffffffffffffffffffffffffffff82169050919050565b6000819050919050565b6000612c28612c23612c1e84612be3565b612c03565b612be3565b9050919050565b6000612c3a82612c0d565b9050919050565b6000612c4c82612c2f565b9050919050565b612c5c81612c41565b82525050565b6000602082019050612c776000830184612c53565b92915050565b6000819050919050565b612c9081612c7d565b82525050565b6000602082019050612cab6000830184612c87565b92915050565b6000604051905090565b600080fd5b600080fd5b6000601f19601f8301169050919050565b7f4e487b7100000000000000000000000000000000000000000000000000000000600052604160045260246000fd5b612d0e82612cc5565b810181811067ffffffffffffffff82111715612d2d57612d2c612cd6565b5b80604052505050565b6000612d40612cb1565b9050612d4c8282612d05565b919050565b600067ffffffffffffffff821115612d6c57612d6b612cd6565b5b602082029050919050565b600080fd5b612d8581612c7d565b8114612d9057600080fd5b50565b600081359050612da281612d7c565b92915050565b6000612dbb612db684612d51565b612d36565b90508060208402830185811115612dd557612dd4612d77565b5b835b81811015612dfe5780612dea8882612d93565b845260208401935050602081019050612dd7565b5050509392505050565b600082601f830112612e1d57612e1c612cc0565b5b6002612e2a848285612da8565b91505092915050565b600067ffffffffffffffff821115612e4e57612e4d612cd6565b5b602082029050919050565b6000612e6c612e6784612e33565b612d36565b90508060408402830185811115612e8657612e85612d77565b5b835b81811015612eaf5780612e9b8882612e08565b845260208401935050604081019050612e88565b5050509392505050565b600082601f830112612ece57612ecd612cc0565b5b6002612edb848285612e59565b91505092915050565b600067ffffffffffffffff821115612eff57612efe612cd6565b5b602082029050919050565b6000612f1d612f1884612ee4565b612d36565b90508060208402830185811115612f3757612f36612d77565b5b835b81811015612f605780612f4c8882612d93565b845260208401935050602081019050612f39565b5050509392505050565b600082601f830112612f7f57612f7e612cc0565b5b6004612f8c848285612f0a565b91505092915050565b6000806000806101808587031215612fb057612faf612cbb565b5b6000612fbe87828801612e08565b9450506040612fcf87828801612eb9565b93505060c0612fe087828801612e08565b925050610100612ff287828801612f6a565b91505092959194509250565b60006020828403121561301457613013612cbb565b5b600061302284828501612d93565b91505092915050565b600060ff82169050919050565b6130418161302b565b82525050565b600060208201905061305c6000830184613038565b92915050565b600061306d82612be3565b9050919050565b61307d81613062565b811461308857600080fd5b50565b60008135905061309a81613074565b92915050565b600067ffffffffffffffff8211156130bb576130ba612cd6565b5b602082029050919050565b60006130d96130d4846130a0565b612d36565b905080602084028301858111156130f3576130f2612d77565b5b835b8181101561311c57806131088882612d93565b8452602084019350506020810190506130f5565b5050509392505050565b600082601f83011261313b5761313a612cc0565b5b60016131488482856130c6565b91505092915050565b600080600080600080610160878903121561316f5761316e612cbb565b5b600061317d89828a01612d93565b965050602061318e89828a0161308b565b955050604061319f89828a01612e08565b94505060806131b089828a01612eb9565b9350506101006131c289828a01612e08565b9250506101406131d489828a01613126565b9150509295509295509295565b60008115159050919050565b6131f6816131e1565b82525050565b600060208201905061321160008301846131ed565b92915050565b600063ffffffff82169050919050565b61323081613217565b82525050565b600060208201905061324b6000830184613227565b92915050565b61325a81613062565b82525050565b60006020820190506132756000830184613251565b92915050565b6000819050919050565b61328e8161327b565b811461329957600080fd5b50565b6000813590506132ab81613285565b92915050565b6000602082840312156132c7576132c6612cbb565b5b60006132d58482850161329c565b91505092915050565b600080600080608085870312156132f8576132f7612cbb565b5b600061330687828801612d93565b945050602061331787828801612d93565b935050604061332887828801612d93565b925050606061333987828801612d93565b91505092959194509250565b60008060008061012085870312156133605761335f612cbb565b5b600061336e87828801612e08565b945050604061337f87828801612eb9565b93505060c061339087828801612e08565b9250506101006133a287828801613126565b91505092959194509250565b600080604083850312156133c5576133c4612cbb565b5b60006133d385828601612d93565b92505060206133e485828601612d93565b9150509250929050565b60006133f982613062565b9050919050565b613409816133ee565b811461341457600080fd5b50565b60008135905061342681613400565b92915050565b60008060006060848603121561344557613444612cbb565b5b600061345386828701613417565b93505060206134648682870161329c565b92505060406134758682870161329c565b9150509250925092565b6134888161327b565b82525050565b60006020820190506134a3600083018461347f565b92915050565b6000602082840312156134bf576134be612cbb565b5b60006134cd8482850161308b565b91505092915050565b600067ffffffffffffffff8211156134f1576134f0612cd6565b5b602082029050919050565b600061350f61350a846134d6565b612d36565b9050806020840283018581111561352957613528612d77565b5b835b81811015613552578061353e8882612d93565b84526020840193505060208101905061352b565b5050509392505050565b600082601f83011261357157613570612cc0565b5b600361357e8482856134fc565b91505092915050565b60008060008061016085870312156135a2576135a1612cbb565b5b60006135b087828801612e08565b94505060406135c187828801612eb9565b93505060c06135d287828801612e08565b9250506101006135e48782880161355c565b91505092959194509250565b600080600080610140858703121561360b5761360a612cbb565b5b600061361987828801612e08565b945050604061362a87828801612eb9565b93505060c061363b87828801612e08565b92505061010061364d87828801612e08565b91505092959194509250565b600067ffffffffffffffff82111561367457613673612cd6565b5b602082029050919050565b600061369261368d84613659565b612d36565b905080602084028301858111156136ac576136ab612d77565b5b835b818110156136d557806136c18882612d93565b8452602084019350506020810190506136ae565b5050509392505050565b600082601f8301126136f4576136f3612cc0565b5b600861370184828561367f565b91505092915050565b600080600080610200858703121561372557613724612cbb565b5b600061373387828801612e08565b945050604061374487828801612eb9565b93505060c061375587828801612e08565b925050610100613767878288016136df565b91505092959194509250565b600061377e82612c2f565b9050919050565b61378e81613773565b82525050565b60006020820190506137a96000830184613785565b92915050565b7f4e487b7100000000000000000000000000000000000000000000000000000000600052603260045260246000fd5b600082825260208201905092915050565b7f4e756c6c69666965722077617320616c72656164792075736564000000000000600082015250565b6000613825601a836137de565b9150613830826137ef565b602082019050919050565b6000602082019050818103600083015261385481613818565b9050919050565b7f43616e6e6f742066696e6420796f7572206d65726b6c6520726f6f7400000000600082015250565b6000613891601c836137de565b915061389c8261385b565b602082019050919050565b600060208201905081810360008301526138c081613884565b9050919050565b600060029050919050565b600081905092915050565b6000819050919050565b6138f081612c7d565b82525050565b600061390283836138e7565b60208301905092915050565b6000602082019050919050565b613924816138c7565b61392e81846138d2565b9250613939826138dd565b8060005b8381101561396a57815161395187826138f6565b965061395c8361390e565b92505060018101905061393d565b505050505050565b600060029050919050565b600081905092915050565b6000819050919050565b600081905092915050565b6139a6816138c7565b6139b08184613992565b92506139bb826138dd565b8060005b838110156139ec5781516139d387826138f6565b96506139de8361390e565b9250506001810190506139bf565b505050505050565b6000613a00838361399d565b60408301905092915050565b6000602082019050919050565b613a2281613972565b613a2c818461397d565b9250613a3782613988565b8060005b83811015613a68578151613a4f87826139f4565b9650613a5a83613a0c565b925050600181019050613a3b565b505050505050565b600060049050919050565b600081905092915050565b6000819050919050565b6000602082019050919050565b613aa681613a70565b613ab08184613a7b565b9250613abb82613a86565b8060005b83811015613aec578151613ad387826138f6565b9650613ade83613a90565b925050600181019050613abf565b505050505050565b600061018082019050613b0a600083018761391b565b613b176040830186613a19565b613b2460c083018561391b565b613b32610100830184613a9d565b95945050505050565b613b44816131e1565b8114613b4f57600080fd5b50565b600081519050613b6181613b3b565b92915050565b600060208284031215613b7d57613b7c612cbb565b5b6000613b8b84828501613b52565b91505092915050565b7f496e76616c696420756e736869656c642070726f6f6600000000000000000000600082015250565b6000613bca6016836137de565b9150613bd582613b94565b602082019050919050565b60006020820190508181036000830152613bf981613bbd565b9050919050565b7f4e487b7100000000000000000000000000000000000000000000000000000000600052601160045260246000fd5b6000613c3a82613217565b915060008203613c4d57613c4c613c00565b5b600182039050919050565b7f47726561746572207468616e2031300000000000000000000000000000000000600082015250565b6000613c8e600f836137de565b9150613c9982613c58565b602082019050919050565b60006020820190508181036000830152613cbd81613c81565b9050919050565b7f536d616c6c6572207468616e2030000000000000000000000000000000000000600082015250565b6000613cfa600e836137de565b9150613d0582613cc4565b602082019050919050565b60006020820190508181036000830152613d2981613ced565b9050919050565b6000613d3b82612c7d565b9150613d4683612c7d565b9250827fffffffffffffffffffffffffffffffffffffffffffffffffffffffffffffffff03821115613d7b57613d7a613c00565b5b828201905092915050565b7f53756d206f6620617474726962757465732063616e2774206265206c6172676560008201527f72207468616e2031300000000000000000000000000000000000000000000000602082015250565b6000613de26029836137de565b9150613ded82613d86565b604082019050919050565b60006020820190508181036000830152613e1181613dd5565b9050919050565b6000613e2382612c7d565b9150613e2e83612c7d565b9250817fffffffffffffffffffffffffffffffffffffffffffffffffffffffffffffffff0483118215151615613e6757613e66613c00565b5b828202905092915050565b7f42616c616e636520697320656d70747900000000000000000000000000000000600082015250565b6000613ea86010836137de565b9150613eb382613e72565b602082019050919050565b60006020820190508181036000830152613ed781613e9b565b9050919050565b6000608082019050613ef36000830187612c87565b613f006020830186612c87565b613f0d6040830185612c87565b613f1a6060830184612c87565b95945050505050565b7f5f6c6566742073686f756c6420626520696e7369646520746865206669656c64600082015250565b6000613f596020836137de565b9150613f6482613f23565b602082019050919050565b60006020820190508181036000830152613f8881613f4c565b9050919050565b7f5f72696768742073686f756c6420626520696e7369646520746865206669656c60008201527f6400000000000000000000000000000000000000000000000000000000000000602082015250565b6000613feb6021836137de565b9150613ff682613f8f565b604082019050919050565b6000602082019050818103600083015261401a81613fde565b9050919050565b60006040820190506140366000830185612c87565b6140436020830184612c87565b9392505050565b60008151905061405981612d7c565b92915050565b6000806040838503121561407657614075612cbb565b5b60006140848582860161404a565b92505060206140958582860161404a565b9150509250929050565b7f4e487b7100000000000000000000000000000000000000000000000000000000600052601260045260246000fd5b600060039050919050565b600081905092915050565b6000819050919050565b6000602082019050919050565b614104816140ce565b61410e81846140d9565b9250614119826140e4565b8060005b8381101561414a57815161413187826138f6565b965061413c836140ee565b92505060018101905061411d565b505050505050565b600061016082019050614168600083018761391b565b6141756040830186613a19565b61418260c083018561391b565b6141906101008301846140fb565b95945050505050565b7f436f6d6d69746d656e7420616c72656164792065786973747300000000000000600082015250565b60006141cf6019836137de565b91506141da82614199565b602082019050919050565b600060208201905081810360008301526141fe816141c2565b9050919050565b600061421082613217565b915061421b83613217565b92508282101561422e5761422d613c00565b5b828203905092915050565b600061425461424f61424a84613217565b612c03565b612c7d565b9050919050565b61426481614239565b82525050565b600060408201905061427f600083018561347f565b61428c602083018461425b565b9392505050565b7f4f6e6c79206d696e74656420616e6420756e736869656c64656420746f6b656e60008201527f732063616e20626520736869656c646564000000000000000000000000000000602082015250565b60006142ef6031836137de565b91506142fa82614293565b604082019050919050565b6000602082019050818103600083015261431e816142e2565b9050919050565b7f4f6e6c79206f776e65722063616e20736869656c64206120746f6b656e000000600082015250565b600061435b601d836137de565b915061436682614325565b602082019050919050565b6000602082019050818103600083015261438a8161434e565b9050919050565b6000610140820190506143a7600083018761391b565b6143b46040830186613a19565b6143c160c083018561391b565b6143cf61010083018461391b565b95945050505050565b7f496e76616c696420736869656c642070726f6f66000000000000000000000000600082015250565b600061440e6014836137de565b9150614419826143d8565b602082019050919050565b6000602082019050818103600083015261443d81614401565b9050919050565b7f4e6f74206f776e65720000000000000000000000000000000000000000000000600082015250565b600061447a6009836137de565b915061448582614444565b602082019050919050565b600060208201905081810360008301526144a98161446d565b9050919050565b7f616d6f756e74206d757374206265206e6f6e207a65726f000000000000000000600082015250565b60006144e66017836137de565b91506144f1826144b0565b602082019050919050565b60006020820190508181036000830152614515816144d9565b9050919050565b600060089050919050565b600081905092915050565b6000819050919050565b6000602082019050919050565b6145528161451c565b61455c8184614527565b925061456782614532565b8060005b8381101561459857815161457f87826138f6565b965061458a8361453c565b92505060018101905061456b565b505050505050565b6000610200820190506145b6600083018761391b565b6145c36040830186613a19565b6145d060c083018561391b565b6145de610100830184614549565b95945050505050565b60006145f282612c7d565b91506145fd83612c7d565b9250828210156146105761460f613c00565b5b828203905092915050565b7f496e646578206f7574206f6620626f756e647300000000000000000000000000600082015250565b60006146516013836137de565b915061465c8261461b565b602082019050919050565b6000602082019050818103600083015261468081614644565b9050919050565b7f546f6b656e20616c7265616479206d696e746564000000000000000000000000600082015250565b60006146bd6014836137de565b91506146c882614687565b602082019050919050565b600060208201905081810360008301526146ec816146b0565b9050919050565b600060019050919050565b600081905092915050565b6000819050919050565b6000602082019050919050565b614729816146f3565b61473381846146fe565b925061473e82614709565b8060005b8381101561476f57815161475687826138f6565b965061476183614713565b925050600181019050614742565b505050505050565b60006101208201905061478d600083018761391b565b61479a6040830186613a19565b6147a760c083018561391b565b6147b5610100830184614720565b95945050505050565b7f4661696c757265206f662070726f6f66206f66206d696e74207665726966696360008201527f6174696f6e000000000000000000000000000000000000000000000000000000602082015250565b600061481a6025836137de565b9150614825826147be565b604082019050919050565b600060208201905081810360008301526148498161480d565b9050919050565b60008160011c9050919050565b6000808291508390505b60018511156148a75780860481111561488357614882613c00565b5b60018516156148925780820291505b80810290506148a085614850565b9450614867565b94509492505050565b6000826148c0576001905061497c565b816148ce576000905061497c565b81600181146148e457600281146148ee5761491d565b600191505061497c565b60ff841115614900576148ff613c00565b5b8360020a91508482111561491757614916613c00565b5b5061497c565b5060208310610133831016604e8410600b84101617156149525782820a90508381111561494d5761494c613c00565b5b61497c565b61495f848484600161485d565b9250905081840481111561497657614975613c00565b5b81810290505b9392505050565b600061498e82613217565b915061499983613217565b92506149aa63ffffffff84846148b0565b905092915050565b7f4d65726b6c6520747265652069732066756c6c2e204e6f206d6f7265206c656160008201527f7665732063616e20626520616464656400000000000000000000000000000000602082015250565b6000614a0e6030836137de565b9150614a19826149b2565b604082019050919050565b60006020820190508181036000830152614a3d81614a01565b9050919050565b6000614a4f82613217565b9150614a5a83613217565b925082614a6a57614a6961409f565b5b828206905092915050565b6000614a8082613217565b9150614a8b83613217565b925082614a9b57614a9a61409f565b5b828204905092915050565b6000614ab182613217565b915063ffffffff8203614ac757614ac6613c00565b5b600182019050919050565b6000614add82613217565b9150614ae883613217565b92508263ffffffff03821115614b0157614b00613c00565b5b82820190509291505056fea2646970667358221220758fad54488462888776f4ca9660253cb05171cbc56df5678cfd311d84ac975b64736f6c634300080f0033",
  "linkReferences": {},
  "deployedLinkReferences": {}
}