{
  "_format": "hh-sol-artifact-1",
  "contractName": "ZkCards",
  "sourceName": "contracts/ZkCards.sol",
  "abi": [
    {
      "inputs": [
        {
          "internalType": "contract IVerifier",
          "name": "_verifier",
          "type": "address"
        },
        {
          "internalType": "uint32",
          "name": "levels",
          "type": "uint32"
        },
        {
          "internalType": "address",
          "name": "hasher",
          "type": "address"
        }
      ],
      "stateMutability": "nonpayable",
      "type": "constructor"
    },
    {
      "anonymous": false,
      "inputs": [
        {
          "indexed": false,
          "internalType": "uint256",
          "name": "pubKey",
          "type": "uint256"
        },
        {
          "indexed": false,
          "internalType": "uint256",
          "name": "attribute1",
          "type": "uint256"
        },
        {
          "indexed": false,
          "internalType": "uint256",
          "name": "attribute2",
          "type": "uint256"
        },
        {
          "indexed": false,
          "internalType": "uint256",
          "name": "attribute3",
          "type": "uint256"
        }
      ],
      "name": "BidAccepted",
      "type": "event"
    },
    {
      "anonymous": false,
      "inputs": [
        {
          "indexed": false,
          "internalType": "uint256",
          "name": "pubKey",
          "type": "uint256"
        },
        {
          "indexed": false,
          "internalType": "uint256",
          "name": "attribute1",
          "type": "uint256"
        },
        {
          "indexed": false,
          "internalType": "uint256",
          "name": "attribute2",
          "type": "uint256"
        },
        {
          "indexed": false,
          "internalType": "uint256",
          "name": "attribute3",
          "type": "uint256"
        }
      ],
      "name": "NewBid",
      "type": "event"
    },
    {
      "anonymous": false,
      "inputs": [
        {
          "indexed": false,
          "internalType": "bytes32",
          "name": "commitment",
          "type": "bytes32"
        },
        {
          "indexed": false,
          "internalType": "uint256",
          "name": "index",
          "type": "uint256"
        }
      ],
      "name": "NewCommitment",
      "type": "event"
    },
    {
      "inputs": [],
      "name": "FIELD_SIZE",
      "outputs": [
        {
          "internalType": "uint256",
          "name": "",
          "type": "uint256"
        }
      ],
      "stateMutability": "view",
      "type": "function"
    },
    {
      "inputs": [],
      "name": "ROOT_HISTORY_SIZE",
      "outputs": [
        {
          "internalType": "uint32",
          "name": "",
          "type": "uint32"
        }
      ],
      "stateMutability": "view",
      "type": "function"
    },
    {
      "inputs": [],
      "name": "ZERO_VALUE",
      "outputs": [
        {
          "internalType": "uint256",
          "name": "",
          "type": "uint256"
        }
      ],
      "stateMutability": "view",
      "type": "function"
    },
    {
      "inputs": [
        {
          "internalType": "uint256",
          "name": "",
          "type": "uint256"
        },
        {
          "internalType": "uint256",
          "name": "",
          "type": "uint256"
        }
      ],
      "name": "bids",
      "outputs": [
        {
          "internalType": "uint256",
          "name": "",
          "type": "uint256"
        }
      ],
      "stateMutability": "view",
      "type": "function"
    },
    {
      "inputs": [
        {
          "internalType": "uint256",
          "name": "pubKey",
          "type": "uint256"
        },
        {
          "internalType": "uint256",
          "name": "attribute1",
          "type": "uint256"
        },
        {
          "internalType": "uint256",
          "name": "attribute2",
          "type": "uint256"
        },
        {
          "internalType": "uint256",
          "name": "attribute3",
          "type": "uint256"
        }
      ],
      "name": "cancel",
      "outputs": [],
      "stateMutability": "nonpayable",
      "type": "function"
    },
    {
      "inputs": [
        {
          "internalType": "uint256",
          "name": "",
          "type": "uint256"
        }
      ],
      "name": "commitments",
      "outputs": [
        {
          "internalType": "bool",
          "name": "",
          "type": "bool"
        }
      ],
      "stateMutability": "view",
      "type": "function"
    },
    {
      "inputs": [],
      "name": "currentRootIndex",
      "outputs": [
        {
          "internalType": "uint32",
          "name": "",
          "type": "uint32"
        }
      ],
      "stateMutability": "view",
      "type": "function"
    },
    {
      "inputs": [
        {
          "internalType": "uint256",
          "name": "",
          "type": "uint256"
        }
      ],
      "name": "filledSubtrees",
      "outputs": [
        {
          "internalType": "bytes32",
          "name": "",
          "type": "bytes32"
        }
      ],
      "stateMutability": "view",
      "type": "function"
    },
    {
      "inputs": [],
      "name": "getLastRoot",
      "outputs": [
        {
          "internalType": "bytes32",
          "name": "",
          "type": "bytes32"
        }
      ],
      "stateMutability": "view",
      "type": "function"
    },
    {
      "inputs": [
        {
          "internalType": "contract IHasher",
          "name": "_hasher",
          "type": "address"
        },
        {
          "internalType": "bytes32",
          "name": "_left",
          "type": "bytes32"
        },
        {
          "internalType": "bytes32",
          "name": "_right",
          "type": "bytes32"
        }
      ],
      "name": "hashLeftRight",
      "outputs": [
        {
          "internalType": "bytes32",
          "name": "",
          "type": "bytes32"
        }
      ],
      "stateMutability": "pure",
      "type": "function"
    },
    {
      "inputs": [],
      "name": "hasher",
      "outputs": [
        {
          "internalType": "contract IHasher",
          "name": "",
          "type": "address"
        }
      ],
      "stateMutability": "view",
      "type": "function"
    },
    {
      "inputs": [
        {
          "internalType": "bytes32",
          "name": "_root",
          "type": "bytes32"
        }
      ],
      "name": "isKnownRoot",
      "outputs": [
        {
          "internalType": "bool",
          "name": "",
          "type": "bool"
        }
      ],
      "stateMutability": "view",
      "type": "function"
    },
    {
      "inputs": [],
      "name": "levels",
      "outputs": [
        {
          "internalType": "uint32",
          "name": "",
          "type": "uint32"
        }
      ],
      "stateMutability": "view",
      "type": "function"
    },
    {
      "inputs": [
        {
          "internalType": "uint256",
          "name": "pubKey",
          "type": "uint256"
        },
        {
          "internalType": "uint256",
          "name": "attribute1",
          "type": "uint256"
        },
        {
          "internalType": "uint256",
          "name": "attribute2",
          "type": "uint256"
        },
        {
          "internalType": "uint256",
          "name": "attribute3",
          "type": "uint256"
        }
      ],
      "name": "makeBid",
      "outputs": [],
      "stateMutability": "payable",
      "type": "function"
    },
    {
      "inputs": [
        {
          "internalType": "uint256[2]",
          "name": "a",
          "type": "uint256[2]"
        },
        {
          "internalType": "uint256[2][2]",
          "name": "b",
          "type": "uint256[2][2]"
        },
        {
          "internalType": "uint256[2]",
          "name": "c",
          "type": "uint256[2]"
        },
        {
          "internalType": "uint256[1]",
          "name": "input",
          "type": "uint256[1]"
        }
      ],
      "name": "mint",
      "outputs": [],
      "stateMutability": "nonpayable",
      "type": "function"
    },
    {
      "inputs": [
        {
          "internalType": "uint256",
          "name": "id",
          "type": "uint256"
        },
        {
          "internalType": "address",
          "name": "recipient",
          "type": "address"
        },
        {
          "internalType": "uint256[2]",
          "name": "a",
          "type": "uint256[2]"
        },
        {
          "internalType": "uint256[2][2]",
          "name": "b",
          "type": "uint256[2][2]"
        },
        {
          "internalType": "uint256[2]",
          "name": "c",
          "type": "uint256[2]"
        },
        {
          "internalType": "uint256[1]",
          "name": "input",
          "type": "uint256[1]"
        }
      ],
      "name": "mintTo",
      "outputs": [],
      "stateMutability": "nonpayable",
      "type": "function"
    },
    {
      "inputs": [],
      "name": "nextIndex",
      "outputs": [
        {
          "internalType": "uint32",
          "name": "",
          "type": "uint32"
        }
      ],
      "stateMutability": "view",
      "type": "function"
    },
    {
      "inputs": [
        {
          "internalType": "uint256",
          "name": "",
          "type": "uint256"
        }
      ],
      "name": "nullifiers",
      "outputs": [
        {
          "internalType": "bool",
          "name": "",
          "type": "bool"
        }
      ],
      "stateMutability": "view",
      "type": "function"
    },
    {
      "inputs": [
        {
          "internalType": "uint256",
          "name": "",
          "type": "uint256"
        }
      ],
      "name": "ownerOf",
      "outputs": [
        {
          "internalType": "address",
          "name": "",
          "type": "address"
        }
      ],
      "stateMutability": "view",
      "type": "function"
    },
    {
      "inputs": [
        {
          "internalType": "address",
          "name": "",
          "type": "address"
        }
      ],
      "name": "publicKeys",
      "outputs": [
        {
          "internalType": "uint256",
          "name": "",
          "type": "uint256"
        }
      ],
      "stateMutability": "view",
      "type": "function"
    },
    {
      "inputs": [
        {
          "internalType": "uint256",
          "name": "",
          "type": "uint256"
        }
      ],
      "name": "roots",
      "outputs": [
        {
          "internalType": "bytes32",
          "name": "",
          "type": "bytes32"
        }
      ],
      "stateMutability": "view",
      "type": "function"
    },
    {
      "inputs": [
        {
          "internalType": "uint256[2]",
          "name": "a",
          "type": "uint256[2]"
        },
        {
          "internalType": "uint256[2][2]",
          "name": "b",
          "type": "uint256[2][2]"
        },
        {
          "internalType": "uint256[2]",
          "name": "c",
          "type": "uint256[2]"
        },
        {
          "internalType": "uint256[7]",
          "name": "input",
          "type": "uint256[7]"
        }
      ],
      "name": "sell",
      "outputs": [],
      "stateMutability": "nonpayable",
      "type": "function"
    },
    {
      "inputs": [
        {
          "internalType": "uint256[2]",
          "name": "a",
          "type": "uint256[2]"
        },
        {
          "internalType": "uint256[2][2]",
          "name": "b",
          "type": "uint256[2][2]"
        },
        {
          "internalType": "uint256[2]",
          "name": "c",
          "type": "uint256[2]"
        },
        {
          "internalType": "uint256[2]",
          "name": "input",
          "type": "uint256[2]"
        }
      ],
      "name": "shield",
      "outputs": [],
      "stateMutability": "nonpayable",
      "type": "function"
    },
    {
      "inputs": [
        {
          "internalType": "uint256",
          "name": "",
          "type": "uint256"
        }
      ],
      "name": "status",
      "outputs": [
        {
          "internalType": "uint8",
          "name": "",
          "type": "uint8"
        }
      ],
      "stateMutability": "view",
      "type": "function"
    },
    {
      "inputs": [
        {
          "internalType": "uint256[2]",
          "name": "a",
          "type": "uint256[2]"
        },
        {
          "internalType": "uint256[2][2]",
          "name": "b",
          "type": "uint256[2][2]"
        },
        {
          "internalType": "uint256[2]",
          "name": "c",
          "type": "uint256[2]"
        },
        {
          "internalType": "uint256[3]",
          "name": "input",
          "type": "uint256[3]"
        }
      ],
      "name": "transfer",
      "outputs": [],
      "stateMutability": "nonpayable",
      "type": "function"
    },
    {
      "inputs": [
        {
          "internalType": "uint256[2]",
          "name": "a",
          "type": "uint256[2]"
        },
        {
          "internalType": "uint256[2][2]",
          "name": "b",
          "type": "uint256[2][2]"
        },
        {
          "internalType": "uint256[2]",
          "name": "c",
          "type": "uint256[2]"
        },
        {
          "internalType": "uint256[4]",
          "name": "input",
          "type": "uint256[4]"
        }
      ],
      "name": "unshield",
      "outputs": [],
      "stateMutability": "nonpayable",
      "type": "function"
    },
    {
      "inputs": [],
      "name": "verifier",
      "outputs": [
        {
          "internalType": "contract IVerifier",
          "name": "",
          "type": "address"
        }
      ],
      "stateMutability": "view",
      "type": "function"
    },
    {
      "inputs": [
        {
          "internalType": "uint256",
          "name": "i",
          "type": "uint256"
        }
      ],
      "name": "zeros",
      "outputs": [
        {
          "internalType": "bytes32",
          "name": "",
          "type": "bytes32"
        }
      ],
      "stateMutability": "pure",
      "type": "function"
    }
  ],
  "bytecode": "0x60a06040526000600360006101000a81548163ffffffff021916908363ffffffff1602179055506000600360046101000a81548163ffffffff021916908363ffffffff1602179055503480156200005557600080fd5b50604051620054b4380380620054b483398181016040528101906200007b919062000a25565b818160008263ffffffff1611620000c9576040517f08c379a0000000000000000000000000000000000000000000000000000000008152600401620000c09062000b08565b60405180910390fd5b60208263ffffffff161062000115576040517f08c379a00000000000000000000000000000000000000000000000000000000081526004016200010c9062000b7a565b60405180910390fd5b816000806101000a81548163ffffffff021916908363ffffffff1602179055508073ffffffffffffffffffffffffffffffffffffffff1660808173ffffffffffffffffffffffffffffffffffffffff168152505060005b8263ffffffff168163ffffffff161015620001cb57620001988163ffffffff166200025460201b60201c565b600160008363ffffffff168152602001908152602001600020819055508080620001c29062000bcb565b9150506200016c565b50620001f1600183620001df919062000bfc565b63ffffffff166200025460201b60201c565b6002600080815260200190815260200160002081905550505082600360086101000a81548173ffffffffffffffffffffffffffffffffffffffff021916908373ffffffffffffffffffffffffffffffffffffffff16021790555050505062000ca9565b60008082036200028a577f2fe54c60d3acabf3343a35b6eba15db4821b340f76e741e2249685ed4899af6c60001b905062000930565b60018203620002bf577f256a6135777eee2fd26f54b8b7037a25439d5235caee224154186d2b8a52e31d60001b905062000930565b60028203620002f4577f1151949895e82ab19924de92c40a3d6f7bcb60d92b00504b8199613683f0c20060001b905062000930565b6003820362000329577f20121ee811489ff8d61f09fb89e313f14959a0f28bb428a20dba6b0b068b3bdb60001b905062000930565b600482036200035e577f0a89ca6ffa14cc462cfedb842c30ed221a50a3d6bf022a6a57dc82ab24c157c960001b905062000930565b6005820362000393577f24ca05c2b5cd42e890d6be94c68d0689f4f21c9cec9c0f13fe41d566dfb5495960001b905062000930565b60068203620003c8577f1ccb97c932565a92c60156bdba2d08f3bf1377464e025cee765679e604a7315c60001b905062000930565b60078203620003fd577f19156fbd7d1a8bf5cba8909367de1b624534ebab4f0f79e003bccdd1b182bdb460001b905062000930565b6008820362000432577f261af8c1f0912e465744641409f622d466c3920ac6e5ff37e36604cb11dfff8060001b905062000930565b6009820362000466577e58459724ff6ca5a1652fcbc3e82b93895cf08e975b19beab3f54c217d1c00760001b905062000930565b600a82036200049b577f1f04ef20dee48d39984d8eabe768a70eafa6310ad20849d4573c3c40c2ad1e3060001b905062000930565b600b8203620004d0577f1bea3dec5dab51567ce7e200a30f7ba6d4276aeaa53e2686f962a46c66d511e560001b905062000930565b600c820362000505577f0ee0f941e2da4b9e31c3ca97a40d8fa9ce68d97c084177071b3cb46cd3372f0f60001b905062000930565b600d82036200053a577f1ca9503e8935884501bbaf20be14eb4c46b89772c97b96e3b2ebf3a36a948bbd60001b905062000930565b600e82036200056f577f133a80e30697cd55d8f7d4b0965b7be24057ba5dc3da898ee2187232446cb10860001b905062000930565b600f8203620005a4577f13e6d8fc88839ed76e182c2a779af5b2c0da9dd18c90427a644f7e148a6253b660001b905062000930565b60108203620005d9577f1eb16b057a477f4bc8f572ea6bee39561098f78f15bfb3699dcbb7bd8db6185460001b905062000930565b601182036200060e577f0da2cb16a1ceaabf1c16b838f7a9e3f2a3a3088d9e0a6debaa748114620696ea60001b905062000930565b6012820362000643577f24a3b3d822420b14b5d8cb6c28a574f01e98ea9e940551d2ebd75cee12649f9d60001b905062000930565b6013820362000678577f198622acbd783d1b0d9064105b1fc8e4d8889de95c4c519b3f635809fe6afc0560001b905062000930565b60148203620006ad577f29d7ed391256ccc3ea596c86e933b89ff339d25ea8ddced975ae2fe30b5296d460001b905062000930565b60158203620006e2577f19be59f2f0413ce78c0c3703a3a5451b1d7f39629fa33abd11548a76065b296760001b905062000930565b6016820362000717577f1ff3f61797e538b70e619310d33f2a063e7eb59104e112e95738da1254dc345360001b905062000930565b601782036200074c577f10c16ae9959cf8358980d9dd9616e48228737310a10e2b6b731c1a548f036c4860001b905062000930565b6018820362000781577f0ba433a63174a90ac20992e75e3095496812b652685b5e1a2eae0b1bf4e8fcd160001b905062000930565b60198203620007b6577f019ddb9df2bc98d987d0dfeca9d2b643deafab8f7036562e627c3667266a044c60001b905062000930565b601a8203620007eb577f2d3c88b23175c5a5565db928414c66d1912b11acf974b2e644caaac04739ce9960001b905062000930565b601b820362000820577f2eab55f6ae4e66e32c5189eed5c470840863445760f5ed7e7b69b2a62600f35460001b905062000930565b601c820362000854577e2df37a2642621802383cf952bf4dd1f32e05433beeb1fd41031fb7eace979d60001b905062000930565b601d820362000889577f104aeb41435db66c3e62feccc1d6f5d98d0a0ed75d1374db457cf462e3a1f42760001b905062000930565b601e8203620008be577f1f3c6fd858e9a7d4b0d1f38e256a09d81d5a5e3c963987e2d4b814cfab7c6ebb60001b905062000930565b601f8203620008f3577f2c7a07d20dff79d01fecedc1134284a8d08436606c93693b67e333f671bf69cc60001b905062000930565b6040517f08c379a0000000000000000000000000000000000000000000000000000000008152600401620009279062000c87565b60405180910390fd5b919050565b600080fd5b600073ffffffffffffffffffffffffffffffffffffffff82169050919050565b600062000967826200093a565b9050919050565b60006200097b826200095a565b9050919050565b6200098d816200096e565b81146200099957600080fd5b50565b600081519050620009ad8162000982565b92915050565b600063ffffffff82169050919050565b620009ce81620009b3565b8114620009da57600080fd5b50565b600081519050620009ee81620009c3565b92915050565b620009ff816200095a565b811462000a0b57600080fd5b50565b60008151905062000a1f81620009f4565b92915050565b60008060006060848603121562000a415762000a4062000935565b5b600062000a51868287016200099c565b935050602062000a6486828701620009dd565b925050604062000a778682870162000a0e565b9150509250925092565b600082825260208201905092915050565b7f5f6c6576656c732073686f756c642062652067726561746572207468616e207a60008201527f65726f0000000000000000000000000000000000000000000000000000000000602082015250565b600062000af060238362000a81565b915062000afd8262000a92565b604082019050919050565b6000602082019050818103600083015262000b238162000ae1565b9050919050565b7f5f6c6576656c732073686f756c64206265206c657373207468616e2033320000600082015250565b600062000b62601e8362000a81565b915062000b6f8262000b2a565b602082019050919050565b6000602082019050818103600083015262000b958162000b53565b9050919050565b7f4e487b7100000000000000000000000000000000000000000000000000000000600052601160045260246000fd5b600062000bd882620009b3565b915063ffffffff820362000bf15762000bf062000b9c565b5b600182019050919050565b600062000c0982620009b3565b915062000c1683620009b3565b92508282101562000c2c5762000c2b62000b9c565b5b828203905092915050565b7f496e646578206f7574206f6620626f756e647300000000000000000000000000600082015250565b600062000c6f60138362000a81565b915062000c7c8262000c37565b602082019050919050565b6000602082019050818103600083015262000ca28162000c60565b9050919050565b6080516147e862000ccc600039600081816125b301526128ff01526147e86000f3fe6080604052600436106101b75760003560e01c8063a3d6f9a9116100ec578063e3b01c071161008a578063ecf4a08611610064578063ecf4a0861461066a578063ed33639f14610686578063f178e47c146106b1578063fc7e9c6f146106ee576101b7565b8063e3b01c07146105d9578063e829558814610602578063ec7329591461063f576101b7565b8063c7f45f5e116100c6578063c7f45f5e1461051f578063cd87a3b414610548578063d21e82ab14610573578063db4a76f3146105b0576101b7565b8063a3d6f9a91461047a578063ba70f757146104b7578063c2b40ae4146104e2576101b7565b80636352211e116101595780637997bd1c116101335780637997bd1c146103ac5780637b3c4baa146103d55780638ea3099e1461041257806390eeb02b1461044f576101b7565b80636352211e146103095780636d9833e3146103465780637273981514610383576101b7565b806342d21ef71161019557806342d21ef71461023b578063495aa4ac1461027857806349ce8997146102a15780634ecf518b146102de576101b7565b80632b7ac3f3146101bc578063414a37ba146101e757806341a45e0714610212575b600080fd5b3480156101c857600080fd5b506101d1610719565b6040516101de9190612a72565b60405180910390f35b3480156101f357600080fd5b506101fc61073f565b6040516102099190612aa6565b60405180910390f35b34801561021e57600080fd5b5061023960048036038101906102349190612da5565b610763565b005b34801561024757600080fd5b50610262600480360381019061025d9190612e0e565b610a21565b60405161026f9190612e57565b60405180910390f35b34801561028457600080fd5b5061029f600480360381019061029a9190612f61565b610a41565b005b3480156102ad57600080fd5b506102c860048036038101906102c39190612e0e565b610a57565b6040516102d5919061300c565b60405180910390f35b3480156102ea57600080fd5b506102f3610a77565b6040516103009190613046565b60405180910390f35b34801561031557600080fd5b50610330600480360381019061032b9190612e0e565b610a8b565b60405161033d9190613070565b60405180910390f35b34801561035257600080fd5b5061036d600480360381019061036891906130c1565b610abe565b60405161037a919061300c565b60405180910390f35b34801561038f57600080fd5b506103aa60048036038101906103a591906130ee565b610b5b565b005b3480156103b857600080fd5b506103d360048036038101906103ce9190613155565b610e78565b005b3480156103e157600080fd5b506103fc60048036038101906103f791906131be565b610ea4565b6040516104099190612aa6565b60405180910390f35b34801561041e57600080fd5b506104396004803603810190610434919061323c565b610ec9565b604051610446919061329e565b60405180910390f35b34801561045b57600080fd5b506104646110eb565b6040516104719190613046565b60405180910390f35b34801561048657600080fd5b506104a1600480360381019061049c91906132b9565b611101565b6040516104ae9190612aa6565b60405180910390f35b3480156104c357600080fd5b506104cc611119565b6040516104d9919061329e565b60405180910390f35b3480156104ee57600080fd5b5061050960048036038101906105049190612e0e565b61114c565b604051610516919061329e565b60405180910390f35b34801561052b57600080fd5b5061054660048036038101906105419190613397565b611164565b005b34801561055457600080fd5b5061055d611473565b60405161056a9190613046565b60405180910390f35b34801561057f57600080fd5b5061059a60048036038101906105959190612e0e565b611478565b6040516105a7919061300c565b60405180910390f35b3480156105bc57600080fd5b506105d760048036038101906105d291906134b1565b611498565b005b3480156105e557600080fd5b5061060060048036038101906105fb919061351a565b611949565b005b34801561060e57600080fd5b5061062960048036038101906106249190612e0e565b611cbb565b604051610636919061329e565b60405180910390f35b34801561064b57600080fd5b5061065461235a565b6040516106619190612aa6565b60405180910390f35b610684600480360381019061067f91906130ee565b61237e565b005b34801561069257600080fd5b5061069b6125b1565b6040516106a891906135a4565b60405180910390f35b3480156106bd57600080fd5b506106d860048036038101906106d39190612e0e565b6125d5565b6040516106e5919061329e565b60405180910390f35b3480156106fa57600080fd5b506107036125ed565b6040516107109190613046565b60405180910390f35b600360089054906101000a900473ffffffffffffffffffffffffffffffffffffffff1681565b7f30644e72e131a029b85045b68181585d2833e84879b9709143e1f593f000000181565b600081600060048110610779576107786135bf565b5b60200201519050600082600160048110610796576107956135bf565b5b602002015190506000836002600481106107b3576107b26135bf565b5b602002015190506000846003600481106107d0576107cf6135bf565b5b6020020151905060008290506007600086815260200190815260200160002060009054906101000a900460ff161561083d576040517f08c379a00000000000000000000000000000000000000000000000000000000081526004016108349061364b565b60405180910390fd5b60016007600087815260200190815260200160002060006101000a81548160ff0219169083151502179055506108758260001b610abe565b6108b4576040517f08c379a00000000000000000000000000000000000000000000000000000000081526004016108ab906136b7565b60405180910390fd5b600360089054906101000a900473ffffffffffffffffffffffffffffffffffffffff1673ffffffffffffffffffffffffffffffffffffffff1663557a2f5f8a8a8a8a6040518563ffffffff1660e01b81526004016109159493929190613904565b6020604051808303816000875af1158015610934573d6000803e3d6000fd5b505050506040513d601f19601f820116820180604052508101906109589190613977565b610997576040517f08c379a000000000000000000000000000000000000000000000000000000000815260040161098e906139f0565b60405180910390fd5b806004600086815260200190815260200160002060006101000a81548173ffffffffffffffffffffffffffffffffffffffff021916908373ffffffffffffffffffffffffffffffffffffffff16021790555060016005600086815260200190815260200160002060006101000a81548160ff021916908360ff160217905550505050505050505050565b60056020528060005260406000206000915054906101000a900460ff1681565b610a4f868686868686612603565b505050505050565b60066020528060005260406000206000915054906101000a900460ff1681565b60008054906101000a900463ffffffff1681565b60046020528060005260406000206000915054906101000a900473ffffffffffffffffffffffffffffffffffffffff1681565b60008060001b8203610ad35760009050610b56565b6000600360009054906101000a900463ffffffff16905060008190505b600260008263ffffffff168152602001908152602001600020548403610b1b57600192505050610b56565b60008163ffffffff1603610b2e57601e90505b8080610b3990613a3f565b9150508163ffffffff168163ffffffff1603610af0576000925050505b919050565b600a8312610b9e576040517f08c379a0000000000000000000000000000000000000000000000000000000008152600401610b9590613ab4565b60405180910390fd5b60008311610be1576040517f08c379a0000000000000000000000000000000000000000000000000000000008152600401610bd890613b20565b60405180910390fd5b600a8210610c24576040517f08c379a0000000000000000000000000000000000000000000000000000000008152600401610c1b90613ab4565b60405180910390fd5b60008211610c67576040517f08c379a0000000000000000000000000000000000000000000000000000000008152600401610c5e90613b20565b60405180910390fd5b600a8110610caa576040517f08c379a0000000000000000000000000000000000000000000000000000000008152600401610ca190613ab4565b60405180910390fd5b60008111610ced576040517f08c379a0000000000000000000000000000000000000000000000000000000008152600401610ce490613b20565b60405180910390fd5b83600960003373ffffffffffffffffffffffffffffffffffffffff1673ffffffffffffffffffffffffffffffffffffffff1681526020019081526020016000205414610d3857600080fd5b600060086000868152602001908152602001600020600083600a86610d5d9190613b40565b606488610d6a9190613b40565b610d749190613b9a565b610d7e9190613b9a565b815260200190815260200160002054905060008103610dd2576040517f08c379a0000000000000000000000000000000000000000000000000000000008152600401610dc990613c3c565b60405180910390fd5b600060086000878152602001908152602001600020600084600a87610df79190613b40565b606489610e049190613b40565b610e0e9190613b9a565b610e189190613b9a565b8152602001908152602001600020819055503373ffffffffffffffffffffffffffffffffffffffff166108fc829081150290604051600060405180830381858888f19350505050158015610e70573d6000803e3d6000fd5b505050505050565b610e9e81600060018110610e8f57610e8e6135bf565b5b60200201513386868686612603565b50505050565b6008602052816000526040600020602052806000526040600020600091509150505481565b60007f30644e72e131a029b85045b68181585d2833e84879b9709143e1f593f00000018360001c10610f30576040517f08c379a0000000000000000000000000000000000000000000000000000000008152600401610f2790613ca8565b60405180910390fd5b7f30644e72e131a029b85045b68181585d2833e84879b9709143e1f593f00000018260001c10610f95576040517f08c379a0000000000000000000000000000000000000000000000000000000008152600401610f8c90613d3a565b60405180910390fd5b60008360001c905060008573ffffffffffffffffffffffffffffffffffffffff1663f47d33b583836040518363ffffffff1660e01b8152600401610fda929190613d5a565b6040805180830381865afa158015610ff6573d6000803e3d6000fd5b505050506040513d601f19601f8201168201806040525081019061101a9190613d98565b80925081935050507f30644e72e131a029b85045b68181585d2833e84879b9709143e1f593f00000018061105157611050613dd8565b5b8460001c830891508573ffffffffffffffffffffffffffffffffffffffff1663f47d33b583836040518363ffffffff1660e01b8152600401611094929190613d5a565b6040805180830381865afa1580156110b0573d6000803e3d6000fd5b505050506040513d601f19601f820116820180604052508101906110d49190613d98565b80925081935050508160001b925050509392505050565b600360009054906101000a900463ffffffff1681565b60096020528060005260406000206000915090505481565b600060026000600360009054906101000a900463ffffffff1663ffffffff16815260200190815260200160002054905090565b60026020528060005260406000206000915090505481565b60008160006003811061117a576111796135bf565b5b60200201519050600082600160038110611197576111966135bf565b5b602002015190506000836002600381106111b4576111b36135bf565b5b602002015190506007600084815260200190815260200160002060009054906101000a900460ff161561121c576040517f08c379a00000000000000000000000000000000000000000000000000000000081526004016112139061364b565b60405180910390fd5b6112288160001b610abe565b611267576040517f08c379a000000000000000000000000000000000000000000000000000000000815260040161125e906136b7565b60405180910390fd5b600360089054906101000a900473ffffffffffffffffffffffffffffffffffffffff1673ffffffffffffffffffffffffffffffffffffffff16637d176458888888886040518563ffffffff1660e01b81526004016112c89493929190613e8b565b6020604051808303816000875af11580156112e7573d6000803e3d6000fd5b505050506040513d601f19601f8201168201806040525081019061130b9190613977565b61134a576040517f08c379a0000000000000000000000000000000000000000000000000000000008152600401611341906139f0565b60405180910390fd5b60016007600085815260200190815260200160002060006101000a81548160ff0219169083151502179055506006600083815260200190815260200160002060009054906101000a900460ff16156113d7576040517f08c379a00000000000000000000000000000000000000000000000000000000081526004016113ce90613f1e565b60405180910390fd5b6113e38260001b6127d3565b5060016006600084815260200190815260200160002060006101000a81548160ff0219169083151502179055507f7820cafa2ee4e973e876df3308134064ca72c7d967b1a79ff83049404deb12278260001b6001600360049054906101000a900463ffffffff166114549190613f3e565b604051611462929190613fa3565b60405180910390a150505050505050565b601e81565b60076020528060005260406000206000915054906101000a900460ff1681565b6000816000600781106114ae576114ad6135bf565b5b602002015190506000826001600781106114cb576114ca6135bf565b5b602002015190506000836002600781106114e8576114e76135bf565b5b60200201519050600084600360078110611505576115046135bf565b5b60200201519050600085600460078110611522576115216135bf565b5b6020020151905060008660056007811061153f5761153e6135bf565b5b6020020151905060008760066007811061155c5761155b6135bf565b5b60200201519050600081600a846115739190613b40565b6064866115809190613b40565b61158a9190613b9a565b6115949190613b9a565b90506000600860008781526020019081526020016000206000838152602001908152602001600020549050600081036115cc57600080fd5b600760008a815260200190815260200160002060009054906101000a900460ff161561162d576040517f08c379a00000000000000000000000000000000000000000000000000000000081526004016116249061364b565b60405180910390fd5b6116398760001b610abe565b611678576040517f08c379a000000000000000000000000000000000000000000000000000000000815260040161166f906136b7565b60405180910390fd5b600360089054906101000a900473ffffffffffffffffffffffffffffffffffffffff1673ffffffffffffffffffffffffffffffffffffffff166335f722f28e8e8e8e6040518563ffffffff1660e01b81526004016116d99493929190614050565b6020604051808303816000875af11580156116f8573d6000803e3d6000fd5b505050506040513d601f19601f8201168201806040525081019061171c9190613977565b61175b576040517f08c379a0000000000000000000000000000000000000000000000000000000008152600401611752906139f0565b60405180910390fd5b80600860008881526020019081526020016000206000848152602001908152602001600020600082825461178f9190614097565b925050819055506001600760008b815260200190815260200160002060006101000a81548160ff0219169083151502179055506006600089815260200190815260200160002060009054906101000a900460ff1615611823576040517f08c379a000000000000000000000000000000000000000000000000000000000815260040161181a90613f1e565b60405180910390fd5b61182f8860001b6127d3565b506001600660008a815260200190815260200160002060006101000a81548160ff0219169083151502179055507f19281dd9e52dcb255e44a7626316c970b310d13ea2d0dc40b44f3a5a44b16e228686868660405161189194939291906140cb565b60405180910390a17f7820cafa2ee4e973e876df3308134064ca72c7d967b1a79ff83049404deb12278860001b6001600360049054906101000a900463ffffffff166118dd9190613f3e565b6040516118eb929190613fa3565b60405180910390a13373ffffffffffffffffffffffffffffffffffffffff166108fc829081150290604051600060405180830381858888f19350505050158015611939573d6000803e3d6000fd5b5050505050505050505050505050565b60008160006002811061195f5761195e6135bf565b5b6020020151905060008260016002811061197c5761197b6135bf565b5b6020020151905060016005600083815260200190815260200160002060009054906101000a900460ff1660ff16146119e9576040517f08c379a00000000000000000000000000000000000000000000000000000000081526004016119e090614182565b60405180910390fd5b3373ffffffffffffffffffffffffffffffffffffffff166004600083815260200190815260200160002060009054906101000a900473ffffffffffffffffffffffffffffffffffffffff1673ffffffffffffffffffffffffffffffffffffffff1614611a8a576040517f08c379a0000000000000000000000000000000000000000000000000000000008152600401611a81906141ee565b60405180910390fd5b6006600083815260200190815260200160002060009054906101000a900460ff1615611aeb576040517f08c379a0000000000000000000000000000000000000000000000000000000008152600401611ae290613f1e565b60405180910390fd5b600360089054906101000a900473ffffffffffffffffffffffffffffffffffffffff1673ffffffffffffffffffffffffffffffffffffffff16638ff2bf9e878787876040518563ffffffff1660e01b8152600401611b4c949392919061420e565b6020604051808303816000875af1158015611b6b573d6000803e3d6000fd5b505050506040513d601f19601f82011682018060405250810190611b8f9190613977565b611bce576040517f08c379a0000000000000000000000000000000000000000000000000000000008152600401611bc5906142a1565b60405180910390fd5b611bda8260001b6127d3565b5060016006600084815260200190815260200160002060006101000a81548160ff021916908315150217905550306004600083815260200190815260200160002060006101000a81548173ffffffffffffffffffffffffffffffffffffffff021916908373ffffffffffffffffffffffffffffffffffffffff1602179055507f7820cafa2ee4e973e876df3308134064ca72c7d967b1a79ff83049404deb12278260001b6001600360049054906101000a900463ffffffff16611c9d9190613f3e565b604051611cab929190613fa3565b60405180910390a1505050505050565b6000808203611cef577f2fe54c60d3acabf3343a35b6eba15db4821b340f76e741e2249685ed4899af6c60001b9050612355565b60018203611d22577f256a6135777eee2fd26f54b8b7037a25439d5235caee224154186d2b8a52e31d60001b9050612355565b60028203611d55577f1151949895e82ab19924de92c40a3d6f7bcb60d92b00504b8199613683f0c20060001b9050612355565b60038203611d88577f20121ee811489ff8d61f09fb89e313f14959a0f28bb428a20dba6b0b068b3bdb60001b9050612355565b60048203611dbb577f0a89ca6ffa14cc462cfedb842c30ed221a50a3d6bf022a6a57dc82ab24c157c960001b9050612355565b60058203611dee577f24ca05c2b5cd42e890d6be94c68d0689f4f21c9cec9c0f13fe41d566dfb5495960001b9050612355565b60068203611e21577f1ccb97c932565a92c60156bdba2d08f3bf1377464e025cee765679e604a7315c60001b9050612355565b60078203611e54577f19156fbd7d1a8bf5cba8909367de1b624534ebab4f0f79e003bccdd1b182bdb460001b9050612355565b60088203611e87577f261af8c1f0912e465744641409f622d466c3920ac6e5ff37e36604cb11dfff8060001b9050612355565b60098203611eb9577e58459724ff6ca5a1652fcbc3e82b93895cf08e975b19beab3f54c217d1c00760001b9050612355565b600a8203611eec577f1f04ef20dee48d39984d8eabe768a70eafa6310ad20849d4573c3c40c2ad1e3060001b9050612355565b600b8203611f1f577f1bea3dec5dab51567ce7e200a30f7ba6d4276aeaa53e2686f962a46c66d511e560001b9050612355565b600c8203611f52577f0ee0f941e2da4b9e31c3ca97a40d8fa9ce68d97c084177071b3cb46cd3372f0f60001b9050612355565b600d8203611f85577f1ca9503e8935884501bbaf20be14eb4c46b89772c97b96e3b2ebf3a36a948bbd60001b9050612355565b600e8203611fb8577f133a80e30697cd55d8f7d4b0965b7be24057ba5dc3da898ee2187232446cb10860001b9050612355565b600f8203611feb577f13e6d8fc88839ed76e182c2a779af5b2c0da9dd18c90427a644f7e148a6253b660001b9050612355565b6010820361201e577f1eb16b057a477f4bc8f572ea6bee39561098f78f15bfb3699dcbb7bd8db6185460001b9050612355565b60118203612051577f0da2cb16a1ceaabf1c16b838f7a9e3f2a3a3088d9e0a6debaa748114620696ea60001b9050612355565b60128203612084577f24a3b3d822420b14b5d8cb6c28a574f01e98ea9e940551d2ebd75cee12649f9d60001b9050612355565b601382036120b7577f198622acbd783d1b0d9064105b1fc8e4d8889de95c4c519b3f635809fe6afc0560001b9050612355565b601482036120ea577f29d7ed391256ccc3ea596c86e933b89ff339d25ea8ddced975ae2fe30b5296d460001b9050612355565b6015820361211d577f19be59f2f0413ce78c0c3703a3a5451b1d7f39629fa33abd11548a76065b296760001b9050612355565b60168203612150577f1ff3f61797e538b70e619310d33f2a063e7eb59104e112e95738da1254dc345360001b9050612355565b60178203612183577f10c16ae9959cf8358980d9dd9616e48228737310a10e2b6b731c1a548f036c4860001b9050612355565b601882036121b6577f0ba433a63174a90ac20992e75e3095496812b652685b5e1a2eae0b1bf4e8fcd160001b9050612355565b601982036121e9577f019ddb9df2bc98d987d0dfeca9d2b643deafab8f7036562e627c3667266a044c60001b9050612355565b601a820361221c577f2d3c88b23175c5a5565db928414c66d1912b11acf974b2e644caaac04739ce9960001b9050612355565b601b820361224f577f2eab55f6ae4e66e32c5189eed5c470840863445760f5ed7e7b69b2a62600f35460001b9050612355565b601c8203612281577e2df37a2642621802383cf952bf4dd1f32e05433beeb1fd41031fb7eace979d60001b9050612355565b601d82036122b4577f104aeb41435db66c3e62feccc1d6f5d98d0a0ed75d1374db457cf462e3a1f42760001b9050612355565b601e82036122e7577f1f3c6fd858e9a7d4b0d1f38e256a09d81d5a5e3c963987e2d4b814cfab7c6ebb60001b9050612355565b601f820361231a577f2c7a07d20dff79d01fecedc1134284a8d08436606c93693b67e333f671bf69cc60001b9050612355565b6040517f08c379a000000000000000000000000000000000000000000000000000000000815260040161234c9061430d565b60405180910390fd5b919050565b7f2fe54c60d3acabf3343a35b6eba15db4821b340f76e741e2249685ed4899af6c81565b600a83126123c1576040517f08c379a00000000000000000000000000000000000000000000000000000000081526004016123b890613ab4565b60405180910390fd5b60008311612404576040517f08c379a00000000000000000000000000000000000000000000000000000000081526004016123fb90613b20565b60405180910390fd5b600a8210612447576040517f08c379a000000000000000000000000000000000000000000000000000000000815260040161243e90613ab4565b60405180910390fd5b6000821161248a576040517f08c379a000000000000000000000000000000000000000000000000000000000815260040161248190613b20565b60405180910390fd5b600a81106124cd576040517f08c379a00000000000000000000000000000000000000000000000000000000081526004016124c490613ab4565b60405180910390fd5b60008111612510576040517f08c379a000000000000000000000000000000000000000000000000000000000815260040161250790613b20565b60405180910390fd5b83600960003373ffffffffffffffffffffffffffffffffffffffff1673ffffffffffffffffffffffffffffffffffffffff168152602001908152602001600020819055503460086000868152602001908152602001600020600083600a866125789190613b40565b6064886125859190613b40565b61258f9190613b9a565b6125999190613b9a565b81526020019081526020016000208190555050505050565b7f000000000000000000000000000000000000000000000000000000000000000081565b60016020528060005260406000206000915090505481565b600360049054906101000a900463ffffffff1681565b60006005600088815260200190815260200160002060009054906101000a900460ff1660ff1614612669576040517f08c379a000000000000000000000000000000000000000000000000000000000815260040161266090614379565b60405180910390fd5b600360089054906101000a900473ffffffffffffffffffffffffffffffffffffffff1673ffffffffffffffffffffffffffffffffffffffff1663db5f5af4858585856040518563ffffffff1660e01b81526004016126ca949392919061441d565b6020604051808303816000875af11580156126e9573d6000803e3d6000fd5b505050506040513d601f19601f8201168201806040525081019061270d9190613977565b61274c576040517f08c379a0000000000000000000000000000000000000000000000000000000008152600401612743906144d6565b60405180910390fd5b60016005600088815260200190815260200160002060006101000a81548160ff021916908360ff160217905550846004600088815260200190815260200160002060006101000a81548173ffffffffffffffffffffffffffffffffffffffff021916908373ffffffffffffffffffffffffffffffffffffffff160217905550505050505050565b600080600360049054906101000a900463ffffffff16905060008054906101000a900463ffffffff1660026128089190614629565b63ffffffff168163ffffffff1603612855576040517f08c379a000000000000000000000000000000000000000000000000000000000815260040161284c906146ca565b60405180910390fd5b6000819050600084905060008060005b60008054906101000a900463ffffffff1663ffffffff168163ffffffff16101561294957600060028661289891906146ea565b63ffffffff16036128da578392506128b58163ffffffff16611cbb565b915083600160008363ffffffff168152602001908152602001600020819055506128fa565b600160008263ffffffff1681526020019081526020016000205492508391505b6129257f00000000000000000000000000000000000000000000000000000000000000008484610ec9565b9350600285612934919061471b565b945080806129419061474c565b915050612865565b506000601e6001600360009054906101000a900463ffffffff1661296d9190614778565b61297791906146ea565b905080600360006101000a81548163ffffffff021916908363ffffffff16021790555083600260008363ffffffff168152602001908152602001600020819055506001866129c59190614778565b600360046101000a81548163ffffffff021916908363ffffffff160217905550859650505050505050919050565b600073ffffffffffffffffffffffffffffffffffffffff82169050919050565b6000819050919050565b6000612a38612a33612a2e846129f3565b612a13565b6129f3565b9050919050565b6000612a4a82612a1d565b9050919050565b6000612a5c82612a3f565b9050919050565b612a6c81612a51565b82525050565b6000602082019050612a876000830184612a63565b92915050565b6000819050919050565b612aa081612a8d565b82525050565b6000602082019050612abb6000830184612a97565b92915050565b6000604051905090565b600080fd5b600080fd5b6000601f19601f8301169050919050565b7f4e487b7100000000000000000000000000000000000000000000000000000000600052604160045260246000fd5b612b1e82612ad5565b810181811067ffffffffffffffff82111715612b3d57612b3c612ae6565b5b80604052505050565b6000612b50612ac1565b9050612b5c8282612b15565b919050565b600067ffffffffffffffff821115612b7c57612b7b612ae6565b5b602082029050919050565b600080fd5b612b9581612a8d565b8114612ba057600080fd5b50565b600081359050612bb281612b8c565b92915050565b6000612bcb612bc684612b61565b612b46565b90508060208402830185811115612be557612be4612b87565b5b835b81811015612c0e5780612bfa8882612ba3565b845260208401935050602081019050612be7565b5050509392505050565b600082601f830112612c2d57612c2c612ad0565b5b6002612c3a848285612bb8565b91505092915050565b600067ffffffffffffffff821115612c5e57612c5d612ae6565b5b602082029050919050565b6000612c7c612c7784612c43565b612b46565b90508060408402830185811115612c9657612c95612b87565b5b835b81811015612cbf5780612cab8882612c18565b845260208401935050604081019050612c98565b5050509392505050565b600082601f830112612cde57612cdd612ad0565b5b6002612ceb848285612c69565b91505092915050565b600067ffffffffffffffff821115612d0f57612d0e612ae6565b5b602082029050919050565b6000612d2d612d2884612cf4565b612b46565b90508060208402830185811115612d4757612d46612b87565b5b835b81811015612d705780612d5c8882612ba3565b845260208401935050602081019050612d49565b5050509392505050565b600082601f830112612d8f57612d8e612ad0565b5b6004612d9c848285612d1a565b91505092915050565b6000806000806101808587031215612dc057612dbf612acb565b5b6000612dce87828801612c18565b9450506040612ddf87828801612cc9565b93505060c0612df087828801612c18565b925050610100612e0287828801612d7a565b91505092959194509250565b600060208284031215612e2457612e23612acb565b5b6000612e3284828501612ba3565b91505092915050565b600060ff82169050919050565b612e5181612e3b565b82525050565b6000602082019050612e6c6000830184612e48565b92915050565b6000612e7d826129f3565b9050919050565b612e8d81612e72565b8114612e9857600080fd5b50565b600081359050612eaa81612e84565b92915050565b600067ffffffffffffffff821115612ecb57612eca612ae6565b5b602082029050919050565b6000612ee9612ee484612eb0565b612b46565b90508060208402830185811115612f0357612f02612b87565b5b835b81811015612f2c5780612f188882612ba3565b845260208401935050602081019050612f05565b5050509392505050565b600082601f830112612f4b57612f4a612ad0565b5b6001612f58848285612ed6565b91505092915050565b6000806000806000806101608789031215612f7f57612f7e612acb565b5b6000612f8d89828a01612ba3565b9650506020612f9e89828a01612e9b565b9550506040612faf89828a01612c18565b9450506080612fc089828a01612cc9565b935050610100612fd289828a01612c18565b925050610140612fe489828a01612f36565b9150509295509295509295565b60008115159050919050565b61300681612ff1565b82525050565b60006020820190506130216000830184612ffd565b92915050565b600063ffffffff82169050919050565b61304081613027565b82525050565b600060208201905061305b6000830184613037565b92915050565b61306a81612e72565b82525050565b60006020820190506130856000830184613061565b92915050565b6000819050919050565b61309e8161308b565b81146130a957600080fd5b50565b6000813590506130bb81613095565b92915050565b6000602082840312156130d7576130d6612acb565b5b60006130e5848285016130ac565b91505092915050565b6000806000806080858703121561310857613107612acb565b5b600061311687828801612ba3565b945050602061312787828801612ba3565b935050604061313887828801612ba3565b925050606061314987828801612ba3565b91505092959194509250565b60008060008061012085870312156131705761316f612acb565b5b600061317e87828801612c18565b945050604061318f87828801612cc9565b93505060c06131a087828801612c18565b9250506101006131b287828801612f36565b91505092959194509250565b600080604083850312156131d5576131d4612acb565b5b60006131e385828601612ba3565b92505060206131f485828601612ba3565b9150509250929050565b600061320982612e72565b9050919050565b613219816131fe565b811461322457600080fd5b50565b60008135905061323681613210565b92915050565b60008060006060848603121561325557613254612acb565b5b600061326386828701613227565b9350506020613274868287016130ac565b9250506040613285868287016130ac565b9150509250925092565b6132988161308b565b82525050565b60006020820190506132b3600083018461328f565b92915050565b6000602082840312156132cf576132ce612acb565b5b60006132dd84828501612e9b565b91505092915050565b600067ffffffffffffffff82111561330157613300612ae6565b5b602082029050919050565b600061331f61331a846132e6565b612b46565b9050806020840283018581111561333957613338612b87565b5b835b81811015613362578061334e8882612ba3565b84526020840193505060208101905061333b565b5050509392505050565b600082601f83011261338157613380612ad0565b5b600361338e84828561330c565b91505092915050565b60008060008061016085870312156133b2576133b1612acb565b5b60006133c087828801612c18565b94505060406133d187828801612cc9565b93505060c06133e287828801612c18565b9250506101006133f48782880161336c565b91505092959194509250565b600067ffffffffffffffff82111561341b5761341a612ae6565b5b602082029050919050565b600061343961343484613400565b612b46565b9050806020840283018581111561345357613452612b87565b5b835b8181101561347c57806134688882612ba3565b845260208401935050602081019050613455565b5050509392505050565b600082601f83011261349b5761349a612ad0565b5b60076134a8848285613426565b91505092915050565b6000806000806101e085870312156134cc576134cb612acb565b5b60006134da87828801612c18565b94505060406134eb87828801612cc9565b93505060c06134fc87828801612c18565b92505061010061350e87828801613486565b91505092959194509250565b600080600080610140858703121561353557613534612acb565b5b600061354387828801612c18565b945050604061355487828801612cc9565b93505060c061356587828801612c18565b92505061010061357787828801612c18565b91505092959194509250565b600061358e82612a3f565b9050919050565b61359e81613583565b82525050565b60006020820190506135b96000830184613595565b92915050565b7f4e487b7100000000000000000000000000000000000000000000000000000000600052603260045260246000fd5b600082825260208201905092915050565b7f4e756c6c69666965722077617320616c72656164792075736564000000000000600082015250565b6000613635601a836135ee565b9150613640826135ff565b602082019050919050565b6000602082019050818103600083015261366481613628565b9050919050565b7f43616e6e6f742066696e6420796f7572206d65726b6c6520726f6f7400000000600082015250565b60006136a1601c836135ee565b91506136ac8261366b565b602082019050919050565b600060208201905081810360008301526136d081613694565b9050919050565b600060029050919050565b600081905092915050565b6000819050919050565b61370081612a8d565b82525050565b600061371283836136f7565b60208301905092915050565b6000602082019050919050565b613734816136d7565b61373e81846136e2565b9250613749826136ed565b8060005b8381101561377a5781516137618782613706565b965061376c8361371e565b92505060018101905061374d565b505050505050565b600060029050919050565b600081905092915050565b6000819050919050565b600081905092915050565b6137b6816136d7565b6137c081846137a2565b92506137cb826136ed565b8060005b838110156137fc5781516137e38782613706565b96506137ee8361371e565b9250506001810190506137cf565b505050505050565b600061381083836137ad565b60408301905092915050565b6000602082019050919050565b61383281613782565b61383c818461378d565b925061384782613798565b8060005b8381101561387857815161385f8782613804565b965061386a8361381c565b92505060018101905061384b565b505050505050565b600060049050919050565b600081905092915050565b6000819050919050565b6000602082019050919050565b6138b681613880565b6138c0818461388b565b92506138cb82613896565b8060005b838110156138fc5781516138e38782613706565b96506138ee836138a0565b9250506001810190506138cf565b505050505050565b60006101808201905061391a600083018761372b565b6139276040830186613829565b61393460c083018561372b565b6139426101008301846138ad565b95945050505050565b61395481612ff1565b811461395f57600080fd5b50565b6000815190506139718161394b565b92915050565b60006020828403121561398d5761398c612acb565b5b600061399b84828501613962565b91505092915050565b7f496e76616c696420756e736869656c642070726f6f6600000000000000000000600082015250565b60006139da6016836135ee565b91506139e5826139a4565b602082019050919050565b60006020820190508181036000830152613a09816139cd565b9050919050565b7f4e487b7100000000000000000000000000000000000000000000000000000000600052601160045260246000fd5b6000613a4a82613027565b915060008203613a5d57613a5c613a10565b5b600182039050919050565b7f47726561746572207468616e2031300000000000000000000000000000000000600082015250565b6000613a9e600f836135ee565b9150613aa982613a68565b602082019050919050565b60006020820190508181036000830152613acd81613a91565b9050919050565b7f536d616c6c6572207468616e2030000000000000000000000000000000000000600082015250565b6000613b0a600e836135ee565b9150613b1582613ad4565b602082019050919050565b60006020820190508181036000830152613b3981613afd565b9050919050565b6000613b4b82612a8d565b9150613b5683612a8d565b9250817fffffffffffffffffffffffffffffffffffffffffffffffffffffffffffffffff0483118215151615613b8f57613b8e613a10565b5b828202905092915050565b6000613ba582612a8d565b9150613bb083612a8d565b9250827fffffffffffffffffffffffffffffffffffffffffffffffffffffffffffffffff03821115613be557613be4613a10565b5b828201905092915050565b7f42616c616e636520697320656d70747900000000000000000000000000000000600082015250565b6000613c266010836135ee565b9150613c3182613bf0565b602082019050919050565b60006020820190508181036000830152613c5581613c19565b9050919050565b7f5f6c6566742073686f756c6420626520696e7369646520746865206669656c64600082015250565b6000613c926020836135ee565b9150613c9d82613c5c565b602082019050919050565b60006020820190508181036000830152613cc181613c85565b9050919050565b7f5f72696768742073686f756c6420626520696e7369646520746865206669656c60008201527f6400000000000000000000000000000000000000000000000000000000000000602082015250565b6000613d246021836135ee565b9150613d2f82613cc8565b604082019050919050565b60006020820190508181036000830152613d5381613d17565b9050919050565b6000604082019050613d6f6000830185612a97565b613d7c6020830184612a97565b9392505050565b600081519050613d9281612b8c565b92915050565b60008060408385031215613daf57613dae612acb565b5b6000613dbd85828601613d83565b9250506020613dce85828601613d83565b9150509250929050565b7f4e487b7100000000000000000000000000000000000000000000000000000000600052601260045260246000fd5b600060039050919050565b600081905092915050565b6000819050919050565b6000602082019050919050565b613e3d81613e07565b613e478184613e12565b9250613e5282613e1d565b8060005b83811015613e83578151613e6a8782613706565b9650613e7583613e27565b925050600181019050613e56565b505050505050565b600061016082019050613ea1600083018761372b565b613eae6040830186613829565b613ebb60c083018561372b565b613ec9610100830184613e34565b95945050505050565b7f436f6d6d69746d656e7420616c72656164792065786973747300000000000000600082015250565b6000613f086019836135ee565b9150613f1382613ed2565b602082019050919050565b60006020820190508181036000830152613f3781613efb565b9050919050565b6000613f4982613027565b9150613f5483613027565b925082821015613f6757613f66613a10565b5b828203905092915050565b6000613f8d613f88613f8384613027565b612a13565b612a8d565b9050919050565b613f9d81613f72565b82525050565b6000604082019050613fb8600083018561328f565b613fc56020830184613f94565b9392505050565b600060079050919050565b600081905092915050565b6000819050919050565b6000602082019050919050565b61400281613fcc565b61400c8184613fd7565b925061401782613fe2565b8060005b8381101561404857815161402f8782613706565b965061403a83613fec565b92505060018101905061401b565b505050505050565b60006101e082019050614066600083018761372b565b6140736040830186613829565b61408060c083018561372b565b61408e610100830184613ff9565b95945050505050565b60006140a282612a8d565b91506140ad83612a8d565b9250828210156140c0576140bf613a10565b5b828203905092915050565b60006080820190506140e06000830187612a97565b6140ed6020830186612a97565b6140fa6040830185612a97565b6141076060830184612a97565b95945050505050565b7f4f6e6c79206d696e74656420616e6420756e736869656c64656420746f6b656e60008201527f732063616e20626520736869656c646564000000000000000000000000000000602082015250565b600061416c6031836135ee565b915061417782614110565b604082019050919050565b6000602082019050818103600083015261419b8161415f565b9050919050565b7f4f6e6c79206f776e65722063616e20736869656c64206120746f6b656e000000600082015250565b60006141d8601d836135ee565b91506141e3826141a2565b602082019050919050565b60006020820190508181036000830152614207816141cb565b9050919050565b600061014082019050614224600083018761372b565b6142316040830186613829565b61423e60c083018561372b565b61424c61010083018461372b565b95945050505050565b7f496e76616c696420736869656c642070726f6f66000000000000000000000000600082015250565b600061428b6014836135ee565b915061429682614255565b602082019050919050565b600060208201905081810360008301526142ba8161427e565b9050919050565b7f496e646578206f7574206f6620626f756e647300000000000000000000000000600082015250565b60006142f76013836135ee565b9150614302826142c1565b602082019050919050565b60006020820190508181036000830152614326816142ea565b9050919050565b7f546f6b656e20616c7265616479206d696e746564000000000000000000000000600082015250565b60006143636014836135ee565b915061436e8261432d565b602082019050919050565b6000602082019050818103600083015261439281614356565b9050919050565b600060019050919050565b600081905092915050565b6000819050919050565b6000602082019050919050565b6143cf81614399565b6143d981846143a4565b92506143e4826143af565b8060005b838110156144155781516143fc8782613706565b9650614407836143b9565b9250506001810190506143e8565b505050505050565b600061012082019050614433600083018761372b565b6144406040830186613829565b61444d60c083018561372b565b61445b6101008301846143c6565b95945050505050565b7f4661696c757265206f662070726f6f66206f66206d696e74207665726966696360008201527f6174696f6e000000000000000000000000000000000000000000000000000000602082015250565b60006144c06025836135ee565b91506144cb82614464565b604082019050919050565b600060208201905081810360008301526144ef816144b3565b9050919050565b60008160011c9050919050565b6000808291508390505b600185111561454d5780860481111561452957614528613a10565b5b60018516156145385780820291505b8081029050614546856144f6565b945061450d565b94509492505050565b6000826145665760019050614622565b816145745760009050614622565b816001811461458a5760028114614594576145c3565b6001915050614622565b60ff8411156145a6576145a5613a10565b5b8360020a9150848211156145bd576145bc613a10565b5b50614622565b5060208310610133831016604e8410600b84101617156145f85782820a9050838111156145f3576145f2613a10565b5b614622565b6146058484846001614503565b9250905081840481111561461c5761461b613a10565b5b81810290505b9392505050565b600061463482613027565b915061463f83613027565b925061465063ffffffff8484614556565b905092915050565b7f4d65726b6c6520747265652069732066756c6c2e204e6f206d6f7265206c656160008201527f7665732063616e20626520616464656400000000000000000000000000000000602082015250565b60006146b46030836135ee565b91506146bf82614658565b604082019050919050565b600060208201905081810360008301526146e3816146a7565b9050919050565b60006146f582613027565b915061470083613027565b9250826147105761470f613dd8565b5b828206905092915050565b600061472682613027565b915061473183613027565b92508261474157614740613dd8565b5b828204905092915050565b600061475782613027565b915063ffffffff820361476d5761476c613a10565b5b600182019050919050565b600061478382613027565b915061478e83613027565b92508263ffffffff038211156147a7576147a6613a10565b5b82820190509291505056fea2646970667358221220cdcf1522d6c8ff2a290b37c465a21a137340329b61cd1e010e0cc1b09b9b0fbe64736f6c634300080f0033",
  "linkReferences": {},
  "deployedLinkReferences": {}
}